{
	"MerchantOfVenice.sol": {
		"MerchantOfVenice": {
			"abi": [
				{
					"inputs": [
						{
							"internalType": "address",
							"name": "_antonio",
							"type": "address"
						},
						{
							"internalType": "uint256",
							"name": "_loanAmount",
							"type": "uint256"
						},
						{
							"internalType": "uint256",
							"name": "_depositWindowSeconds",
							"type": "uint256"
						},
						{
							"internalType": "uint256",
							"name": "_disbursementWindowSeconds",
							"type": "uint256"
						},
						{
							"internalType": "uint256",
							"name": "_repaymentWindowSeconds",
							"type": "uint256"
						}
					],
					"stateMutability": "nonpayable",
					"type": "constructor"
				},
				{
					"anonymous": false,
					"inputs": [
						{
							"indexed": false,
							"internalType": "uint256",
							"name": "amount",
							"type": "uint256"
						}
					],
					"name": "BondForfeited",
					"type": "event"
				},
				{
					"anonymous": false,
					"inputs": [
						{
							"indexed": false,
							"internalType": "uint256",
							"name": "amount",
							"type": "uint256"
						},
						{
							"indexed": false,
							"internalType": "uint256",
							"name": "disbursementDeadline",
							"type": "uint256"
						}
					],
					"name": "CollateralDeposited",
					"type": "event"
				},
				{
					"anonymous": false,
					"inputs": [
						{
							"indexed": false,
							"internalType": "uint256",
							"name": "amount",
							"type": "uint256"
						}
					],
					"name": "CollateralReclaimed",
					"type": "event"
				},
				{
					"anonymous": false,
					"inputs": [],
					"name": "ContractCancelled",
					"type": "event"
				},
				{
					"anonymous": false,
					"inputs": [
						{
							"indexed": true,
							"internalType": "address",
							"name": "shylock",
							"type": "address"
						},
						{
							"indexed": true,
							"internalType": "address",
							"name": "antonio",
							"type": "address"
						},
						{
							"indexed": false,
							"internalType": "uint256",
							"name": "loanAmount",
							"type": "uint256"
						},
						{
							"indexed": false,
							"internalType": "uint256",
							"name": "collateralAmount",
							"type": "uint256"
						},
						{
							"indexed": false,
							"internalType": "uint256",
							"name": "depositDeadline",
							"type": "uint256"
						}
					],
					"name": "ContractCreated",
					"type": "event"
				},
				{
					"anonymous": false,
					"inputs": [
						{
							"indexed": false,
							"internalType": "uint256",
							"name": "amount",
							"type": "uint256"
						},
						{
							"indexed": false,
							"internalType": "uint256",
							"name": "repaymentDeadline",
							"type": "uint256"
						}
					],
					"name": "LoanDisbursed",
					"type": "event"
				},
				{
					"anonymous": false,
					"inputs": [
						{
							"indexed": false,
							"internalType": "uint256",
							"name": "repaymentAmount",
							"type": "uint256"
						},
						{
							"indexed": false,
							"internalType": "uint256",
							"name": "collateralReturned",
							"type": "uint256"
						}
					],
					"name": "LoanRepaid",
					"type": "event"
				},
				{
					"inputs": [],
					"name": "antonio",
					"outputs": [
						{
							"internalType": "address",
							"name": "",
							"type": "address"
						}
					],
					"stateMutability": "view",
					"type": "function"
				},
				{
					"inputs": [],
					"name": "cancel",
					"outputs": [],
					"stateMutability": "nonpayable",
					"type": "function"
				},
				{
					"inputs": [],
					"name": "claimBond",
					"outputs": [],
					"stateMutability": "nonpayable",
					"type": "function"
				},
				{
					"inputs": [],
					"name": "collateralAmount",
					"outputs": [
						{
							"internalType": "uint256",
							"name": "",
							"type": "uint256"
						}
					],
					"stateMutability": "view",
					"type": "function"
				},
				{
					"inputs": [],
					"name": "collateralDeposited",
					"outputs": [
						{
							"internalType": "bool",
							"name": "",
							"type": "bool"
						}
					],
					"stateMutability": "view",
					"type": "function"
				},
				{
					"inputs": [],
					"name": "depositCollateral",
					"outputs": [],
					"stateMutability": "payable",
					"type": "function"
				},
				{
					"inputs": [],
					"name": "depositDeadline",
					"outputs": [
						{
							"internalType": "uint256",
							"name": "",
							"type": "uint256"
						}
					],
					"stateMutability": "view",
					"type": "function"
				},
				{
					"inputs": [],
					"name": "depositWindowSeconds",
					"outputs": [
						{
							"internalType": "uint256",
							"name": "",
							"type": "uint256"
						}
					],
					"stateMutability": "view",
					"type": "function"
				},
				{
					"inputs": [],
					"name": "disburseLoan",
					"outputs": [],
					"stateMutability": "payable",
					"type": "function"
				},
				{
					"inputs": [],
					"name": "disbursed",
					"outputs": [
						{
							"internalType": "bool",
							"name": "",
							"type": "bool"
						}
					],
					"stateMutability": "view",
					"type": "function"
				},
				{
					"inputs": [],
					"name": "disbursementDeadline",
					"outputs": [
						{
							"internalType": "uint256",
							"name": "",
							"type": "uint256"
						}
					],
					"stateMutability": "view",
					"type": "function"
				},
				{
					"inputs": [],
					"name": "disbursementWindowSeconds",
					"outputs": [
						{
							"internalType": "uint256",
							"name": "",
							"type": "uint256"
						}
					],
					"stateMutability": "view",
					"type": "function"
				},
				{
					"inputs": [],
					"name": "getBalance",
					"outputs": [
						{
							"internalType": "uint256",
							"name": "",
							"type": "uint256"
						}
					],
					"stateMutability": "view",
					"type": "function"
				},
				{
					"inputs": [],
					"name": "loanAmount",
					"outputs": [
						{
							"internalType": "uint256",
							"name": "",
							"type": "uint256"
						}
					],
					"stateMutability": "view",
					"type": "function"
				},
				{
					"inputs": [],
					"name": "reclaimCollateral",
					"outputs": [],
					"stateMutability": "nonpayable",
					"type": "function"
				},
				{
					"inputs": [],
					"name": "repay",
					"outputs": [],
					"stateMutability": "payable",
					"type": "function"
				},
				{
					"inputs": [],
					"name": "repaymentDeadline",
					"outputs": [
						{
							"internalType": "uint256",
							"name": "",
							"type": "uint256"
						}
					],
					"stateMutability": "view",
					"type": "function"
				},
				{
					"inputs": [],
					"name": "repaymentWindowSeconds",
					"outputs": [
						{
							"internalType": "uint256",
							"name": "",
							"type": "uint256"
						}
					],
					"stateMutability": "view",
					"type": "function"
				},
				{
					"inputs": [],
					"name": "settled",
					"outputs": [
						{
							"internalType": "bool",
							"name": "",
							"type": "bool"
						}
					],
					"stateMutability": "view",
					"type": "function"
				},
				{
					"inputs": [],
					"name": "shylock",
					"outputs": [
						{
							"internalType": "address",
							"name": "",
							"type": "address"
						}
					],
					"stateMutability": "view",
					"type": "function"
				},
				{
					"inputs": [],
					"name": "timeToDepositDeadline",
					"outputs": [
						{
							"internalType": "uint256",
							"name": "",
							"type": "uint256"
						}
					],
					"stateMutability": "view",
					"type": "function"
				},
				{
					"inputs": [],
					"name": "timeToDisbursementDeadline",
					"outputs": [
						{
							"internalType": "uint256",
							"name": "",
							"type": "uint256"
						}
					],
					"stateMutability": "view",
					"type": "function"
				},
				{
					"inputs": [],
					"name": "timeToRepaymentDeadline",
					"outputs": [
						{
							"internalType": "uint256",
							"name": "",
							"type": "uint256"
						}
					],
					"stateMutability": "view",
					"type": "function"
				}
			],
			"devdoc": {
				"kind": "dev",
				"methods": {
					"constructor": {
						"params": {
							"_antonio": "The borrower's wallet address.",
							"_depositWindowSeconds": "Seconds Antonio has to deposit collateral.",
							"_disbursementWindowSeconds": "Seconds Shylock has to disburse after deposit.",
							"_loanAmount": "The loan amount in wei.",
							"_repaymentWindowSeconds": "Seconds Antonio has to repay after disbursement."
						}
					}
				},
				"title": "MerchantOfVenice",
				"version": 1
			},
			"evm": {
				"assembly": "    /* \"MerchantOfVenice.sol\":1215:17980  contract MerchantOfVenice {... */\n  mstore(0x40, 0x80)\n    /* \"MerchantOfVenice.sol\":10491:11749  constructor(... */\n  callvalue\n  dup1\n  iszero\n  tag_1\n  jumpi\n  revert(0x00, 0x00)\ntag_1:\n  pop\n  mload(0x40)\n  sub(codesize, bytecodeSize)\n  dup1\n  bytecodeSize\n  dup4\n  codecopy\n  dup2\n  dup2\n  add\n  0x40\n  mstore\n  dup2\n  add\n  swap1\n  tag_2\n  swap2\n  swap1\n  tag_3\n  jump\t// in\ntag_2:\n    /* \"MerchantOfVenice.sol\":10726:10727  0 */\n  0x00\n    /* \"MerchantOfVenice.sol\":10706:10728  _antonio != address(0) */\n  0xffffffffffffffffffffffffffffffffffffffff\n  and\n    /* \"MerchantOfVenice.sol\":10706:10714  _antonio */\n  dup6\n    /* \"MerchantOfVenice.sol\":10706:10728  _antonio != address(0) */\n  0xffffffffffffffffffffffffffffffffffffffff\n  and\n  sub\n    /* \"MerchantOfVenice.sol\":10698:10766  require(_antonio != address(0),           \"Invalid Antonio address\") */\n  tag_6\n  jumpi\n  mload(0x40)\n  0x08c379a000000000000000000000000000000000000000000000000000000000\n  dup2\n  mstore\n  0x04\n  add\n  tag_7\n  swap1\n  tag_8\n  jump\t// in\ntag_7:\n  mload(0x40)\n  dup1\n  swap2\n  sub\n  swap1\n  revert\ntag_6:\n    /* \"MerchantOfVenice.sol\":10798:10799  0 */\n  0x00\n    /* \"MerchantOfVenice.sol\":10784:10795  _loanAmount */\n  dup5\n    /* \"MerchantOfVenice.sol\":10784:10799  _loanAmount > 0 */\n  gt\n    /* \"MerchantOfVenice.sol\":10776:10849  require(_loanAmount > 0,                  \"Loan amount must be positive\") */\n  tag_9\n  jumpi\n  mload(0x40)\n  0x08c379a000000000000000000000000000000000000000000000000000000000\n  dup2\n  mstore\n  0x04\n  add\n  tag_10\n  swap1\n  tag_11\n  jump\t// in\ntag_10:\n  mload(0x40)\n  dup1\n  swap2\n  sub\n  swap1\n  revert\ntag_9:\n    /* \"MerchantOfVenice.sol\":10891:10892  0 */\n  0x00\n    /* \"MerchantOfVenice.sol\":10867:10888  _depositWindowSeconds */\n  dup4\n    /* \"MerchantOfVenice.sol\":10867:10892  _depositWindowSeconds > 0 */\n  gt\n    /* \"MerchantOfVenice.sol\":10859:10935  require(_depositWindowSeconds > 0,        \"Deposit window must be positive\") */\n  tag_12\n  jumpi\n  mload(0x40)\n  0x08c379a000000000000000000000000000000000000000000000000000000000\n  dup2\n  mstore\n  0x04\n  add\n  tag_13\n  swap1\n  tag_14\n  jump\t// in\ntag_13:\n  mload(0x40)\n  dup1\n  swap2\n  sub\n  swap1\n  revert\ntag_12:\n    /* \"MerchantOfVenice.sol\":10982:10983  0 */\n  0x00\n    /* \"MerchantOfVenice.sol\":10953:10979  _disbursementWindowSeconds */\n  dup3\n    /* \"MerchantOfVenice.sol\":10953:10983  _disbursementWindowSeconds > 0 */\n  gt\n    /* \"MerchantOfVenice.sol\":10945:11026  require(_disbursementWindowSeconds > 0,   \"Disbursement window must be positive\") */\n  tag_15\n  jumpi\n  mload(0x40)\n  0x08c379a000000000000000000000000000000000000000000000000000000000\n  dup2\n  mstore\n  0x04\n  add\n  tag_16\n  swap1\n  tag_17\n  jump\t// in\ntag_16:\n  mload(0x40)\n  dup1\n  swap2\n  sub\n  swap1\n  revert\ntag_15:\n    /* \"MerchantOfVenice.sol\":11070:11071  0 */\n  0x00\n    /* \"MerchantOfVenice.sol\":11044:11067  _repaymentWindowSeconds */\n  dup2\n    /* \"MerchantOfVenice.sol\":11044:11071  _repaymentWindowSeconds > 0 */\n  gt\n    /* \"MerchantOfVenice.sol\":11036:11114  require(_repaymentWindowSeconds > 0,      \"Repayment window must be positive\") */\n  tag_18\n  jumpi\n  mload(0x40)\n  0x08c379a000000000000000000000000000000000000000000000000000000000\n  dup2\n  mstore\n  0x04\n  add\n  tag_19\n  swap1\n  tag_20\n  jump\t// in\ntag_19:\n  mload(0x40)\n  dup1\n  swap2\n  sub\n  swap1\n  revert\ntag_18:\n    /* \"MerchantOfVenice.sol\":11153:11163  msg.sender */\n  caller\n    /* \"MerchantOfVenice.sol\":11125:11132  shylock */\n  0x00\n  0x00\n    /* \"MerchantOfVenice.sol\":11125:11163  shylock                   = msg.sender */\n  0x0100\n  exp\n  dup2\n  sload\n  dup2\n  0xffffffffffffffffffffffffffffffffffffffff\n  mul\n  not\n  and\n  swap1\n  dup4\n  0xffffffffffffffffffffffffffffffffffffffff\n  and\n  mul\n  or\n  swap1\n  sstore\n  pop\n    /* \"MerchantOfVenice.sol\":11201:11209  _antonio */\n  dup5\n    /* \"MerchantOfVenice.sol\":11173:11180  antonio */\n  0x01\n  0x00\n    /* \"MerchantOfVenice.sol\":11173:11209  antonio                   = _antonio */\n  0x0100\n  exp\n  dup2\n  sload\n  dup2\n  0xffffffffffffffffffffffffffffffffffffffff\n  mul\n  not\n  and\n  swap1\n  dup4\n  0xffffffffffffffffffffffffffffffffffffffff\n  and\n  mul\n  or\n  swap1\n  sstore\n  pop\n    /* \"MerchantOfVenice.sol\":11247:11258  _loanAmount */\n  dup4\n    /* \"MerchantOfVenice.sol\":11219:11229  loanAmount */\n  0x02\n    /* \"MerchantOfVenice.sol\":11219:11258  loanAmount                = _loanAmount */\n  dup2\n  swap1\n  sstore\n  pop\n    /* \"MerchantOfVenice.sol\":11310:11311  2 */\n  0x02\n    /* \"MerchantOfVenice.sol\":11296:11307  _loanAmount */\n  dup5\n    /* \"MerchantOfVenice.sol\":11296:11311  _loanAmount * 2 */\n  tag_21\n  swap2\n  swap1\n  tag_22\n  jump\t// in\ntag_21:\n    /* \"MerchantOfVenice.sol\":11268:11284  collateralAmount */\n  0x03\n    /* \"MerchantOfVenice.sol\":11268:11311  collateralAmount          = _loanAmount * 2 */\n  dup2\n  swap1\n  sstore\n  pop\n    /* \"MerchantOfVenice.sol\":11349:11370  _depositWindowSeconds */\n  dup3\n    /* \"MerchantOfVenice.sol\":11321:11341  depositWindowSeconds */\n  0x07\n    /* \"MerchantOfVenice.sol\":11321:11370  depositWindowSeconds      = _depositWindowSeconds */\n  dup2\n  swap1\n  sstore\n  pop\n    /* \"MerchantOfVenice.sol\":11408:11434  _disbursementWindowSeconds */\n  dup2\n    /* \"MerchantOfVenice.sol\":11380:11405  disbursementWindowSeconds */\n  0x08\n    /* \"MerchantOfVenice.sol\":11380:11434  disbursementWindowSeconds = _disbursementWindowSeconds */\n  dup2\n  swap1\n  sstore\n  pop\n    /* \"MerchantOfVenice.sol\":11472:11495  _repaymentWindowSeconds */\n  dup1\n    /* \"MerchantOfVenice.sol\":11444:11466  repaymentWindowSeconds */\n  0x09\n    /* \"MerchantOfVenice.sol\":11444:11495  repaymentWindowSeconds    = _repaymentWindowSeconds */\n  dup2\n  swap1\n  sstore\n  pop\n    /* \"MerchantOfVenice.sol\":11551:11572  _depositWindowSeconds */\n  dup3\n    /* \"MerchantOfVenice.sol\":11533:11548  block.timestamp */\n  timestamp\n    /* \"MerchantOfVenice.sol\":11533:11572  block.timestamp + _depositWindowSeconds */\n  tag_23\n  swap2\n  swap1\n  tag_24\n  jump\t// in\ntag_23:\n    /* \"MerchantOfVenice.sol\":11505:11520  depositDeadline */\n  0x04\n    /* \"MerchantOfVenice.sol\":11505:11572  depositDeadline           = block.timestamp + _depositWindowSeconds */\n  dup2\n  swap1\n  sstore\n  pop\n    /* \"MerchantOfVenice.sol\":11641:11649  _antonio */\n  dup5\n    /* \"MerchantOfVenice.sol\":11588:11742  ContractCreated(... */\n  0xffffffffffffffffffffffffffffffffffffffff\n  and\n    /* \"MerchantOfVenice.sol\":11617:11627  msg.sender */\n  caller\n    /* \"MerchantOfVenice.sol\":11588:11742  ContractCreated(... */\n  0xffffffffffffffffffffffffffffffffffffffff\n  and\n  0xf7140fc59a3419c7ddb1d0f8dadd2536d111632dc26793137700c8513aa54f60\n    /* \"MerchantOfVenice.sol\":11663:11674  _loanAmount */\n  dup7\n    /* \"MerchantOfVenice.sol\":11702:11703  2 */\n  0x02\n    /* \"MerchantOfVenice.sol\":11688:11699  _loanAmount */\n  dup9\n    /* \"MerchantOfVenice.sol\":11688:11703  _loanAmount * 2 */\n  tag_25\n  swap2\n  swap1\n  tag_22\n  jump\t// in\ntag_25:\n    /* \"MerchantOfVenice.sol\":11717:11732  depositDeadline */\n  sload(0x04)\n    /* \"MerchantOfVenice.sol\":11588:11742  ContractCreated(... */\n  mload(0x40)\n  tag_26\n  swap4\n  swap3\n  swap2\n  swap1\n  tag_27\n  jump\t// in\ntag_26:\n  mload(0x40)\n  dup1\n  swap2\n  sub\n  swap1\n  log3\n    /* \"MerchantOfVenice.sol\":10491:11749  constructor(... */\n  pop\n  pop\n  pop\n  pop\n  pop\n    /* \"MerchantOfVenice.sol\":1215:17980  contract MerchantOfVenice {... */\n  jump(tag_28)\n    /* \"#utility.yul\":88:205   */\ntag_30:\n    /* \"#utility.yul\":197:198   */\n  0x00\n    /* \"#utility.yul\":194:195   */\n  0x00\n    /* \"#utility.yul\":187:199   */\n  revert\n    /* \"#utility.yul\":334:460   */\ntag_32:\n    /* \"#utility.yul\":371:378   */\n  0x00\n    /* \"#utility.yul\":411:453   */\n  0xffffffffffffffffffffffffffffffffffffffff\n    /* \"#utility.yul\":404:409   */\n  dup3\n    /* \"#utility.yul\":400:454   */\n  and\n    /* \"#utility.yul\":389:454   */\n  swap1\n  pop\n    /* \"#utility.yul\":334:460   */\n  swap2\n  swap1\n  pop\n  jump\t// out\n    /* \"#utility.yul\":466:562   */\ntag_33:\n    /* \"#utility.yul\":503:510   */\n  0x00\n    /* \"#utility.yul\":532:556   */\n  tag_58\n    /* \"#utility.yul\":550:555   */\n  dup3\n    /* \"#utility.yul\":532:556   */\n  tag_32\n  jump\t// in\ntag_58:\n    /* \"#utility.yul\":521:556   */\n  swap1\n  pop\n    /* \"#utility.yul\":466:562   */\n  swap2\n  swap1\n  pop\n  jump\t// out\n    /* \"#utility.yul\":568:690   */\ntag_34:\n    /* \"#utility.yul\":641:665   */\n  tag_60\n    /* \"#utility.yul\":659:664   */\n  dup2\n    /* \"#utility.yul\":641:665   */\n  tag_33\n  jump\t// in\ntag_60:\n    /* \"#utility.yul\":634:639   */\n  dup2\n    /* \"#utility.yul\":631:666   */\n  eq\n    /* \"#utility.yul\":621:684   */\n  tag_61\n  jumpi\n    /* \"#utility.yul\":680:681   */\n  0x00\n    /* \"#utility.yul\":677:678   */\n  0x00\n    /* \"#utility.yul\":670:682   */\n  revert\n    /* \"#utility.yul\":621:684   */\ntag_61:\n    /* \"#utility.yul\":568:690   */\n  pop\n  jump\t// out\n    /* \"#utility.yul\":696:839   */\ntag_35:\n    /* \"#utility.yul\":753:758   */\n  0x00\n    /* \"#utility.yul\":784:790   */\n  dup2\n    /* \"#utility.yul\":778:791   */\n  mload\n    /* \"#utility.yul\":769:791   */\n  swap1\n  pop\n    /* \"#utility.yul\":800:833   */\n  tag_63\n    /* \"#utility.yul\":827:832   */\n  dup2\n    /* \"#utility.yul\":800:833   */\n  tag_34\n  jump\t// in\ntag_63:\n    /* \"#utility.yul\":696:839   */\n  swap3\n  swap2\n  pop\n  pop\n  jump\t// out\n    /* \"#utility.yul\":845:922   */\ntag_36:\n    /* \"#utility.yul\":882:889   */\n  0x00\n    /* \"#utility.yul\":911:916   */\n  dup2\n    /* \"#utility.yul\":900:916   */\n  swap1\n  pop\n    /* \"#utility.yul\":845:922   */\n  swap2\n  swap1\n  pop\n  jump\t// out\n    /* \"#utility.yul\":928:1050   */\ntag_37:\n    /* \"#utility.yul\":1001:1025   */\n  tag_66\n    /* \"#utility.yul\":1019:1024   */\n  dup2\n    /* \"#utility.yul\":1001:1025   */\n  tag_36\n  jump\t// in\ntag_66:\n    /* \"#utility.yul\":994:999   */\n  dup2\n    /* \"#utility.yul\":991:1026   */\n  eq\n    /* \"#utility.yul\":981:1044   */\n  tag_67\n  jumpi\n    /* \"#utility.yul\":1040:1041   */\n  0x00\n    /* \"#utility.yul\":1037:1038   */\n  0x00\n    /* \"#utility.yul\":1030:1042   */\n  revert\n    /* \"#utility.yul\":981:1044   */\ntag_67:\n    /* \"#utility.yul\":928:1050   */\n  pop\n  jump\t// out\n    /* \"#utility.yul\":1056:1199   */\ntag_38:\n    /* \"#utility.yul\":1113:1118   */\n  0x00\n    /* \"#utility.yul\":1144:1150   */\n  dup2\n    /* \"#utility.yul\":1138:1151   */\n  mload\n    /* \"#utility.yul\":1129:1151   */\n  swap1\n  pop\n    /* \"#utility.yul\":1160:1193   */\n  tag_69\n    /* \"#utility.yul\":1187:1192   */\n  dup2\n    /* \"#utility.yul\":1160:1193   */\n  tag_37\n  jump\t// in\ntag_69:\n    /* \"#utility.yul\":1056:1199   */\n  swap3\n  swap2\n  pop\n  pop\n  jump\t// out\n    /* \"#utility.yul\":1205:2182   */\ntag_3:\n    /* \"#utility.yul\":1311:1317   */\n  0x00\n    /* \"#utility.yul\":1319:1325   */\n  0x00\n    /* \"#utility.yul\":1327:1333   */\n  0x00\n    /* \"#utility.yul\":1335:1341   */\n  0x00\n    /* \"#utility.yul\":1343:1349   */\n  0x00\n    /* \"#utility.yul\":1392:1395   */\n  0xa0\n    /* \"#utility.yul\":1380:1389   */\n  dup7\n    /* \"#utility.yul\":1371:1378   */\n  dup9\n    /* \"#utility.yul\":1367:1390   */\n  sub\n    /* \"#utility.yul\":1363:1396   */\n  slt\n    /* \"#utility.yul\":1360:1480   */\n  iszero\n  tag_71\n  jumpi\n    /* \"#utility.yul\":1399:1478   */\n  tag_72\n  tag_30\n  jump\t// in\ntag_72:\n    /* \"#utility.yul\":1360:1480   */\ntag_71:\n    /* \"#utility.yul\":1519:1520   */\n  0x00\n    /* \"#utility.yul\":1544:1608   */\n  tag_73\n    /* \"#utility.yul\":1600:1607   */\n  dup9\n    /* \"#utility.yul\":1591:1597   */\n  dup3\n    /* \"#utility.yul\":1580:1589   */\n  dup10\n    /* \"#utility.yul\":1576:1598   */\n  add\n    /* \"#utility.yul\":1544:1608   */\n  tag_35\n  jump\t// in\ntag_73:\n    /* \"#utility.yul\":1534:1608   */\n  swap6\n  pop\n    /* \"#utility.yul\":1490:1618   */\n  pop\n    /* \"#utility.yul\":1657:1659   */\n  0x20\n    /* \"#utility.yul\":1683:1747   */\n  tag_74\n    /* \"#utility.yul\":1739:1746   */\n  dup9\n    /* \"#utility.yul\":1730:1736   */\n  dup3\n    /* \"#utility.yul\":1719:1728   */\n  dup10\n    /* \"#utility.yul\":1715:1737   */\n  add\n    /* \"#utility.yul\":1683:1747   */\n  tag_38\n  jump\t// in\ntag_74:\n    /* \"#utility.yul\":1673:1747   */\n  swap5\n  pop\n    /* \"#utility.yul\":1628:1757   */\n  pop\n    /* \"#utility.yul\":1796:1798   */\n  0x40\n    /* \"#utility.yul\":1822:1886   */\n  tag_75\n    /* \"#utility.yul\":1878:1885   */\n  dup9\n    /* \"#utility.yul\":1869:1875   */\n  dup3\n    /* \"#utility.yul\":1858:1867   */\n  dup10\n    /* \"#utility.yul\":1854:1876   */\n  add\n    /* \"#utility.yul\":1822:1886   */\n  tag_38\n  jump\t// in\ntag_75:\n    /* \"#utility.yul\":1812:1886   */\n  swap4\n  pop\n    /* \"#utility.yul\":1767:1896   */\n  pop\n    /* \"#utility.yul\":1935:1937   */\n  0x60\n    /* \"#utility.yul\":1961:2025   */\n  tag_76\n    /* \"#utility.yul\":2017:2024   */\n  dup9\n    /* \"#utility.yul\":2008:2014   */\n  dup3\n    /* \"#utility.yul\":1997:2006   */\n  dup10\n    /* \"#utility.yul\":1993:2015   */\n  add\n    /* \"#utility.yul\":1961:2025   */\n  tag_38\n  jump\t// in\ntag_76:\n    /* \"#utility.yul\":1951:2025   */\n  swap3\n  pop\n    /* \"#utility.yul\":1906:2035   */\n  pop\n    /* \"#utility.yul\":2074:2077   */\n  0x80\n    /* \"#utility.yul\":2101:2165   */\n  tag_77\n    /* \"#utility.yul\":2157:2164   */\n  dup9\n    /* \"#utility.yul\":2148:2154   */\n  dup3\n    /* \"#utility.yul\":2137:2146   */\n  dup10\n    /* \"#utility.yul\":2133:2155   */\n  add\n    /* \"#utility.yul\":2101:2165   */\n  tag_38\n  jump\t// in\ntag_77:\n    /* \"#utility.yul\":2091:2165   */\n  swap2\n  pop\n    /* \"#utility.yul\":2045:2175   */\n  pop\n    /* \"#utility.yul\":1205:2182   */\n  swap3\n  swap6\n  pop\n  swap3\n  swap6\n  swap1\n  swap4\n  pop\n  jump\t// out\n    /* \"#utility.yul\":2188:2357   */\ntag_39:\n    /* \"#utility.yul\":2272:2283   */\n  0x00\n    /* \"#utility.yul\":2306:2312   */\n  dup3\n    /* \"#utility.yul\":2301:2304   */\n  dup3\n    /* \"#utility.yul\":2294:2313   */\n  mstore\n    /* \"#utility.yul\":2346:2350   */\n  0x20\n    /* \"#utility.yul\":2341:2344   */\n  dup3\n    /* \"#utility.yul\":2337:2351   */\n  add\n    /* \"#utility.yul\":2322:2351   */\n  swap1\n  pop\n    /* \"#utility.yul\":2188:2357   */\n  swap3\n  swap2\n  pop\n  pop\n  jump\t// out\n    /* \"#utility.yul\":2363:2536   */\ntag_40:\n    /* \"#utility.yul\":2503:2528   */\n  0x496e76616c696420416e746f6e696f2061646472657373000000000000000000\n    /* \"#utility.yul\":2499:2500   */\n  0x00\n    /* \"#utility.yul\":2491:2497   */\n  dup3\n    /* \"#utility.yul\":2487:2501   */\n  add\n    /* \"#utility.yul\":2480:2529   */\n  mstore\n    /* \"#utility.yul\":2363:2536   */\n  pop\n  jump\t// out\n    /* \"#utility.yul\":2542:2908   */\ntag_41:\n    /* \"#utility.yul\":2684:2687   */\n  0x00\n    /* \"#utility.yul\":2705:2772   */\n  tag_81\n    /* \"#utility.yul\":2769:2771   */\n  0x17\n    /* \"#utility.yul\":2764:2767   */\n  dup4\n    /* \"#utility.yul\":2705:2772   */\n  tag_39\n  jump\t// in\ntag_81:\n    /* \"#utility.yul\":2698:2772   */\n  swap2\n  pop\n    /* \"#utility.yul\":2781:2874   */\n  tag_82\n    /* \"#utility.yul\":2870:2873   */\n  dup3\n    /* \"#utility.yul\":2781:2874   */\n  tag_40\n  jump\t// in\ntag_82:\n    /* \"#utility.yul\":2899:2901   */\n  0x20\n    /* \"#utility.yul\":2894:2897   */\n  dup3\n    /* \"#utility.yul\":2890:2902   */\n  add\n    /* \"#utility.yul\":2883:2902   */\n  swap1\n  pop\n    /* \"#utility.yul\":2542:2908   */\n  swap2\n  swap1\n  pop\n  jump\t// out\n    /* \"#utility.yul\":2914:3333   */\ntag_8:\n    /* \"#utility.yul\":3080:3084   */\n  0x00\n    /* \"#utility.yul\":3118:3120   */\n  0x20\n    /* \"#utility.yul\":3107:3116   */\n  dup3\n    /* \"#utility.yul\":3103:3121   */\n  add\n    /* \"#utility.yul\":3095:3121   */\n  swap1\n  pop\n    /* \"#utility.yul\":3167:3176   */\n  dup2\n    /* \"#utility.yul\":3161:3165   */\n  dup2\n    /* \"#utility.yul\":3157:3177   */\n  sub\n    /* \"#utility.yul\":3153:3154   */\n  0x00\n    /* \"#utility.yul\":3142:3151   */\n  dup4\n    /* \"#utility.yul\":3138:3155   */\n  add\n    /* \"#utility.yul\":3131:3178   */\n  mstore\n    /* \"#utility.yul\":3195:3326   */\n  tag_84\n    /* \"#utility.yul\":3321:3325   */\n  dup2\n    /* \"#utility.yul\":3195:3326   */\n  tag_41\n  jump\t// in\ntag_84:\n    /* \"#utility.yul\":3187:3326   */\n  swap1\n  pop\n    /* \"#utility.yul\":2914:3333   */\n  swap2\n  swap1\n  pop\n  jump\t// out\n    /* \"#utility.yul\":3339:3517   */\ntag_42:\n    /* \"#utility.yul\":3479:3509   */\n  0x4c6f616e20616d6f756e74206d75737420626520706f73697469766500000000\n    /* \"#utility.yul\":3475:3476   */\n  0x00\n    /* \"#utility.yul\":3467:3473   */\n  dup3\n    /* \"#utility.yul\":3463:3477   */\n  add\n    /* \"#utility.yul\":3456:3510   */\n  mstore\n    /* \"#utility.yul\":3339:3517   */\n  pop\n  jump\t// out\n    /* \"#utility.yul\":3523:3889   */\ntag_43:\n    /* \"#utility.yul\":3665:3668   */\n  0x00\n    /* \"#utility.yul\":3686:3753   */\n  tag_87\n    /* \"#utility.yul\":3750:3752   */\n  0x1c\n    /* \"#utility.yul\":3745:3748   */\n  dup4\n    /* \"#utility.yul\":3686:3753   */\n  tag_39\n  jump\t// in\ntag_87:\n    /* \"#utility.yul\":3679:3753   */\n  swap2\n  pop\n    /* \"#utility.yul\":3762:3855   */\n  tag_88\n    /* \"#utility.yul\":3851:3854   */\n  dup3\n    /* \"#utility.yul\":3762:3855   */\n  tag_42\n  jump\t// in\ntag_88:\n    /* \"#utility.yul\":3880:3882   */\n  0x20\n    /* \"#utility.yul\":3875:3878   */\n  dup3\n    /* \"#utility.yul\":3871:3883   */\n  add\n    /* \"#utility.yul\":3864:3883   */\n  swap1\n  pop\n    /* \"#utility.yul\":3523:3889   */\n  swap2\n  swap1\n  pop\n  jump\t// out\n    /* \"#utility.yul\":3895:4314   */\ntag_11:\n    /* \"#utility.yul\":4061:4065   */\n  0x00\n    /* \"#utility.yul\":4099:4101   */\n  0x20\n    /* \"#utility.yul\":4088:4097   */\n  dup3\n    /* \"#utility.yul\":4084:4102   */\n  add\n    /* \"#utility.yul\":4076:4102   */\n  swap1\n  pop\n    /* \"#utility.yul\":4148:4157   */\n  dup2\n    /* \"#utility.yul\":4142:4146   */\n  dup2\n    /* \"#utility.yul\":4138:4158   */\n  sub\n    /* \"#utility.yul\":4134:4135   */\n  0x00\n    /* \"#utility.yul\":4123:4132   */\n  dup4\n    /* \"#utility.yul\":4119:4136   */\n  add\n    /* \"#utility.yul\":4112:4159   */\n  mstore\n    /* \"#utility.yul\":4176:4307   */\n  tag_90\n    /* \"#utility.yul\":4302:4306   */\n  dup2\n    /* \"#utility.yul\":4176:4307   */\n  tag_43\n  jump\t// in\ntag_90:\n    /* \"#utility.yul\":4168:4307   */\n  swap1\n  pop\n    /* \"#utility.yul\":3895:4314   */\n  swap2\n  swap1\n  pop\n  jump\t// out\n    /* \"#utility.yul\":4320:4501   */\ntag_44:\n    /* \"#utility.yul\":4460:4493   */\n  0x4465706f7369742077696e646f77206d75737420626520706f73697469766500\n    /* \"#utility.yul\":4456:4457   */\n  0x00\n    /* \"#utility.yul\":4448:4454   */\n  dup3\n    /* \"#utility.yul\":4444:4458   */\n  add\n    /* \"#utility.yul\":4437:4494   */\n  mstore\n    /* \"#utility.yul\":4320:4501   */\n  pop\n  jump\t// out\n    /* \"#utility.yul\":4507:4873   */\ntag_45:\n    /* \"#utility.yul\":4649:4652   */\n  0x00\n    /* \"#utility.yul\":4670:4737   */\n  tag_93\n    /* \"#utility.yul\":4734:4736   */\n  0x1f\n    /* \"#utility.yul\":4729:4732   */\n  dup4\n    /* \"#utility.yul\":4670:4737   */\n  tag_39\n  jump\t// in\ntag_93:\n    /* \"#utility.yul\":4663:4737   */\n  swap2\n  pop\n    /* \"#utility.yul\":4746:4839   */\n  tag_94\n    /* \"#utility.yul\":4835:4838   */\n  dup3\n    /* \"#utility.yul\":4746:4839   */\n  tag_44\n  jump\t// in\ntag_94:\n    /* \"#utility.yul\":4864:4866   */\n  0x20\n    /* \"#utility.yul\":4859:4862   */\n  dup3\n    /* \"#utility.yul\":4855:4867   */\n  add\n    /* \"#utility.yul\":4848:4867   */\n  swap1\n  pop\n    /* \"#utility.yul\":4507:4873   */\n  swap2\n  swap1\n  pop\n  jump\t// out\n    /* \"#utility.yul\":4879:5298   */\ntag_14:\n    /* \"#utility.yul\":5045:5049   */\n  0x00\n    /* \"#utility.yul\":5083:5085   */\n  0x20\n    /* \"#utility.yul\":5072:5081   */\n  dup3\n    /* \"#utility.yul\":5068:5086   */\n  add\n    /* \"#utility.yul\":5060:5086   */\n  swap1\n  pop\n    /* \"#utility.yul\":5132:5141   */\n  dup2\n    /* \"#utility.yul\":5126:5130   */\n  dup2\n    /* \"#utility.yul\":5122:5142   */\n  sub\n    /* \"#utility.yul\":5118:5119   */\n  0x00\n    /* \"#utility.yul\":5107:5116   */\n  dup4\n    /* \"#utility.yul\":5103:5120   */\n  add\n    /* \"#utility.yul\":5096:5143   */\n  mstore\n    /* \"#utility.yul\":5160:5291   */\n  tag_96\n    /* \"#utility.yul\":5286:5290   */\n  dup2\n    /* \"#utility.yul\":5160:5291   */\n  tag_45\n  jump\t// in\ntag_96:\n    /* \"#utility.yul\":5152:5291   */\n  swap1\n  pop\n    /* \"#utility.yul\":4879:5298   */\n  swap2\n  swap1\n  pop\n  jump\t// out\n    /* \"#utility.yul\":5304:5527   */\ntag_46:\n    /* \"#utility.yul\":5444:5478   */\n  0x44697362757273656d656e742077696e646f77206d75737420626520706f7369\n    /* \"#utility.yul\":5440:5441   */\n  0x00\n    /* \"#utility.yul\":5432:5438   */\n  dup3\n    /* \"#utility.yul\":5428:5442   */\n  add\n    /* \"#utility.yul\":5421:5479   */\n  mstore\n    /* \"#utility.yul\":5513:5519   */\n  0x7469766500000000000000000000000000000000000000000000000000000000\n    /* \"#utility.yul\":5508:5510   */\n  0x20\n    /* \"#utility.yul\":5500:5506   */\n  dup3\n    /* \"#utility.yul\":5496:5511   */\n  add\n    /* \"#utility.yul\":5489:5520   */\n  mstore\n    /* \"#utility.yul\":5304:5527   */\n  pop\n  jump\t// out\n    /* \"#utility.yul\":5533:5899   */\ntag_47:\n    /* \"#utility.yul\":5675:5678   */\n  0x00\n    /* \"#utility.yul\":5696:5763   */\n  tag_99\n    /* \"#utility.yul\":5760:5762   */\n  0x24\n    /* \"#utility.yul\":5755:5758   */\n  dup4\n    /* \"#utility.yul\":5696:5763   */\n  tag_39\n  jump\t// in\ntag_99:\n    /* \"#utility.yul\":5689:5763   */\n  swap2\n  pop\n    /* \"#utility.yul\":5772:5865   */\n  tag_100\n    /* \"#utility.yul\":5861:5864   */\n  dup3\n    /* \"#utility.yul\":5772:5865   */\n  tag_46\n  jump\t// in\ntag_100:\n    /* \"#utility.yul\":5890:5892   */\n  0x40\n    /* \"#utility.yul\":5885:5888   */\n  dup3\n    /* \"#utility.yul\":5881:5893   */\n  add\n    /* \"#utility.yul\":5874:5893   */\n  swap1\n  pop\n    /* \"#utility.yul\":5533:5899   */\n  swap2\n  swap1\n  pop\n  jump\t// out\n    /* \"#utility.yul\":5905:6324   */\ntag_17:\n    /* \"#utility.yul\":6071:6075   */\n  0x00\n    /* \"#utility.yul\":6109:6111   */\n  0x20\n    /* \"#utility.yul\":6098:6107   */\n  dup3\n    /* \"#utility.yul\":6094:6112   */\n  add\n    /* \"#utility.yul\":6086:6112   */\n  swap1\n  pop\n    /* \"#utility.yul\":6158:6167   */\n  dup2\n    /* \"#utility.yul\":6152:6156   */\n  dup2\n    /* \"#utility.yul\":6148:6168   */\n  sub\n    /* \"#utility.yul\":6144:6145   */\n  0x00\n    /* \"#utility.yul\":6133:6142   */\n  dup4\n    /* \"#utility.yul\":6129:6146   */\n  add\n    /* \"#utility.yul\":6122:6169   */\n  mstore\n    /* \"#utility.yul\":6186:6317   */\n  tag_102\n    /* \"#utility.yul\":6312:6316   */\n  dup2\n    /* \"#utility.yul\":6186:6317   */\n  tag_47\n  jump\t// in\ntag_102:\n    /* \"#utility.yul\":6178:6317   */\n  swap1\n  pop\n    /* \"#utility.yul\":5905:6324   */\n  swap2\n  swap1\n  pop\n  jump\t// out\n    /* \"#utility.yul\":6330:6550   */\ntag_48:\n    /* \"#utility.yul\":6470:6504   */\n  0x52657061796d656e742077696e646f77206d75737420626520706f7369746976\n    /* \"#utility.yul\":6466:6467   */\n  0x00\n    /* \"#utility.yul\":6458:6464   */\n  dup3\n    /* \"#utility.yul\":6454:6468   */\n  add\n    /* \"#utility.yul\":6447:6505   */\n  mstore\n    /* \"#utility.yul\":6539:6542   */\n  0x6500000000000000000000000000000000000000000000000000000000000000\n    /* \"#utility.yul\":6534:6536   */\n  0x20\n    /* \"#utility.yul\":6526:6532   */\n  dup3\n    /* \"#utility.yul\":6522:6537   */\n  add\n    /* \"#utility.yul\":6515:6543   */\n  mstore\n    /* \"#utility.yul\":6330:6550   */\n  pop\n  jump\t// out\n    /* \"#utility.yul\":6556:6922   */\ntag_49:\n    /* \"#utility.yul\":6698:6701   */\n  0x00\n    /* \"#utility.yul\":6719:6786   */\n  tag_105\n    /* \"#utility.yul\":6783:6785   */\n  0x21\n    /* \"#utility.yul\":6778:6781   */\n  dup4\n    /* \"#utility.yul\":6719:6786   */\n  tag_39\n  jump\t// in\ntag_105:\n    /* \"#utility.yul\":6712:6786   */\n  swap2\n  pop\n    /* \"#utility.yul\":6795:6888   */\n  tag_106\n    /* \"#utility.yul\":6884:6887   */\n  dup3\n    /* \"#utility.yul\":6795:6888   */\n  tag_48\n  jump\t// in\ntag_106:\n    /* \"#utility.yul\":6913:6915   */\n  0x40\n    /* \"#utility.yul\":6908:6911   */\n  dup3\n    /* \"#utility.yul\":6904:6916   */\n  add\n    /* \"#utility.yul\":6897:6916   */\n  swap1\n  pop\n    /* \"#utility.yul\":6556:6922   */\n  swap2\n  swap1\n  pop\n  jump\t// out\n    /* \"#utility.yul\":6928:7347   */\ntag_20:\n    /* \"#utility.yul\":7094:7098   */\n  0x00\n    /* \"#utility.yul\":7132:7134   */\n  0x20\n    /* \"#utility.yul\":7121:7130   */\n  dup3\n    /* \"#utility.yul\":7117:7135   */\n  add\n    /* \"#utility.yul\":7109:7135   */\n  swap1\n  pop\n    /* \"#utility.yul\":7181:7190   */\n  dup2\n    /* \"#utility.yul\":7175:7179   */\n  dup2\n    /* \"#utility.yul\":7171:7191   */\n  sub\n    /* \"#utility.yul\":7167:7168   */\n  0x00\n    /* \"#utility.yul\":7156:7165   */\n  dup4\n    /* \"#utility.yul\":7152:7169   */\n  add\n    /* \"#utility.yul\":7145:7192   */\n  mstore\n    /* \"#utility.yul\":7209:7340   */\n  tag_108\n    /* \"#utility.yul\":7335:7339   */\n  dup2\n    /* \"#utility.yul\":7209:7340   */\n  tag_49\n  jump\t// in\ntag_108:\n    /* \"#utility.yul\":7201:7340   */\n  swap1\n  pop\n    /* \"#utility.yul\":6928:7347   */\n  swap2\n  swap1\n  pop\n  jump\t// out\n    /* \"#utility.yul\":7353:7533   */\ntag_50:\n    /* \"#utility.yul\":7401:7478   */\n  0x4e487b7100000000000000000000000000000000000000000000000000000000\n    /* \"#utility.yul\":7398:7399   */\n  0x00\n    /* \"#utility.yul\":7391:7479   */\n  mstore\n    /* \"#utility.yul\":7498:7502   */\n  0x11\n    /* \"#utility.yul\":7495:7496   */\n  0x04\n    /* \"#utility.yul\":7488:7503   */\n  mstore\n    /* \"#utility.yul\":7522:7526   */\n  0x24\n    /* \"#utility.yul\":7519:7520   */\n  0x00\n    /* \"#utility.yul\":7512:7527   */\n  revert\n    /* \"#utility.yul\":7539:7949   */\ntag_22:\n    /* \"#utility.yul\":7579:7586   */\n  0x00\n    /* \"#utility.yul\":7602:7622   */\n  tag_111\n    /* \"#utility.yul\":7620:7621   */\n  dup3\n    /* \"#utility.yul\":7602:7622   */\n  tag_36\n  jump\t// in\ntag_111:\n    /* \"#utility.yul\":7597:7622   */\n  swap2\n  pop\n    /* \"#utility.yul\":7636:7656   */\n  tag_112\n    /* \"#utility.yul\":7654:7655   */\n  dup4\n    /* \"#utility.yul\":7636:7656   */\n  tag_36\n  jump\t// in\ntag_112:\n    /* \"#utility.yul\":7631:7656   */\n  swap3\n  pop\n    /* \"#utility.yul\":7691:7692   */\n  dup3\n    /* \"#utility.yul\":7688:7689   */\n  dup3\n    /* \"#utility.yul\":7684:7693   */\n  mul\n    /* \"#utility.yul\":7713:7743   */\n  tag_113\n    /* \"#utility.yul\":7731:7742   */\n  dup2\n    /* \"#utility.yul\":7713:7743   */\n  tag_36\n  jump\t// in\ntag_113:\n    /* \"#utility.yul\":7702:7743   */\n  swap2\n  pop\n    /* \"#utility.yul\":7892:7893   */\n  dup3\n    /* \"#utility.yul\":7883:7890   */\n  dup3\n    /* \"#utility.yul\":7879:7894   */\n  div\n    /* \"#utility.yul\":7876:7877   */\n  dup5\n    /* \"#utility.yul\":7873:7895   */\n  eq\n    /* \"#utility.yul\":7853:7854   */\n  dup4\n    /* \"#utility.yul\":7846:7855   */\n  iszero\n    /* \"#utility.yul\":7826:7909   */\n  or\n    /* \"#utility.yul\":7803:7942   */\n  tag_114\n  jumpi\n    /* \"#utility.yul\":7922:7940   */\n  tag_115\n  tag_50\n  jump\t// in\ntag_115:\n    /* \"#utility.yul\":7803:7942   */\ntag_114:\n    /* \"#utility.yul\":7587:7949   */\n  pop\n    /* \"#utility.yul\":7539:7949   */\n  swap3\n  swap2\n  pop\n  pop\n  jump\t// out\n    /* \"#utility.yul\":7955:8146   */\ntag_24:\n    /* \"#utility.yul\":7995:7998   */\n  0x00\n    /* \"#utility.yul\":8014:8034   */\n  tag_117\n    /* \"#utility.yul\":8032:8033   */\n  dup3\n    /* \"#utility.yul\":8014:8034   */\n  tag_36\n  jump\t// in\ntag_117:\n    /* \"#utility.yul\":8009:8034   */\n  swap2\n  pop\n    /* \"#utility.yul\":8048:8068   */\n  tag_118\n    /* \"#utility.yul\":8066:8067   */\n  dup4\n    /* \"#utility.yul\":8048:8068   */\n  tag_36\n  jump\t// in\ntag_118:\n    /* \"#utility.yul\":8043:8068   */\n  swap3\n  pop\n    /* \"#utility.yul\":8091:8092   */\n  dup3\n    /* \"#utility.yul\":8088:8089   */\n  dup3\n    /* \"#utility.yul\":8084:8093   */\n  add\n    /* \"#utility.yul\":8077:8093   */\n  swap1\n  pop\n    /* \"#utility.yul\":8112:8115   */\n  dup1\n    /* \"#utility.yul\":8109:8110   */\n  dup3\n    /* \"#utility.yul\":8106:8116   */\n  gt\n    /* \"#utility.yul\":8103:8139   */\n  iszero\n  tag_119\n  jumpi\n    /* \"#utility.yul\":8119:8137   */\n  tag_120\n  tag_50\n  jump\t// in\ntag_120:\n    /* \"#utility.yul\":8103:8139   */\ntag_119:\n    /* \"#utility.yul\":7955:8146   */\n  swap3\n  swap2\n  pop\n  pop\n  jump\t// out\n    /* \"#utility.yul\":8152:8270   */\ntag_51:\n    /* \"#utility.yul\":8239:8263   */\n  tag_122\n    /* \"#utility.yul\":8257:8262   */\n  dup2\n    /* \"#utility.yul\":8239:8263   */\n  tag_36\n  jump\t// in\ntag_122:\n    /* \"#utility.yul\":8234:8237   */\n  dup3\n    /* \"#utility.yul\":8227:8264   */\n  mstore\n    /* \"#utility.yul\":8152:8270   */\n  pop\n  pop\n  jump\t// out\n    /* \"#utility.yul\":8276:8718   */\ntag_27:\n    /* \"#utility.yul\":8425:8429   */\n  0x00\n    /* \"#utility.yul\":8463:8465   */\n  0x60\n    /* \"#utility.yul\":8452:8461   */\n  dup3\n    /* \"#utility.yul\":8448:8466   */\n  add\n    /* \"#utility.yul\":8440:8466   */\n  swap1\n  pop\n    /* \"#utility.yul\":8476:8547   */\n  tag_124\n    /* \"#utility.yul\":8544:8545   */\n  0x00\n    /* \"#utility.yul\":8533:8542   */\n  dup4\n    /* \"#utility.yul\":8529:8546   */\n  add\n    /* \"#utility.yul\":8520:8526   */\n  dup7\n    /* \"#utility.yul\":8476:8547   */\n  tag_51\n  jump\t// in\ntag_124:\n    /* \"#utility.yul\":8557:8629   */\n  tag_125\n    /* \"#utility.yul\":8625:8627   */\n  0x20\n    /* \"#utility.yul\":8614:8623   */\n  dup4\n    /* \"#utility.yul\":8610:8628   */\n  add\n    /* \"#utility.yul\":8601:8607   */\n  dup6\n    /* \"#utility.yul\":8557:8629   */\n  tag_51\n  jump\t// in\ntag_125:\n    /* \"#utility.yul\":8639:8711   */\n  tag_126\n    /* \"#utility.yul\":8707:8709   */\n  0x40\n    /* \"#utility.yul\":8696:8705   */\n  dup4\n    /* \"#utility.yul\":8692:8710   */\n  add\n    /* \"#utility.yul\":8683:8689   */\n  dup5\n    /* \"#utility.yul\":8639:8711   */\n  tag_51\n  jump\t// in\ntag_126:\n    /* \"#utility.yul\":8276:8718   */\n  swap5\n  swap4\n  pop\n  pop\n  pop\n  pop\n  jump\t// out\n    /* \"MerchantOfVenice.sol\":1215:17980  contract MerchantOfVenice {... */\ntag_28:\n  dataSize(sub_0)\n  dup1\n  dataOffset(sub_0)\n  0x00\n  codecopy\n  0x00\n  return\nstop\n\nsub_0: assembly {\n        /* \"MerchantOfVenice.sol\":1215:17980  contract MerchantOfVenice {... */\n      mstore(0x40, 0x80)\n      jumpi(tag_1, lt(calldatasize, 0x04))\n      shr(0xe0, calldataload(0x00))\n      dup1\n      0x6f758140\n      gt\n      tag_25\n      jumpi\n      dup1\n      0x9d585f7f\n      gt\n      tag_26\n      jumpi\n      dup1\n      0x9d585f7f\n      eq\n      tag_19\n      jumpi\n      dup1\n      0xb3344db5\n      eq\n      tag_20\n      jumpi\n      dup1\n      0xc7cf7484\n      eq\n      tag_21\n      jumpi\n      dup1\n      0xea8a1af0\n      eq\n      tag_22\n      jumpi\n      dup1\n      0xf09dba95\n      eq\n      tag_23\n      jumpi\n      dup1\n      0xf9686e72\n      eq\n      tag_24\n      jumpi\n      jump(tag_1)\n    tag_26:\n      dup1\n      0x6f758140\n      eq\n      tag_13\n      jumpi\n      dup1\n      0x829c7197\n      eq\n      tag_14\n      jumpi\n      dup1\n      0x8a4709f8\n      eq\n      tag_15\n      jumpi\n      dup1\n      0x8f775839\n      eq\n      tag_16\n      jumpi\n      dup1\n      0x92d09ceb\n      eq\n      tag_17\n      jumpi\n      dup1\n      0x993f35f3\n      eq\n      tag_18\n      jumpi\n      jump(tag_1)\n    tag_25:\n      dup1\n      0x201fa348\n      gt\n      tag_27\n      jumpi\n      dup1\n      0x201fa348\n      eq\n      tag_7\n      jumpi\n      dup1\n      0x3c03a099\n      eq\n      tag_8\n      jumpi\n      dup1\n      0x402d8883\n      eq\n      tag_9\n      jumpi\n      dup1\n      0x44e3dff5\n      eq\n      tag_10\n      jumpi\n      dup1\n      0x61603d89\n      eq\n      tag_11\n      jumpi\n      dup1\n      0x6311d06a\n      eq\n      tag_12\n      jumpi\n      jump(tag_1)\n    tag_27:\n      dup1\n      0x0cc0707f\n      eq\n      tag_2\n      jumpi\n      dup1\n      0x10812a7d\n      eq\n      tag_3\n      jumpi\n      dup1\n      0x12065fe0\n      eq\n      tag_4\n      jumpi\n      dup1\n      0x188874bd\n      eq\n      tag_5\n      jumpi\n      dup1\n      0x19cc3aaa\n      eq\n      tag_6\n      jumpi\n    tag_1:\n      revert(0x00, 0x00)\n        /* \"MerchantOfVenice.sol\":1795:1817  address public antonio */\n    tag_2:\n      callvalue\n      dup1\n      iszero\n      tag_28\n      jumpi\n      revert(0x00, 0x00)\n    tag_28:\n      pop\n      tag_29\n      tag_30\n      jump\t// in\n    tag_29:\n      mload(0x40)\n      tag_31\n      swap2\n      swap1\n      tag_32\n      jump\t// in\n    tag_31:\n      mload(0x40)\n      dup1\n      swap2\n      sub\n      swap1\n      return\n        /* \"MerchantOfVenice.sol\":4723:4744  bool public disbursed */\n    tag_3:\n      callvalue\n      dup1\n      iszero\n      tag_33\n      jumpi\n      revert(0x00, 0x00)\n    tag_33:\n      pop\n      tag_34\n      tag_35\n      jump\t// in\n    tag_34:\n      mload(0x40)\n      tag_36\n      swap2\n      swap1\n      tag_37\n      jump\t// in\n    tag_36:\n      mload(0x40)\n      dup1\n      swap2\n      sub\n      swap1\n      return\n        /* \"MerchantOfVenice.sol\":17879:17978  function getBalance() external view returns (uint256) {... */\n    tag_4:\n      callvalue\n      dup1\n      iszero\n      tag_38\n      jumpi\n      revert(0x00, 0x00)\n    tag_38:\n      pop\n      tag_39\n      tag_40\n      jump\t// in\n    tag_39:\n      mload(0x40)\n      tag_41\n      swap2\n      swap1\n      tag_42\n      jump\t// in\n    tag_41:\n      mload(0x40)\n      dup1\n      swap2\n      sub\n      swap1\n      return\n        /* \"MerchantOfVenice.sol\":13795:14294  function disburseLoan()... */\n    tag_5:\n      tag_43\n      tag_44\n      jump\t// in\n    tag_43:\n      stop\n        /* \"MerchantOfVenice.sol\":3369:3401  uint256 public repaymentDeadline */\n    tag_6:\n      callvalue\n      dup1\n      iszero\n      tag_45\n      jumpi\n      revert(0x00, 0x00)\n    tag_45:\n      pop\n      tag_46\n      tag_47\n      jump\t// in\n    tag_46:\n      mload(0x40)\n      tag_48\n      swap2\n      swap1\n      tag_42\n      jump\t// in\n    tag_48:\n      mload(0x40)\n      dup1\n      swap2\n      sub\n      swap1\n      return\n        /* \"MerchantOfVenice.sol\":4004:4044  uint256 public disbursementWindowSeconds */\n    tag_7:\n      callvalue\n      dup1\n      iszero\n      tag_49\n      jumpi\n      revert(0x00, 0x00)\n    tag_49:\n      pop\n      tag_50\n      tag_51\n      jump\t// in\n    tag_50:\n      mload(0x40)\n      tag_52\n      swap2\n      swap1\n      tag_42\n      jump\t// in\n    tag_52:\n      mload(0x40)\n      dup1\n      swap2\n      sub\n      swap1\n      return\n        /* \"MerchantOfVenice.sol\":16890:17070  function timeToDepositDeadline() external view returns (uint256) {... */\n    tag_8:\n      callvalue\n      dup1\n      iszero\n      tag_53\n      jumpi\n      revert(0x00, 0x00)\n    tag_53:\n      pop\n      tag_54\n      tag_55\n      jump\t// in\n    tag_54:\n      mload(0x40)\n      tag_56\n      swap2\n      swap1\n      tag_42\n      jump\t// in\n    tag_56:\n      mload(0x40)\n      dup1\n      swap2\n      sub\n      swap1\n      return\n        /* \"MerchantOfVenice.sol\":14585:15014  function repay()... */\n    tag_9:\n      tag_57\n      tag_58\n      jump\t// in\n    tag_57:\n      stop\n        /* \"MerchantOfVenice.sol\":1695:1717  address public shylock */\n    tag_10:\n      callvalue\n      dup1\n      iszero\n      tag_59\n      jumpi\n      revert(0x00, 0x00)\n    tag_59:\n      pop\n      tag_60\n      tag_61\n      jump\t// in\n    tag_60:\n      mload(0x40)\n      tag_62\n      swap2\n      swap1\n      tag_32\n      jump\t// in\n    tag_62:\n      mload(0x40)\n      dup1\n      swap2\n      sub\n      swap1\n      return\n        /* \"MerchantOfVenice.sol\":3038:3068  uint256 public depositDeadline */\n    tag_11:\n      callvalue\n      dup1\n      iszero\n      tag_63\n      jumpi\n      revert(0x00, 0x00)\n    tag_63:\n      pop\n      tag_64\n      tag_65\n      jump\t// in\n    tag_64:\n      mload(0x40)\n      tag_66\n      swap2\n      swap1\n      tag_42\n      jump\t// in\n    tag_66:\n      mload(0x40)\n      dup1\n      swap2\n      sub\n      swap1\n      return\n        /* \"MerchantOfVenice.sol\":4616:4647  bool public collateralDeposited */\n    tag_12:\n      callvalue\n      dup1\n      iszero\n      tag_67\n      jumpi\n      revert(0x00, 0x00)\n    tag_67:\n      pop\n      tag_68\n      tag_69\n      jump\t// in\n    tag_68:\n      mload(0x40)\n      tag_70\n      swap2\n      swap1\n      tag_37\n      jump\t// in\n    tag_70:\n      mload(0x40)\n      dup1\n      swap2\n      sub\n      swap1\n      return\n        /* \"MerchantOfVenice.sol\":12931:13471  function depositCollateral()... */\n    tag_13:\n      tag_71\n      tag_72\n      jump\t// in\n    tag_71:\n      stop\n        /* \"MerchantOfVenice.sol\":17588:17808  function timeToRepaymentDeadline() external view returns (uint256) {... */\n    tag_14:\n      callvalue\n      dup1\n      iszero\n      tag_73\n      jumpi\n      revert(0x00, 0x00)\n    tag_73:\n      pop\n      tag_74\n      tag_75\n      jump\t// in\n    tag_74:\n      mload(0x40)\n      tag_76\n      swap2\n      swap1\n      tag_42\n      jump\t// in\n    tag_76:\n      mload(0x40)\n      dup1\n      swap2\n      sub\n      swap1\n      return\n        /* \"MerchantOfVenice.sol\":3205:3240  uint256 public disbursementDeadline */\n    tag_15:\n      callvalue\n      dup1\n      iszero\n      tag_77\n      jumpi\n      revert(0x00, 0x00)\n    tag_77:\n      pop\n      tag_78\n      tag_79\n      jump\t// in\n    tag_78:\n      mload(0x40)\n      tag_80\n      swap2\n      swap1\n      tag_42\n      jump\t// in\n    tag_80:\n      mload(0x40)\n      dup1\n      swap2\n      sub\n      swap1\n      return\n        /* \"MerchantOfVenice.sol\":4888:4907  bool public settled */\n    tag_16:\n      callvalue\n      dup1\n      iszero\n      tag_81\n      jumpi\n      revert(0x00, 0x00)\n    tag_81:\n      pop\n      tag_82\n      tag_83\n      jump\t// in\n    tag_82:\n      mload(0x40)\n      tag_84\n      swap2\n      swap1\n      tag_37\n      jump\t// in\n    tag_84:\n      mload(0x40)\n      dup1\n      swap2\n      sub\n      swap1\n      return\n        /* \"MerchantOfVenice.sol\":2481:2512  uint256 public collateralAmount */\n    tag_17:\n      callvalue\n      dup1\n      iszero\n      tag_85\n      jumpi\n      revert(0x00, 0x00)\n    tag_85:\n      pop\n      tag_86\n      tag_87\n      jump\t// in\n    tag_86:\n      mload(0x40)\n      tag_88\n      swap2\n      swap1\n      tag_42\n      jump\t// in\n    tag_88:\n      mload(0x40)\n      dup1\n      swap2\n      sub\n      swap1\n      return\n        /* \"MerchantOfVenice.sol\":17214:17453  function timeToDisbursementDeadline() external view returns (uint256) {... */\n    tag_18:\n      callvalue\n      dup1\n      iszero\n      tag_89\n      jumpi\n      revert(0x00, 0x00)\n    tag_89:\n      pop\n      tag_90\n      tag_91\n      jump\t// in\n    tag_90:\n      mload(0x40)\n      tag_92\n      swap2\n      swap1\n      tag_42\n      jump\t// in\n    tag_92:\n      mload(0x40)\n      dup1\n      swap2\n      sub\n      swap1\n      return\n        /* \"MerchantOfVenice.sol\":2288:2313  uint256 public loanAmount */\n    tag_19:\n      callvalue\n      dup1\n      iszero\n      tag_93\n      jumpi\n      revert(0x00, 0x00)\n    tag_93:\n      pop\n      tag_94\n      tag_95\n      jump\t// in\n    tag_94:\n      mload(0x40)\n      tag_96\n      swap2\n      swap1\n      tag_42\n      jump\t// in\n    tag_96:\n      mload(0x40)\n      dup1\n      swap2\n      sub\n      swap1\n      return\n        /* \"MerchantOfVenice.sol\":3890:3925  uint256 public depositWindowSeconds */\n    tag_20:\n      callvalue\n      dup1\n      iszero\n      tag_97\n      jumpi\n      revert(0x00, 0x00)\n    tag_97:\n      pop\n      tag_98\n      tag_99\n      jump\t// in\n    tag_98:\n      mload(0x40)\n      tag_100\n      swap2\n      swap1\n      tag_42\n      jump\t// in\n    tag_100:\n      mload(0x40)\n      dup1\n      swap2\n      sub\n      swap1\n      return\n        /* \"MerchantOfVenice.sol\":15686:15967  function claimBond()... */\n    tag_21:\n      callvalue\n      dup1\n      iszero\n      tag_101\n      jumpi\n      revert(0x00, 0x00)\n    tag_101:\n      pop\n      tag_102\n      tag_103\n      jump\t// in\n    tag_102:\n      stop\n        /* \"MerchantOfVenice.sol\":16140:16425  function cancel()... */\n    tag_22:\n      callvalue\n      dup1\n      iszero\n      tag_104\n      jumpi\n      revert(0x00, 0x00)\n    tag_104:\n      pop\n      tag_105\n      tag_106\n      jump\t// in\n    tag_105:\n      stop\n        /* \"MerchantOfVenice.sol\":4121:4158  uint256 public repaymentWindowSeconds */\n    tag_23:\n      callvalue\n      dup1\n      iszero\n      tag_107\n      jumpi\n      revert(0x00, 0x00)\n    tag_107:\n      pop\n      tag_108\n      tag_109\n      jump\t// in\n    tag_108:\n      mload(0x40)\n      tag_110\n      swap2\n      swap1\n      tag_42\n      jump\t// in\n    tag_110:\n      mload(0x40)\n      dup1\n      swap2\n      sub\n      swap1\n      return\n        /* \"MerchantOfVenice.sol\":15146:15467  function reclaimCollateral()... */\n    tag_24:\n      callvalue\n      dup1\n      iszero\n      tag_111\n      jumpi\n      revert(0x00, 0x00)\n    tag_111:\n      pop\n      tag_112\n      tag_113\n      jump\t// in\n    tag_112:\n      stop\n        /* \"MerchantOfVenice.sol\":1795:1817  address public antonio */\n    tag_30:\n      0x01\n      0x00\n      swap1\n      sload\n      swap1\n      0x0100\n      exp\n      swap1\n      div\n      0xffffffffffffffffffffffffffffffffffffffff\n      and\n      dup2\n      jump\t// out\n        /* \"MerchantOfVenice.sol\":4723:4744  bool public disbursed */\n    tag_35:\n      0x0a\n      0x01\n      swap1\n      sload\n      swap1\n      0x0100\n      exp\n      swap1\n      div\n      0xff\n      and\n      dup2\n      jump\t// out\n        /* \"MerchantOfVenice.sol\":17879:17978  function getBalance() external view returns (uint256) {... */\n    tag_40:\n        /* \"MerchantOfVenice.sol\":17924:17931  uint256 */\n      0x00\n        /* \"MerchantOfVenice.sol\":17950:17971  address(this).balance */\n      selfbalance\n        /* \"MerchantOfVenice.sol\":17943:17971  return address(this).balance */\n      swap1\n      pop\n        /* \"MerchantOfVenice.sol\":17879:17978  function getBalance() external view returns (uint256) {... */\n      swap1\n      jump\t// out\n        /* \"MerchantOfVenice.sol\":13795:14294  function disburseLoan()... */\n    tag_44:\n        /* \"MerchantOfVenice.sol\":7358:7365  shylock */\n      0x00\n      0x00\n      swap1\n      sload\n      swap1\n      0x0100\n      exp\n      swap1\n      div\n      0xffffffffffffffffffffffffffffffffffffffff\n      and\n        /* \"MerchantOfVenice.sol\":7344:7365  msg.sender == shylock */\n      0xffffffffffffffffffffffffffffffffffffffff\n      and\n        /* \"MerchantOfVenice.sol\":7344:7354  msg.sender */\n      caller\n        /* \"MerchantOfVenice.sol\":7344:7365  msg.sender == shylock */\n      0xffffffffffffffffffffffffffffffffffffffff\n      and\n      eq\n        /* \"MerchantOfVenice.sol\":7336:7396  require(msg.sender == shylock, \"Only Shylock may call this\") */\n      tag_116\n      jumpi\n      mload(0x40)\n      0x08c379a000000000000000000000000000000000000000000000000000000000\n      dup2\n      mstore\n      0x04\n      add\n      tag_117\n      swap1\n      tag_118\n      jump\t// in\n    tag_117:\n      mload(0x40)\n      dup1\n      swap2\n      sub\n      swap1\n      revert\n    tag_116:\n        /* \"MerchantOfVenice.sol\":7960:7967  settled */\n      0x0a\n      0x02\n      swap1\n      sload\n      swap1\n      0x0100\n      exp\n      swap1\n      div\n      0xff\n      and\n        /* \"MerchantOfVenice.sol\":7959:7967  !settled */\n      iszero\n        /* \"MerchantOfVenice.sol\":7951:7996  require(!settled, \"Contract already settled\") */\n      tag_120\n      jumpi\n      mload(0x40)\n      0x08c379a000000000000000000000000000000000000000000000000000000000\n      dup2\n      mstore\n      0x04\n      add\n      tag_121\n      swap1\n      tag_122\n      jump\t// in\n    tag_121:\n      mload(0x40)\n      dup1\n      swap2\n      sub\n      swap1\n      revert\n    tag_120:\n        /* \"MerchantOfVenice.sol\":8063:8082  collateralDeposited */\n      0x0a\n      0x00\n      swap1\n      sload\n      swap1\n      0x0100\n      exp\n      swap1\n      div\n      0xff\n      and\n        /* \"MerchantOfVenice.sol\":8055:8115  require(collateralDeposited, \"Collateral not yet deposited\") */\n      tag_124\n      jumpi\n      mload(0x40)\n      0x08c379a000000000000000000000000000000000000000000000000000000000\n      dup2\n      mstore\n      0x04\n      add\n      tag_125\n      swap1\n      tag_126\n      jump\t// in\n    tag_125:\n      mload(0x40)\n      dup1\n      swap2\n      sub\n      swap1\n      revert\n    tag_124:\n        /* \"MerchantOfVenice.sol\":8182:8191  disbursed */\n      0x0a\n      0x01\n      swap1\n      sload\n      swap1\n      0x0100\n      exp\n      swap1\n      div\n      0xff\n      and\n        /* \"MerchantOfVenice.sol\":8181:8191  !disbursed */\n      iszero\n        /* \"MerchantOfVenice.sol\":8173:8218  require(!disbursed, \"Loan already disbursed\") */\n      tag_128\n      jumpi\n      mload(0x40)\n      0x08c379a000000000000000000000000000000000000000000000000000000000\n      dup2\n      mstore\n      0x04\n      add\n      tag_129\n      swap1\n      tag_130\n      jump\t// in\n    tag_129:\n      mload(0x40)\n      dup1\n      swap2\n      sub\n      swap1\n      revert\n    tag_128:\n        /* \"MerchantOfVenice.sol\":9075:9095  disbursementDeadline */\n      sload(0x05)\n        /* \"MerchantOfVenice.sol\":9056:9071  block.timestamp */\n      timestamp\n        /* \"MerchantOfVenice.sol\":9056:9095  block.timestamp <= disbursementDeadline */\n      gt\n      iszero\n        /* \"MerchantOfVenice.sol\":9048:9130  require(block.timestamp <= disbursementDeadline, \"Disbursement window has closed\") */\n      tag_132\n      jumpi\n      mload(0x40)\n      0x08c379a000000000000000000000000000000000000000000000000000000000\n      dup2\n      mstore\n      0x04\n      add\n      tag_133\n      swap1\n      tag_134\n      jump\t// in\n    tag_133:\n      mload(0x40)\n      dup1\n      swap2\n      sub\n      swap1\n      revert\n    tag_132:\n        /* \"MerchantOfVenice.sol\":5367:5374  _locked */\n      0x0a\n      0x03\n      swap1\n      sload\n      swap1\n      0x0100\n      exp\n      swap1\n      div\n      0xff\n      and\n        /* \"MerchantOfVenice.sol\":5366:5374  !_locked */\n      iszero\n        /* \"MerchantOfVenice.sol\":5358:5393  require(!_locked, \"Reentrant call\") */\n      tag_136\n      jumpi\n      mload(0x40)\n      0x08c379a000000000000000000000000000000000000000000000000000000000\n      dup2\n      mstore\n      0x04\n      add\n      tag_137\n      swap1\n      tag_138\n      jump\t// in\n    tag_137:\n      mload(0x40)\n      dup1\n      swap2\n      sub\n      swap1\n      revert\n    tag_136:\n        /* \"MerchantOfVenice.sol\":5413:5417  true */\n      0x01\n        /* \"MerchantOfVenice.sol\":5403:5410  _locked */\n      0x0a\n      0x03\n        /* \"MerchantOfVenice.sol\":5403:5417  _locked = true */\n      0x0100\n      exp\n      dup2\n      sload\n      dup2\n      0xff\n      mul\n      not\n      and\n      swap1\n      dup4\n      iszero\n      iszero\n      mul\n      or\n      swap1\n      sstore\n      pop\n        /* \"MerchantOfVenice.sol\":14025:14035  loanAmount */\n      sload(0x02)\n        /* \"MerchantOfVenice.sol\":14012:14021  msg.value */\n      callvalue\n        /* \"MerchantOfVenice.sol\":14012:14035  msg.value == loanAmount */\n      eq\n        /* \"MerchantOfVenice.sol\":14004:14077  require(msg.value == loanAmount, \"Must disburse exactly the loan amount\") */\n      tag_140\n      jumpi\n      mload(0x40)\n      0x08c379a000000000000000000000000000000000000000000000000000000000\n      dup2\n      mstore\n      0x04\n      add\n      tag_141\n      swap1\n      tag_142\n      jump\t// in\n    tag_141:\n      mload(0x40)\n      dup1\n      swap2\n      sub\n      swap1\n      revert\n    tag_140:\n        /* \"MerchantOfVenice.sol\":14108:14112  true */\n      0x01\n        /* \"MerchantOfVenice.sol\":14088:14097  disbursed */\n      0x0a\n      0x01\n        /* \"MerchantOfVenice.sol\":14088:14112  disbursed         = true */\n      0x0100\n      exp\n      dup2\n      sload\n      dup2\n      0xff\n      mul\n      not\n      and\n      swap1\n      dup4\n      iszero\n      iszero\n      mul\n      or\n      swap1\n      sstore\n      pop\n        /* \"MerchantOfVenice.sol\":14160:14182  repaymentWindowSeconds */\n      sload(0x09)\n        /* \"MerchantOfVenice.sol\":14142:14157  block.timestamp */\n      timestamp\n        /* \"MerchantOfVenice.sol\":14142:14182  block.timestamp + repaymentWindowSeconds */\n      tag_143\n      swap2\n      swap1\n      tag_144\n      jump\t// in\n    tag_143:\n        /* \"MerchantOfVenice.sol\":14122:14139  repaymentDeadline */\n      0x06\n        /* \"MerchantOfVenice.sol\":14122:14182  repaymentDeadline = block.timestamp + repaymentWindowSeconds */\n      dup2\n      swap1\n      sstore\n      pop\n        /* \"MerchantOfVenice.sol\":14193:14227  _safeTransfer(antonio, loanAmount) */\n      tag_145\n        /* \"MerchantOfVenice.sol\":14207:14214  antonio */\n      0x01\n      0x00\n      swap1\n      sload\n      swap1\n      0x0100\n      exp\n      swap1\n      div\n      0xffffffffffffffffffffffffffffffffffffffff\n      and\n        /* \"MerchantOfVenice.sol\":14216:14226  loanAmount */\n      sload(0x02)\n        /* \"MerchantOfVenice.sol\":14193:14206  _safeTransfer */\n      tag_146\n        /* \"MerchantOfVenice.sol\":14193:14227  _safeTransfer(antonio, loanAmount) */\n      jump\t// in\n    tag_145:\n        /* \"MerchantOfVenice.sol\":14243:14287  LoanDisbursed(loanAmount, repaymentDeadline) */\n      0xb2e7e42df3fc0061410ecdbb2644b7b36cd803c2c7d9f20515593b59d98b988c\n        /* \"MerchantOfVenice.sol\":14257:14267  loanAmount */\n      sload(0x02)\n        /* \"MerchantOfVenice.sol\":14269:14286  repaymentDeadline */\n      sload(0x06)\n        /* \"MerchantOfVenice.sol\":14243:14287  LoanDisbursed(loanAmount, repaymentDeadline) */\n      mload(0x40)\n      tag_147\n      swap3\n      swap2\n      swap1\n      tag_148\n      jump\t// in\n    tag_147:\n      mload(0x40)\n      dup1\n      swap2\n      sub\n      swap1\n      log1\n        /* \"MerchantOfVenice.sol\":5448:5453  false */\n      0x00\n        /* \"MerchantOfVenice.sol\":5438:5445  _locked */\n      0x0a\n      0x03\n        /* \"MerchantOfVenice.sol\":5438:5453  _locked = false */\n      0x0100\n      exp\n      dup2\n      sload\n      dup2\n      0xff\n      mul\n      not\n      and\n      swap1\n      dup4\n      iszero\n      iszero\n      mul\n      or\n      swap1\n      sstore\n      pop\n        /* \"MerchantOfVenice.sol\":13795:14294  function disburseLoan()... */\n      jump\t// out\n        /* \"MerchantOfVenice.sol\":3369:3401  uint256 public repaymentDeadline */\n    tag_47:\n      sload(0x06)\n      dup2\n      jump\t// out\n        /* \"MerchantOfVenice.sol\":4004:4044  uint256 public disbursementWindowSeconds */\n    tag_51:\n      sload(0x08)\n      dup2\n      jump\t// out\n        /* \"MerchantOfVenice.sol\":16890:17070  function timeToDepositDeadline() external view returns (uint256) {... */\n    tag_55:\n        /* \"MerchantOfVenice.sol\":16946:16953  uint256 */\n      0x00\n        /* \"MerchantOfVenice.sol\":16988:17003  depositDeadline */\n      sload(0x04)\n        /* \"MerchantOfVenice.sol\":16969:16984  block.timestamp */\n      timestamp\n        /* \"MerchantOfVenice.sol\":16969:17003  block.timestamp >= depositDeadline */\n      lt\n        /* \"MerchantOfVenice.sol\":16965:17013  if (block.timestamp >= depositDeadline) return 0 */\n      tag_150\n      jumpi\n        /* \"MerchantOfVenice.sol\":17012:17013  0 */\n      0x00\n        /* \"MerchantOfVenice.sol\":17005:17013  return 0 */\n      swap1\n      pop\n      jump(tag_149)\n        /* \"MerchantOfVenice.sol\":16965:17013  if (block.timestamp >= depositDeadline) return 0 */\n    tag_150:\n        /* \"MerchantOfVenice.sol\":17048:17063  block.timestamp */\n      timestamp\n        /* \"MerchantOfVenice.sol\":17030:17045  depositDeadline */\n      sload(0x04)\n        /* \"MerchantOfVenice.sol\":17030:17063  depositDeadline - block.timestamp */\n      tag_151\n      swap2\n      swap1\n      tag_152\n      jump\t// in\n    tag_151:\n        /* \"MerchantOfVenice.sol\":17023:17063  return depositDeadline - block.timestamp */\n      swap1\n      pop\n        /* \"MerchantOfVenice.sol\":16890:17070  function timeToDepositDeadline() external view returns (uint256) {... */\n    tag_149:\n      swap1\n      jump\t// out\n        /* \"MerchantOfVenice.sol\":14585:15014  function repay()... */\n    tag_58:\n        /* \"MerchantOfVenice.sol\":7475:7482  antonio */\n      0x01\n      0x00\n      swap1\n      sload\n      swap1\n      0x0100\n      exp\n      swap1\n      div\n      0xffffffffffffffffffffffffffffffffffffffff\n      and\n        /* \"MerchantOfVenice.sol\":7461:7482  msg.sender == antonio */\n      0xffffffffffffffffffffffffffffffffffffffff\n      and\n        /* \"MerchantOfVenice.sol\":7461:7471  msg.sender */\n      caller\n        /* \"MerchantOfVenice.sol\":7461:7482  msg.sender == antonio */\n      0xffffffffffffffffffffffffffffffffffffffff\n      and\n      eq\n        /* \"MerchantOfVenice.sol\":7453:7513  require(msg.sender == antonio, \"Only Antonio may call this\") */\n      tag_154\n      jumpi\n      mload(0x40)\n      0x08c379a000000000000000000000000000000000000000000000000000000000\n      dup2\n      mstore\n      0x04\n      add\n      tag_155\n      swap1\n      tag_156\n      jump\t// in\n    tag_155:\n      mload(0x40)\n      dup1\n      swap2\n      sub\n      swap1\n      revert\n    tag_154:\n        /* \"MerchantOfVenice.sol\":7960:7967  settled */\n      0x0a\n      0x02\n      swap1\n      sload\n      swap1\n      0x0100\n      exp\n      swap1\n      div\n      0xff\n      and\n        /* \"MerchantOfVenice.sol\":7959:7967  !settled */\n      iszero\n        /* \"MerchantOfVenice.sol\":7951:7996  require(!settled, \"Contract already settled\") */\n      tag_158\n      jumpi\n      mload(0x40)\n      0x08c379a000000000000000000000000000000000000000000000000000000000\n      dup2\n      mstore\n      0x04\n      add\n      tag_159\n      swap1\n      tag_122\n      jump\t// in\n    tag_159:\n      mload(0x40)\n      dup1\n      swap2\n      sub\n      swap1\n      revert\n    tag_158:\n        /* \"MerchantOfVenice.sol\":8283:8292  disbursed */\n      0x0a\n      0x01\n      swap1\n      sload\n      swap1\n      0x0100\n      exp\n      swap1\n      div\n      0xff\n      and\n        /* \"MerchantOfVenice.sol\":8275:8319  require(disbursed, \"Loan not yet disbursed\") */\n      tag_161\n      jumpi\n      mload(0x40)\n      0x08c379a000000000000000000000000000000000000000000000000000000000\n      dup2\n      mstore\n      0x04\n      add\n      tag_162\n      swap1\n      tag_163\n      jump\t// in\n    tag_162:\n      mload(0x40)\n      dup1\n      swap2\n      sub\n      swap1\n      revert\n    tag_161:\n        /* \"MerchantOfVenice.sol\":9378:9395  repaymentDeadline */\n      sload(0x06)\n        /* \"MerchantOfVenice.sol\":9359:9374  block.timestamp */\n      timestamp\n        /* \"MerchantOfVenice.sol\":9359:9395  block.timestamp <= repaymentDeadline */\n      gt\n      iszero\n        /* \"MerchantOfVenice.sol\":9351:9427  require(block.timestamp <= repaymentDeadline, \"Repayment window has closed\") */\n      tag_165\n      jumpi\n      mload(0x40)\n      0x08c379a000000000000000000000000000000000000000000000000000000000\n      dup2\n      mstore\n      0x04\n      add\n      tag_166\n      swap1\n      tag_167\n      jump\t// in\n    tag_166:\n      mload(0x40)\n      dup1\n      swap2\n      sub\n      swap1\n      revert\n    tag_165:\n        /* \"MerchantOfVenice.sol\":5367:5374  _locked */\n      0x0a\n      0x03\n      swap1\n      sload\n      swap1\n      0x0100\n      exp\n      swap1\n      div\n      0xff\n      and\n        /* \"MerchantOfVenice.sol\":5366:5374  !_locked */\n      iszero\n        /* \"MerchantOfVenice.sol\":5358:5393  require(!_locked, \"Reentrant call\") */\n      tag_169\n      jumpi\n      mload(0x40)\n      0x08c379a000000000000000000000000000000000000000000000000000000000\n      dup2\n      mstore\n      0x04\n      add\n      tag_170\n      swap1\n      tag_138\n      jump\t// in\n    tag_170:\n      mload(0x40)\n      dup1\n      swap2\n      sub\n      swap1\n      revert\n    tag_169:\n        /* \"MerchantOfVenice.sol\":5413:5417  true */\n      0x01\n        /* \"MerchantOfVenice.sol\":5403:5410  _locked */\n      0x0a\n      0x03\n        /* \"MerchantOfVenice.sol\":5403:5417  _locked = true */\n      0x0100\n      exp\n      dup2\n      sload\n      dup2\n      0xff\n      mul\n      not\n      and\n      swap1\n      dup4\n      iszero\n      iszero\n      mul\n      or\n      swap1\n      sstore\n      pop\n        /* \"MerchantOfVenice.sol\":14782:14792  loanAmount */\n      sload(0x02)\n        /* \"MerchantOfVenice.sol\":14769:14778  msg.value */\n      callvalue\n        /* \"MerchantOfVenice.sol\":14769:14792  msg.value == loanAmount */\n      eq\n        /* \"MerchantOfVenice.sol\":14761:14831  require(msg.value == loanAmount, \"Must repay exactly the loan amount\") */\n      tag_172\n      jumpi\n      mload(0x40)\n      0x08c379a000000000000000000000000000000000000000000000000000000000\n      dup2\n      mstore\n      0x04\n      add\n      tag_173\n      swap1\n      tag_174\n      jump\t// in\n    tag_173:\n      mload(0x40)\n      dup1\n      swap2\n      sub\n      swap1\n      revert\n    tag_172:\n        /* \"MerchantOfVenice.sol\":14852:14856  true */\n      0x01\n        /* \"MerchantOfVenice.sol\":14842:14849  settled */\n      0x0a\n      0x02\n        /* \"MerchantOfVenice.sol\":14842:14856  settled = true */\n      0x0100\n      exp\n      dup2\n      sload\n      dup2\n      0xff\n      mul\n      not\n      and\n      swap1\n      dup4\n      iszero\n      iszero\n      mul\n      or\n      swap1\n      sstore\n      pop\n        /* \"MerchantOfVenice.sol\":14867:14907  _safeTransfer(antonio, collateralAmount) */\n      tag_175\n        /* \"MerchantOfVenice.sol\":14881:14888  antonio */\n      0x01\n      0x00\n      swap1\n      sload\n      swap1\n      0x0100\n      exp\n      swap1\n      div\n      0xffffffffffffffffffffffffffffffffffffffff\n      and\n        /* \"MerchantOfVenice.sol\":14890:14906  collateralAmount */\n      sload(0x03)\n        /* \"MerchantOfVenice.sol\":14867:14880  _safeTransfer */\n      tag_146\n        /* \"MerchantOfVenice.sol\":14867:14907  _safeTransfer(antonio, collateralAmount) */\n      jump\t// in\n    tag_175:\n        /* \"MerchantOfVenice.sol\":14917:14951  _safeTransfer(shylock, loanAmount) */\n      tag_176\n        /* \"MerchantOfVenice.sol\":14931:14938  shylock */\n      0x00\n      0x00\n      swap1\n      sload\n      swap1\n      0x0100\n      exp\n      swap1\n      div\n      0xffffffffffffffffffffffffffffffffffffffff\n      and\n        /* \"MerchantOfVenice.sol\":14940:14950  loanAmount */\n      sload(0x02)\n        /* \"MerchantOfVenice.sol\":14917:14930  _safeTransfer */\n      tag_146\n        /* \"MerchantOfVenice.sol\":14917:14951  _safeTransfer(shylock, loanAmount) */\n      jump\t// in\n    tag_176:\n        /* \"MerchantOfVenice.sol\":14967:15007  LoanRepaid(loanAmount, collateralAmount) */\n      0x040cee90ee4799897c30ca04e5feb6fa43dbba9b6d084b4b257cdafd84ba013e\n        /* \"MerchantOfVenice.sol\":14978:14988  loanAmount */\n      sload(0x02)\n        /* \"MerchantOfVenice.sol\":14990:15006  collateralAmount */\n      sload(0x03)\n        /* \"MerchantOfVenice.sol\":14967:15007  LoanRepaid(loanAmount, collateralAmount) */\n      mload(0x40)\n      tag_177\n      swap3\n      swap2\n      swap1\n      tag_148\n      jump\t// in\n    tag_177:\n      mload(0x40)\n      dup1\n      swap2\n      sub\n      swap1\n      log1\n        /* \"MerchantOfVenice.sol\":5448:5453  false */\n      0x00\n        /* \"MerchantOfVenice.sol\":5438:5445  _locked */\n      0x0a\n      0x03\n        /* \"MerchantOfVenice.sol\":5438:5453  _locked = false */\n      0x0100\n      exp\n      dup2\n      sload\n      dup2\n      0xff\n      mul\n      not\n      and\n      swap1\n      dup4\n      iszero\n      iszero\n      mul\n      or\n      swap1\n      sstore\n      pop\n        /* \"MerchantOfVenice.sol\":14585:15014  function repay()... */\n      jump\t// out\n        /* \"MerchantOfVenice.sol\":1695:1717  address public shylock */\n    tag_61:\n      0x00\n      0x00\n      swap1\n      sload\n      swap1\n      0x0100\n      exp\n      swap1\n      div\n      0xffffffffffffffffffffffffffffffffffffffff\n      and\n      dup2\n      jump\t// out\n        /* \"MerchantOfVenice.sol\":3038:3068  uint256 public depositDeadline */\n    tag_65:\n      sload(0x04)\n      dup2\n      jump\t// out\n        /* \"MerchantOfVenice.sol\":4616:4647  bool public collateralDeposited */\n    tag_69:\n      0x0a\n      0x00\n      swap1\n      sload\n      swap1\n      0x0100\n      exp\n      swap1\n      div\n      0xff\n      and\n      dup2\n      jump\t// out\n        /* \"MerchantOfVenice.sol\":12931:13471  function depositCollateral()... */\n    tag_72:\n        /* \"MerchantOfVenice.sol\":7475:7482  antonio */\n      0x01\n      0x00\n      swap1\n      sload\n      swap1\n      0x0100\n      exp\n      swap1\n      div\n      0xffffffffffffffffffffffffffffffffffffffff\n      and\n        /* \"MerchantOfVenice.sol\":7461:7482  msg.sender == antonio */\n      0xffffffffffffffffffffffffffffffffffffffff\n      and\n        /* \"MerchantOfVenice.sol\":7461:7471  msg.sender */\n      caller\n        /* \"MerchantOfVenice.sol\":7461:7482  msg.sender == antonio */\n      0xffffffffffffffffffffffffffffffffffffffff\n      and\n      eq\n        /* \"MerchantOfVenice.sol\":7453:7513  require(msg.sender == antonio, \"Only Antonio may call this\") */\n      tag_179\n      jumpi\n      mload(0x40)\n      0x08c379a000000000000000000000000000000000000000000000000000000000\n      dup2\n      mstore\n      0x04\n      add\n      tag_180\n      swap1\n      tag_156\n      jump\t// in\n    tag_180:\n      mload(0x40)\n      dup1\n      swap2\n      sub\n      swap1\n      revert\n    tag_179:\n        /* \"MerchantOfVenice.sol\":7960:7967  settled */\n      0x0a\n      0x02\n      swap1\n      sload\n      swap1\n      0x0100\n      exp\n      swap1\n      div\n      0xff\n      and\n        /* \"MerchantOfVenice.sol\":7959:7967  !settled */\n      iszero\n        /* \"MerchantOfVenice.sol\":7951:7996  require(!settled, \"Contract already settled\") */\n      tag_182\n      jumpi\n      mload(0x40)\n      0x08c379a000000000000000000000000000000000000000000000000000000000\n      dup2\n      mstore\n      0x04\n      add\n      tag_183\n      swap1\n      tag_122\n      jump\t// in\n    tag_183:\n      mload(0x40)\n      dup1\n      swap2\n      sub\n      swap1\n      revert\n    tag_182:\n        /* \"MerchantOfVenice.sol\":8182:8191  disbursed */\n      0x0a\n      0x01\n      swap1\n      sload\n      swap1\n      0x0100\n      exp\n      swap1\n      div\n      0xff\n      and\n        /* \"MerchantOfVenice.sol\":8181:8191  !disbursed */\n      iszero\n        /* \"MerchantOfVenice.sol\":8173:8218  require(!disbursed, \"Loan already disbursed\") */\n      tag_185\n      jumpi\n      mload(0x40)\n      0x08c379a000000000000000000000000000000000000000000000000000000000\n      dup2\n      mstore\n      0x04\n      add\n      tag_186\n      swap1\n      tag_130\n      jump\t// in\n    tag_186:\n      mload(0x40)\n      dup1\n      swap2\n      sub\n      swap1\n      revert\n    tag_185:\n        /* \"MerchantOfVenice.sol\":8794:8809  depositDeadline */\n      sload(0x04)\n        /* \"MerchantOfVenice.sol\":8775:8790  block.timestamp */\n      timestamp\n        /* \"MerchantOfVenice.sol\":8775:8809  block.timestamp <= depositDeadline */\n      gt\n      iszero\n        /* \"MerchantOfVenice.sol\":8767:8839  require(block.timestamp <= depositDeadline, \"Deposit window has closed\") */\n      tag_188\n      jumpi\n      mload(0x40)\n      0x08c379a000000000000000000000000000000000000000000000000000000000\n      dup2\n      mstore\n      0x04\n      add\n      tag_189\n      swap1\n      tag_190\n      jump\t// in\n    tag_189:\n      mload(0x40)\n      dup1\n      swap2\n      sub\n      swap1\n      revert\n    tag_188:\n        /* \"MerchantOfVenice.sol\":5367:5374  _locked */\n      0x0a\n      0x03\n      swap1\n      sload\n      swap1\n      0x0100\n      exp\n      swap1\n      div\n      0xff\n      and\n        /* \"MerchantOfVenice.sol\":5366:5374  !_locked */\n      iszero\n        /* \"MerchantOfVenice.sol\":5358:5393  require(!_locked, \"Reentrant call\") */\n      tag_192\n      jumpi\n      mload(0x40)\n      0x08c379a000000000000000000000000000000000000000000000000000000000\n      dup2\n      mstore\n      0x04\n      add\n      tag_193\n      swap1\n      tag_138\n      jump\t// in\n    tag_193:\n      mload(0x40)\n      dup1\n      swap2\n      sub\n      swap1\n      revert\n    tag_192:\n        /* \"MerchantOfVenice.sol\":5413:5417  true */\n      0x01\n        /* \"MerchantOfVenice.sol\":5403:5410  _locked */\n      0x0a\n      0x03\n        /* \"MerchantOfVenice.sol\":5403:5417  _locked = true */\n      0x0100\n      exp\n      dup2\n      sload\n      dup2\n      0xff\n      mul\n      not\n      and\n      swap1\n      dup4\n      iszero\n      iszero\n      mul\n      or\n      swap1\n      sstore\n      pop\n        /* \"MerchantOfVenice.sol\":13127:13146  collateralDeposited */\n      0x0a\n      0x00\n      swap1\n      sload\n      swap1\n      0x0100\n      exp\n      swap1\n      div\n      0xff\n      and\n        /* \"MerchantOfVenice.sol\":13126:13146  !collateralDeposited */\n      iszero\n        /* \"MerchantOfVenice.sol\":13118:13188  require(!collateralDeposited,          \"Collateral already deposited\") */\n      tag_195\n      jumpi\n      mload(0x40)\n      0x08c379a000000000000000000000000000000000000000000000000000000000\n      dup2\n      mstore\n      0x04\n      add\n      tag_196\n      swap1\n      tag_197\n      jump\t// in\n    tag_196:\n      mload(0x40)\n      dup1\n      swap2\n      sub\n      swap1\n      revert\n    tag_195:\n        /* \"MerchantOfVenice.sol\":13219:13235  collateralAmount */\n      sload(0x03)\n        /* \"MerchantOfVenice.sol\":13206:13215  msg.value */\n      callvalue\n        /* \"MerchantOfVenice.sol\":13206:13235  msg.value == collateralAmount */\n      eq\n        /* \"MerchantOfVenice.sol\":13198:13282  require(msg.value == collateralAmount, \"Must deposit exactly twice the loan amount\") */\n      tag_198\n      jumpi\n      mload(0x40)\n      0x08c379a000000000000000000000000000000000000000000000000000000000\n      dup2\n      mstore\n      0x04\n      add\n      tag_199\n      swap1\n      tag_200\n      jump\t// in\n    tag_199:\n      mload(0x40)\n      dup1\n      swap2\n      sub\n      swap1\n      revert\n    tag_198:\n        /* \"MerchantOfVenice.sol\":13316:13320  true */\n      0x01\n        /* \"MerchantOfVenice.sol\":13293:13312  collateralDeposited */\n      0x0a\n      0x00\n        /* \"MerchantOfVenice.sol\":13293:13320  collateralDeposited  = true */\n      0x0100\n      exp\n      dup2\n      sload\n      dup2\n      0xff\n      mul\n      not\n      and\n      swap1\n      dup4\n      iszero\n      iszero\n      mul\n      or\n      swap1\n      sstore\n      pop\n        /* \"MerchantOfVenice.sol\":13371:13396  disbursementWindowSeconds */\n      sload(0x08)\n        /* \"MerchantOfVenice.sol\":13353:13368  block.timestamp */\n      timestamp\n        /* \"MerchantOfVenice.sol\":13353:13396  block.timestamp + disbursementWindowSeconds */\n      tag_201\n      swap2\n      swap1\n      tag_144\n      jump\t// in\n    tag_201:\n        /* \"MerchantOfVenice.sol\":13330:13350  disbursementDeadline */\n      0x05\n        /* \"MerchantOfVenice.sol\":13330:13396  disbursementDeadline = block.timestamp + disbursementWindowSeconds */\n      dup2\n      swap1\n      sstore\n      pop\n        /* \"MerchantOfVenice.sol\":13412:13464  CollateralDeposited(msg.value, disbursementDeadline) */\n      0x1d6754727766d56b1fac49ac85a13585c6caab122a19c994e569d16077d462f2\n        /* \"MerchantOfVenice.sol\":13432:13441  msg.value */\n      callvalue\n        /* \"MerchantOfVenice.sol\":13443:13463  disbursementDeadline */\n      sload(0x05)\n        /* \"MerchantOfVenice.sol\":13412:13464  CollateralDeposited(msg.value, disbursementDeadline) */\n      mload(0x40)\n      tag_202\n      swap3\n      swap2\n      swap1\n      tag_148\n      jump\t// in\n    tag_202:\n      mload(0x40)\n      dup1\n      swap2\n      sub\n      swap1\n      log1\n        /* \"MerchantOfVenice.sol\":5448:5453  false */\n      0x00\n        /* \"MerchantOfVenice.sol\":5438:5445  _locked */\n      0x0a\n      0x03\n        /* \"MerchantOfVenice.sol\":5438:5453  _locked = false */\n      0x0100\n      exp\n      dup2\n      sload\n      dup2\n      0xff\n      mul\n      not\n      and\n      swap1\n      dup4\n      iszero\n      iszero\n      mul\n      or\n      swap1\n      sstore\n      pop\n        /* \"MerchantOfVenice.sol\":12931:13471  function depositCollateral()... */\n      jump\t// out\n        /* \"MerchantOfVenice.sol\":17588:17808  function timeToRepaymentDeadline() external view returns (uint256) {... */\n    tag_75:\n        /* \"MerchantOfVenice.sol\":17646:17653  uint256 */\n      0x00\n        /* \"MerchantOfVenice.sol\":17670:17679  disbursed */\n      0x0a\n      0x01\n      swap1\n      sload\n      swap1\n      0x0100\n      exp\n      swap1\n      div\n      0xff\n      and\n        /* \"MerchantOfVenice.sol\":17665:17689  if (!disbursed) return 0 */\n      tag_204\n      jumpi\n        /* \"MerchantOfVenice.sol\":17688:17689  0 */\n      0x00\n        /* \"MerchantOfVenice.sol\":17681:17689  return 0 */\n      swap1\n      pop\n      jump(tag_203)\n        /* \"MerchantOfVenice.sol\":17665:17689  if (!disbursed) return 0 */\n    tag_204:\n        /* \"MerchantOfVenice.sol\":17722:17739  repaymentDeadline */\n      sload(0x06)\n        /* \"MerchantOfVenice.sol\":17703:17718  block.timestamp */\n      timestamp\n        /* \"MerchantOfVenice.sol\":17703:17739  block.timestamp >= repaymentDeadline */\n      lt\n        /* \"MerchantOfVenice.sol\":17699:17749  if (block.timestamp >= repaymentDeadline) return 0 */\n      tag_205\n      jumpi\n        /* \"MerchantOfVenice.sol\":17748:17749  0 */\n      0x00\n        /* \"MerchantOfVenice.sol\":17741:17749  return 0 */\n      swap1\n      pop\n      jump(tag_203)\n        /* \"MerchantOfVenice.sol\":17699:17749  if (block.timestamp >= repaymentDeadline) return 0 */\n    tag_205:\n        /* \"MerchantOfVenice.sol\":17786:17801  block.timestamp */\n      timestamp\n        /* \"MerchantOfVenice.sol\":17766:17783  repaymentDeadline */\n      sload(0x06)\n        /* \"MerchantOfVenice.sol\":17766:17801  repaymentDeadline - block.timestamp */\n      tag_206\n      swap2\n      swap1\n      tag_152\n      jump\t// in\n    tag_206:\n        /* \"MerchantOfVenice.sol\":17759:17801  return repaymentDeadline - block.timestamp */\n      swap1\n      pop\n        /* \"MerchantOfVenice.sol\":17588:17808  function timeToRepaymentDeadline() external view returns (uint256) {... */\n    tag_203:\n      swap1\n      jump\t// out\n        /* \"MerchantOfVenice.sol\":3205:3240  uint256 public disbursementDeadline */\n    tag_79:\n      sload(0x05)\n      dup2\n      jump\t// out\n        /* \"MerchantOfVenice.sol\":4888:4907  bool public settled */\n    tag_83:\n      0x0a\n      0x02\n      swap1\n      sload\n      swap1\n      0x0100\n      exp\n      swap1\n      div\n      0xff\n      and\n      dup2\n      jump\t// out\n        /* \"MerchantOfVenice.sol\":2481:2512  uint256 public collateralAmount */\n    tag_87:\n      sload(0x03)\n      dup2\n      jump\t// out\n        /* \"MerchantOfVenice.sol\":17214:17453  function timeToDisbursementDeadline() external view returns (uint256) {... */\n    tag_91:\n        /* \"MerchantOfVenice.sol\":17275:17282  uint256 */\n      0x00\n        /* \"MerchantOfVenice.sol\":17299:17318  collateralDeposited */\n      0x0a\n      0x00\n      swap1\n      sload\n      swap1\n      0x0100\n      exp\n      swap1\n      div\n      0xff\n      and\n        /* \"MerchantOfVenice.sol\":17294:17328  if (!collateralDeposited) return 0 */\n      tag_208\n      jumpi\n        /* \"MerchantOfVenice.sol\":17327:17328  0 */\n      0x00\n        /* \"MerchantOfVenice.sol\":17320:17328  return 0 */\n      swap1\n      pop\n      jump(tag_207)\n        /* \"MerchantOfVenice.sol\":17294:17328  if (!collateralDeposited) return 0 */\n    tag_208:\n        /* \"MerchantOfVenice.sol\":17361:17381  disbursementDeadline */\n      sload(0x05)\n        /* \"MerchantOfVenice.sol\":17342:17357  block.timestamp */\n      timestamp\n        /* \"MerchantOfVenice.sol\":17342:17381  block.timestamp >= disbursementDeadline */\n      lt\n        /* \"MerchantOfVenice.sol\":17338:17391  if (block.timestamp >= disbursementDeadline) return 0 */\n      tag_209\n      jumpi\n        /* \"MerchantOfVenice.sol\":17390:17391  0 */\n      0x00\n        /* \"MerchantOfVenice.sol\":17383:17391  return 0 */\n      swap1\n      pop\n      jump(tag_207)\n        /* \"MerchantOfVenice.sol\":17338:17391  if (block.timestamp >= disbursementDeadline) return 0 */\n    tag_209:\n        /* \"MerchantOfVenice.sol\":17431:17446  block.timestamp */\n      timestamp\n        /* \"MerchantOfVenice.sol\":17408:17428  disbursementDeadline */\n      sload(0x05)\n        /* \"MerchantOfVenice.sol\":17408:17446  disbursementDeadline - block.timestamp */\n      tag_210\n      swap2\n      swap1\n      tag_152\n      jump\t// in\n    tag_210:\n        /* \"MerchantOfVenice.sol\":17401:17446  return disbursementDeadline - block.timestamp */\n      swap1\n      pop\n        /* \"MerchantOfVenice.sol\":17214:17453  function timeToDisbursementDeadline() external view returns (uint256) {... */\n    tag_207:\n      swap1\n      jump\t// out\n        /* \"MerchantOfVenice.sol\":2288:2313  uint256 public loanAmount */\n    tag_95:\n      sload(0x02)\n      dup2\n      jump\t// out\n        /* \"MerchantOfVenice.sol\":3890:3925  uint256 public depositWindowSeconds */\n    tag_99:\n      sload(0x07)\n      dup2\n      jump\t// out\n        /* \"MerchantOfVenice.sol\":15686:15967  function claimBond()... */\n    tag_103:\n        /* \"MerchantOfVenice.sol\":7358:7365  shylock */\n      0x00\n      0x00\n      swap1\n      sload\n      swap1\n      0x0100\n      exp\n      swap1\n      div\n      0xffffffffffffffffffffffffffffffffffffffff\n      and\n        /* \"MerchantOfVenice.sol\":7344:7365  msg.sender == shylock */\n      0xffffffffffffffffffffffffffffffffffffffff\n      and\n        /* \"MerchantOfVenice.sol\":7344:7354  msg.sender */\n      caller\n        /* \"MerchantOfVenice.sol\":7344:7365  msg.sender == shylock */\n      0xffffffffffffffffffffffffffffffffffffffff\n      and\n      eq\n        /* \"MerchantOfVenice.sol\":7336:7396  require(msg.sender == shylock, \"Only Shylock may call this\") */\n      tag_212\n      jumpi\n      mload(0x40)\n      0x08c379a000000000000000000000000000000000000000000000000000000000\n      dup2\n      mstore\n      0x04\n      add\n      tag_213\n      swap1\n      tag_118\n      jump\t// in\n    tag_213:\n      mload(0x40)\n      dup1\n      swap2\n      sub\n      swap1\n      revert\n    tag_212:\n        /* \"MerchantOfVenice.sol\":7960:7967  settled */\n      0x0a\n      0x02\n      swap1\n      sload\n      swap1\n      0x0100\n      exp\n      swap1\n      div\n      0xff\n      and\n        /* \"MerchantOfVenice.sol\":7959:7967  !settled */\n      iszero\n        /* \"MerchantOfVenice.sol\":7951:7996  require(!settled, \"Contract already settled\") */\n      tag_215\n      jumpi\n      mload(0x40)\n      0x08c379a000000000000000000000000000000000000000000000000000000000\n      dup2\n      mstore\n      0x04\n      add\n      tag_216\n      swap1\n      tag_122\n      jump\t// in\n    tag_216:\n      mload(0x40)\n      dup1\n      swap2\n      sub\n      swap1\n      revert\n    tag_215:\n        /* \"MerchantOfVenice.sol\":8283:8292  disbursed */\n      0x0a\n      0x01\n      swap1\n      sload\n      swap1\n      0x0100\n      exp\n      swap1\n      div\n      0xff\n      and\n        /* \"MerchantOfVenice.sol\":8275:8319  require(disbursed, \"Loan not yet disbursed\") */\n      tag_218\n      jumpi\n      mload(0x40)\n      0x08c379a000000000000000000000000000000000000000000000000000000000\n      dup2\n      mstore\n      0x04\n      add\n      tag_219\n      swap1\n      tag_163\n      jump\t// in\n    tag_219:\n      mload(0x40)\n      dup1\n      swap2\n      sub\n      swap1\n      revert\n    tag_218:\n        /* \"MerchantOfVenice.sol\":9521:9538  repaymentDeadline */\n      sload(0x06)\n        /* \"MerchantOfVenice.sol\":9503:9518  block.timestamp */\n      timestamp\n        /* \"MerchantOfVenice.sol\":9503:9538  block.timestamp > repaymentDeadline */\n      gt\n        /* \"MerchantOfVenice.sol\":9495:9574  require(block.timestamp > repaymentDeadline, \"Repayment window not yet closed\") */\n      tag_221\n      jumpi\n      mload(0x40)\n      0x08c379a000000000000000000000000000000000000000000000000000000000\n      dup2\n      mstore\n      0x04\n      add\n      tag_222\n      swap1\n      tag_223\n      jump\t// in\n    tag_222:\n      mload(0x40)\n      dup1\n      swap2\n      sub\n      swap1\n      revert\n    tag_221:\n        /* \"MerchantOfVenice.sol\":5367:5374  _locked */\n      0x0a\n      0x03\n      swap1\n      sload\n      swap1\n      0x0100\n      exp\n      swap1\n      div\n      0xff\n      and\n        /* \"MerchantOfVenice.sol\":5366:5374  !_locked */\n      iszero\n        /* \"MerchantOfVenice.sol\":5358:5393  require(!_locked, \"Reentrant call\") */\n      tag_225\n      jumpi\n      mload(0x40)\n      0x08c379a000000000000000000000000000000000000000000000000000000000\n      dup2\n      mstore\n      0x04\n      add\n      tag_226\n      swap1\n      tag_138\n      jump\t// in\n    tag_226:\n      mload(0x40)\n      dup1\n      swap2\n      sub\n      swap1\n      revert\n    tag_225:\n        /* \"MerchantOfVenice.sol\":5413:5417  true */\n      0x01\n        /* \"MerchantOfVenice.sol\":5403:5410  _locked */\n      0x0a\n      0x03\n        /* \"MerchantOfVenice.sol\":5403:5417  _locked = true */\n      0x0100\n      exp\n      dup2\n      sload\n      dup2\n      0xff\n      mul\n      not\n      and\n      swap1\n      dup4\n      iszero\n      iszero\n      mul\n      or\n      swap1\n      sstore\n      pop\n        /* \"MerchantOfVenice.sol\":15859:15863  true */\n      0x01\n        /* \"MerchantOfVenice.sol\":15849:15856  settled */\n      0x0a\n      0x02\n        /* \"MerchantOfVenice.sol\":15849:15863  settled = true */\n      0x0100\n      exp\n      dup2\n      sload\n      dup2\n      0xff\n      mul\n      not\n      and\n      swap1\n      dup4\n      iszero\n      iszero\n      mul\n      or\n      swap1\n      sstore\n      pop\n        /* \"MerchantOfVenice.sol\":15873:15913  _safeTransfer(shylock, collateralAmount) */\n      tag_228\n        /* \"MerchantOfVenice.sol\":15887:15894  shylock */\n      0x00\n      0x00\n      swap1\n      sload\n      swap1\n      0x0100\n      exp\n      swap1\n      div\n      0xffffffffffffffffffffffffffffffffffffffff\n      and\n        /* \"MerchantOfVenice.sol\":15896:15912  collateralAmount */\n      sload(0x03)\n        /* \"MerchantOfVenice.sol\":15873:15886  _safeTransfer */\n      tag_146\n        /* \"MerchantOfVenice.sol\":15873:15913  _safeTransfer(shylock, collateralAmount) */\n      jump\t// in\n    tag_228:\n        /* \"MerchantOfVenice.sol\":15929:15960  BondForfeited(collateralAmount) */\n      0x5012a849f7aac3bd3087fbd8fc70d53aa8669f72ad6ed83b0efca0b07c1bd97d\n        /* \"MerchantOfVenice.sol\":15943:15959  collateralAmount */\n      sload(0x03)\n        /* \"MerchantOfVenice.sol\":15929:15960  BondForfeited(collateralAmount) */\n      mload(0x40)\n      tag_229\n      swap2\n      swap1\n      tag_42\n      jump\t// in\n    tag_229:\n      mload(0x40)\n      dup1\n      swap2\n      sub\n      swap1\n      log1\n        /* \"MerchantOfVenice.sol\":5448:5453  false */\n      0x00\n        /* \"MerchantOfVenice.sol\":5438:5445  _locked */\n      0x0a\n      0x03\n        /* \"MerchantOfVenice.sol\":5438:5453  _locked = false */\n      0x0100\n      exp\n      dup2\n      sload\n      dup2\n      0xff\n      mul\n      not\n      and\n      swap1\n      dup4\n      iszero\n      iszero\n      mul\n      or\n      swap1\n      sstore\n      pop\n        /* \"MerchantOfVenice.sol\":15686:15967  function claimBond()... */\n      jump\t// out\n        /* \"MerchantOfVenice.sol\":16140:16425  function cancel()... */\n    tag_106:\n        /* \"MerchantOfVenice.sol\":7358:7365  shylock */\n      0x00\n      0x00\n      swap1\n      sload\n      swap1\n      0x0100\n      exp\n      swap1\n      div\n      0xffffffffffffffffffffffffffffffffffffffff\n      and\n        /* \"MerchantOfVenice.sol\":7344:7365  msg.sender == shylock */\n      0xffffffffffffffffffffffffffffffffffffffff\n      and\n        /* \"MerchantOfVenice.sol\":7344:7354  msg.sender */\n      caller\n        /* \"MerchantOfVenice.sol\":7344:7365  msg.sender == shylock */\n      0xffffffffffffffffffffffffffffffffffffffff\n      and\n      eq\n        /* \"MerchantOfVenice.sol\":7336:7396  require(msg.sender == shylock, \"Only Shylock may call this\") */\n      tag_231\n      jumpi\n      mload(0x40)\n      0x08c379a000000000000000000000000000000000000000000000000000000000\n      dup2\n      mstore\n      0x04\n      add\n      tag_232\n      swap1\n      tag_118\n      jump\t// in\n    tag_232:\n      mload(0x40)\n      dup1\n      swap2\n      sub\n      swap1\n      revert\n    tag_231:\n        /* \"MerchantOfVenice.sol\":7960:7967  settled */\n      0x0a\n      0x02\n      swap1\n      sload\n      swap1\n      0x0100\n      exp\n      swap1\n      div\n      0xff\n      and\n        /* \"MerchantOfVenice.sol\":7959:7967  !settled */\n      iszero\n        /* \"MerchantOfVenice.sol\":7951:7996  require(!settled, \"Contract already settled\") */\n      tag_234\n      jumpi\n      mload(0x40)\n      0x08c379a000000000000000000000000000000000000000000000000000000000\n      dup2\n      mstore\n      0x04\n      add\n      tag_235\n      swap1\n      tag_122\n      jump\t// in\n    tag_235:\n      mload(0x40)\n      dup1\n      swap2\n      sub\n      swap1\n      revert\n    tag_234:\n        /* \"MerchantOfVenice.sol\":8931:8946  depositDeadline */\n      sload(0x04)\n        /* \"MerchantOfVenice.sol\":8913:8928  block.timestamp */\n      timestamp\n        /* \"MerchantOfVenice.sol\":8913:8946  block.timestamp > depositDeadline */\n      gt\n        /* \"MerchantOfVenice.sol\":8905:8976  require(block.timestamp > depositDeadline, \"Deposit window still open\") */\n      tag_237\n      jumpi\n      mload(0x40)\n      0x08c379a000000000000000000000000000000000000000000000000000000000\n      dup2\n      mstore\n      0x04\n      add\n      tag_238\n      swap1\n      tag_239\n      jump\t// in\n    tag_238:\n      mload(0x40)\n      dup1\n      swap2\n      sub\n      swap1\n      revert\n    tag_237:\n        /* \"MerchantOfVenice.sol\":5367:5374  _locked */\n      0x0a\n      0x03\n      swap1\n      sload\n      swap1\n      0x0100\n      exp\n      swap1\n      div\n      0xff\n      and\n        /* \"MerchantOfVenice.sol\":5366:5374  !_locked */\n      iszero\n        /* \"MerchantOfVenice.sol\":5358:5393  require(!_locked, \"Reentrant call\") */\n      tag_241\n      jumpi\n      mload(0x40)\n      0x08c379a000000000000000000000000000000000000000000000000000000000\n      dup2\n      mstore\n      0x04\n      add\n      tag_242\n      swap1\n      tag_138\n      jump\t// in\n    tag_242:\n      mload(0x40)\n      dup1\n      swap2\n      sub\n      swap1\n      revert\n    tag_241:\n        /* \"MerchantOfVenice.sol\":5413:5417  true */\n      0x01\n        /* \"MerchantOfVenice.sol\":5403:5410  _locked */\n      0x0a\n      0x03\n        /* \"MerchantOfVenice.sol\":5403:5417  _locked = true */\n      0x0100\n      exp\n      dup2\n      sload\n      dup2\n      0xff\n      mul\n      not\n      and\n      swap1\n      dup4\n      iszero\n      iszero\n      mul\n      or\n      swap1\n      sstore\n      pop\n        /* \"MerchantOfVenice.sol\":16287:16306  collateralDeposited */\n      0x0a\n      0x00\n      swap1\n      sload\n      swap1\n      0x0100\n      exp\n      swap1\n      div\n      0xff\n      and\n        /* \"MerchantOfVenice.sol\":16286:16306  !collateralDeposited */\n      iszero\n        /* \"MerchantOfVenice.sol\":16278:16358  require(!collateralDeposited, \"Collateral deposited use reclaimCollateral path\") */\n      tag_244\n      jumpi\n      mload(0x40)\n      0x08c379a000000000000000000000000000000000000000000000000000000000\n      dup2\n      mstore\n      0x04\n      add\n      tag_245\n      swap1\n      tag_246\n      jump\t// in\n    tag_245:\n      mload(0x40)\n      dup1\n      swap2\n      sub\n      swap1\n      revert\n    tag_244:\n        /* \"MerchantOfVenice.sol\":16379:16383  true */\n      0x01\n        /* \"MerchantOfVenice.sol\":16369:16376  settled */\n      0x0a\n      0x02\n        /* \"MerchantOfVenice.sol\":16369:16383  settled = true */\n      0x0100\n      exp\n      dup2\n      sload\n      dup2\n      0xff\n      mul\n      not\n      and\n      swap1\n      dup4\n      iszero\n      iszero\n      mul\n      or\n      swap1\n      sstore\n      pop\n        /* \"MerchantOfVenice.sol\":16399:16418  ContractCancelled() */\n      0xca722985a56cf602f4433af65333d6734bf8a2d80cfb080cb8735d7b133e60e5\n      mload(0x40)\n      mload(0x40)\n      dup1\n      swap2\n      sub\n      swap1\n      log1\n        /* \"MerchantOfVenice.sol\":5448:5453  false */\n      0x00\n        /* \"MerchantOfVenice.sol\":5438:5445  _locked */\n      0x0a\n      0x03\n        /* \"MerchantOfVenice.sol\":5438:5453  _locked = false */\n      0x0100\n      exp\n      dup2\n      sload\n      dup2\n      0xff\n      mul\n      not\n      and\n      swap1\n      dup4\n      iszero\n      iszero\n      mul\n      or\n      swap1\n      sstore\n      pop\n        /* \"MerchantOfVenice.sol\":16140:16425  function cancel()... */\n      jump\t// out\n        /* \"MerchantOfVenice.sol\":4121:4158  uint256 public repaymentWindowSeconds */\n    tag_109:\n      sload(0x09)\n      dup2\n      jump\t// out\n        /* \"MerchantOfVenice.sol\":15146:15467  function reclaimCollateral()... */\n    tag_113:\n        /* \"MerchantOfVenice.sol\":7475:7482  antonio */\n      0x01\n      0x00\n      swap1\n      sload\n      swap1\n      0x0100\n      exp\n      swap1\n      div\n      0xffffffffffffffffffffffffffffffffffffffff\n      and\n        /* \"MerchantOfVenice.sol\":7461:7482  msg.sender == antonio */\n      0xffffffffffffffffffffffffffffffffffffffff\n      and\n        /* \"MerchantOfVenice.sol\":7461:7471  msg.sender */\n      caller\n        /* \"MerchantOfVenice.sol\":7461:7482  msg.sender == antonio */\n      0xffffffffffffffffffffffffffffffffffffffff\n      and\n      eq\n        /* \"MerchantOfVenice.sol\":7453:7513  require(msg.sender == antonio, \"Only Antonio may call this\") */\n      tag_248\n      jumpi\n      mload(0x40)\n      0x08c379a000000000000000000000000000000000000000000000000000000000\n      dup2\n      mstore\n      0x04\n      add\n      tag_249\n      swap1\n      tag_156\n      jump\t// in\n    tag_249:\n      mload(0x40)\n      dup1\n      swap2\n      sub\n      swap1\n      revert\n    tag_248:\n        /* \"MerchantOfVenice.sol\":7960:7967  settled */\n      0x0a\n      0x02\n      swap1\n      sload\n      swap1\n      0x0100\n      exp\n      swap1\n      div\n      0xff\n      and\n        /* \"MerchantOfVenice.sol\":7959:7967  !settled */\n      iszero\n        /* \"MerchantOfVenice.sol\":7951:7996  require(!settled, \"Contract already settled\") */\n      tag_251\n      jumpi\n      mload(0x40)\n      0x08c379a000000000000000000000000000000000000000000000000000000000\n      dup2\n      mstore\n      0x04\n      add\n      tag_252\n      swap1\n      tag_122\n      jump\t// in\n    tag_252:\n      mload(0x40)\n      dup1\n      swap2\n      sub\n      swap1\n      revert\n    tag_251:\n        /* \"MerchantOfVenice.sol\":8063:8082  collateralDeposited */\n      0x0a\n      0x00\n      swap1\n      sload\n      swap1\n      0x0100\n      exp\n      swap1\n      div\n      0xff\n      and\n        /* \"MerchantOfVenice.sol\":8055:8115  require(collateralDeposited, \"Collateral not yet deposited\") */\n      tag_254\n      jumpi\n      mload(0x40)\n      0x08c379a000000000000000000000000000000000000000000000000000000000\n      dup2\n      mstore\n      0x04\n      add\n      tag_255\n      swap1\n      tag_126\n      jump\t// in\n    tag_255:\n      mload(0x40)\n      dup1\n      swap2\n      sub\n      swap1\n      revert\n    tag_254:\n        /* \"MerchantOfVenice.sol\":8182:8191  disbursed */\n      0x0a\n      0x01\n      swap1\n      sload\n      swap1\n      0x0100\n      exp\n      swap1\n      div\n      0xff\n      and\n        /* \"MerchantOfVenice.sol\":8181:8191  !disbursed */\n      iszero\n        /* \"MerchantOfVenice.sol\":8173:8218  require(!disbursed, \"Loan already disbursed\") */\n      tag_257\n      jumpi\n      mload(0x40)\n      0x08c379a000000000000000000000000000000000000000000000000000000000\n      dup2\n      mstore\n      0x04\n      add\n      tag_258\n      swap1\n      tag_130\n      jump\t// in\n    tag_258:\n      mload(0x40)\n      dup1\n      swap2\n      sub\n      swap1\n      revert\n    tag_257:\n        /* \"MerchantOfVenice.sol\":9227:9247  disbursementDeadline */\n      sload(0x05)\n        /* \"MerchantOfVenice.sol\":9209:9224  block.timestamp */\n      timestamp\n        /* \"MerchantOfVenice.sol\":9209:9247  block.timestamp > disbursementDeadline */\n      gt\n        /* \"MerchantOfVenice.sol\":9201:9282  require(block.timestamp > disbursementDeadline, \"Disbursement window still open\") */\n      tag_260\n      jumpi\n      mload(0x40)\n      0x08c379a000000000000000000000000000000000000000000000000000000000\n      dup2\n      mstore\n      0x04\n      add\n      tag_261\n      swap1\n      tag_262\n      jump\t// in\n    tag_261:\n      mload(0x40)\n      dup1\n      swap2\n      sub\n      swap1\n      revert\n    tag_260:\n        /* \"MerchantOfVenice.sol\":5367:5374  _locked */\n      0x0a\n      0x03\n      swap1\n      sload\n      swap1\n      0x0100\n      exp\n      swap1\n      div\n      0xff\n      and\n        /* \"MerchantOfVenice.sol\":5366:5374  !_locked */\n      iszero\n        /* \"MerchantOfVenice.sol\":5358:5393  require(!_locked, \"Reentrant call\") */\n      tag_264\n      jumpi\n      mload(0x40)\n      0x08c379a000000000000000000000000000000000000000000000000000000000\n      dup2\n      mstore\n      0x04\n      add\n      tag_265\n      swap1\n      tag_138\n      jump\t// in\n    tag_265:\n      mload(0x40)\n      dup1\n      swap2\n      sub\n      swap1\n      revert\n    tag_264:\n        /* \"MerchantOfVenice.sol\":5413:5417  true */\n      0x01\n        /* \"MerchantOfVenice.sol\":5403:5410  _locked */\n      0x0a\n      0x03\n        /* \"MerchantOfVenice.sol\":5403:5417  _locked = true */\n      0x0100\n      exp\n      dup2\n      sload\n      dup2\n      0xff\n      mul\n      not\n      and\n      swap1\n      dup4\n      iszero\n      iszero\n      mul\n      or\n      swap1\n      sstore\n      pop\n        /* \"MerchantOfVenice.sol\":15353:15357  true */\n      0x01\n        /* \"MerchantOfVenice.sol\":15343:15350  settled */\n      0x0a\n      0x02\n        /* \"MerchantOfVenice.sol\":15343:15357  settled = true */\n      0x0100\n      exp\n      dup2\n      sload\n      dup2\n      0xff\n      mul\n      not\n      and\n      swap1\n      dup4\n      iszero\n      iszero\n      mul\n      or\n      swap1\n      sstore\n      pop\n        /* \"MerchantOfVenice.sol\":15367:15407  _safeTransfer(antonio, collateralAmount) */\n      tag_267\n        /* \"MerchantOfVenice.sol\":15381:15388  antonio */\n      0x01\n      0x00\n      swap1\n      sload\n      swap1\n      0x0100\n      exp\n      swap1\n      div\n      0xffffffffffffffffffffffffffffffffffffffff\n      and\n        /* \"MerchantOfVenice.sol\":15390:15406  collateralAmount */\n      sload(0x03)\n        /* \"MerchantOfVenice.sol\":15367:15380  _safeTransfer */\n      tag_146\n        /* \"MerchantOfVenice.sol\":15367:15407  _safeTransfer(antonio, collateralAmount) */\n      jump\t// in\n    tag_267:\n        /* \"MerchantOfVenice.sol\":15423:15460  CollateralReclaimed(collateralAmount) */\n      0x52d70f4b39f417a165362c56d7e7a93fee95660ad90595cc9ebe26f69ddc6e4a\n        /* \"MerchantOfVenice.sol\":15443:15459  collateralAmount */\n      sload(0x03)\n        /* \"MerchantOfVenice.sol\":15423:15460  CollateralReclaimed(collateralAmount) */\n      mload(0x40)\n      tag_268\n      swap2\n      swap1\n      tag_42\n      jump\t// in\n    tag_268:\n      mload(0x40)\n      dup1\n      swap2\n      sub\n      swap1\n      log1\n        /* \"MerchantOfVenice.sol\":5448:5453  false */\n      0x00\n        /* \"MerchantOfVenice.sol\":5438:5445  _locked */\n      0x0a\n      0x03\n        /* \"MerchantOfVenice.sol\":5438:5453  _locked = false */\n      0x0100\n      exp\n      dup2\n      sload\n      dup2\n      0xff\n      mul\n      not\n      and\n      swap1\n      dup4\n      iszero\n      iszero\n      mul\n      or\n      swap1\n      sstore\n      pop\n        /* \"MerchantOfVenice.sol\":15146:15467  function reclaimCollateral()... */\n      jump\t// out\n        /* \"MerchantOfVenice.sol\":12231:12409  function _safeTransfer(address to, uint256 value) internal {... */\n    tag_146:\n        /* \"MerchantOfVenice.sol\":12301:12313  bool success */\n      0x00\n        /* \"MerchantOfVenice.sol\":12327:12329  to */\n      dup3\n        /* \"MerchantOfVenice.sol\":12319:12335  payable(to).call */\n      0xffffffffffffffffffffffffffffffffffffffff\n      and\n        /* \"MerchantOfVenice.sol\":12343:12348  value */\n      dup3\n        /* \"MerchantOfVenice.sol\":12319:12353  payable(to).call{value: value}(\"\") */\n      mload(0x40)\n      tag_270\n      swap1\n      tag_271\n      jump\t// in\n    tag_270:\n      0x00\n      mload(0x40)\n      dup1\n      dup4\n      sub\n      dup2\n      dup6\n      dup8\n      gas\n      call\n      swap3\n      pop\n      pop\n      pop\n      returndatasize\n      dup1\n      0x00\n      dup2\n      eq\n      tag_274\n      jumpi\n      mload(0x40)\n      swap2\n      pop\n      and(add(returndatasize, 0x3f), not(0x1f))\n      dup3\n      add\n      0x40\n      mstore\n      returndatasize\n      dup3\n      mstore\n      returndatasize\n      0x00\n      0x20\n      dup5\n      add\n      returndatacopy\n      jump(tag_273)\n    tag_274:\n      0x60\n      swap2\n      pop\n    tag_273:\n      pop\n        /* \"MerchantOfVenice.sol\":12300:12353  (bool success, ) = payable(to).call{value: value}(\"\") */\n      pop\n      swap1\n      pop\n        /* \"MerchantOfVenice.sol\":12371:12378  success */\n      dup1\n        /* \"MerchantOfVenice.sol\":12363:12402  require(success, \"ETH transfer failed\") */\n      tag_275\n      jumpi\n      mload(0x40)\n      0x08c379a000000000000000000000000000000000000000000000000000000000\n      dup2\n      mstore\n      0x04\n      add\n      tag_276\n      swap1\n      tag_277\n      jump\t// in\n    tag_276:\n      mload(0x40)\n      dup1\n      swap2\n      sub\n      swap1\n      revert\n    tag_275:\n        /* \"MerchantOfVenice.sol\":12290:12409  {... */\n      pop\n        /* \"MerchantOfVenice.sol\":12231:12409  function _safeTransfer(address to, uint256 value) internal {... */\n      pop\n      pop\n      jump\t// out\n        /* \"#utility.yul\":7:133   */\n    tag_278:\n        /* \"#utility.yul\":44:51   */\n      0x00\n        /* \"#utility.yul\":84:126   */\n      0xffffffffffffffffffffffffffffffffffffffff\n        /* \"#utility.yul\":77:82   */\n      dup3\n        /* \"#utility.yul\":73:127   */\n      and\n        /* \"#utility.yul\":62:127   */\n      swap1\n      pop\n        /* \"#utility.yul\":7:133   */\n      swap2\n      swap1\n      pop\n      jump\t// out\n        /* \"#utility.yul\":139:235   */\n    tag_279:\n        /* \"#utility.yul\":176:183   */\n      0x00\n        /* \"#utility.yul\":205:229   */\n      tag_331\n        /* \"#utility.yul\":223:228   */\n      dup3\n        /* \"#utility.yul\":205:229   */\n      tag_278\n      jump\t// in\n    tag_331:\n        /* \"#utility.yul\":194:229   */\n      swap1\n      pop\n        /* \"#utility.yul\":139:235   */\n      swap2\n      swap1\n      pop\n      jump\t// out\n        /* \"#utility.yul\":241:359   */\n    tag_280:\n        /* \"#utility.yul\":328:352   */\n      tag_333\n        /* \"#utility.yul\":346:351   */\n      dup2\n        /* \"#utility.yul\":328:352   */\n      tag_279\n      jump\t// in\n    tag_333:\n        /* \"#utility.yul\":323:326   */\n      dup3\n        /* \"#utility.yul\":316:353   */\n      mstore\n        /* \"#utility.yul\":241:359   */\n      pop\n      pop\n      jump\t// out\n        /* \"#utility.yul\":365:587   */\n    tag_32:\n        /* \"#utility.yul\":458:462   */\n      0x00\n        /* \"#utility.yul\":496:498   */\n      0x20\n        /* \"#utility.yul\":485:494   */\n      dup3\n        /* \"#utility.yul\":481:499   */\n      add\n        /* \"#utility.yul\":473:499   */\n      swap1\n      pop\n        /* \"#utility.yul\":509:580   */\n      tag_335\n        /* \"#utility.yul\":577:578   */\n      0x00\n        /* \"#utility.yul\":566:575   */\n      dup4\n        /* \"#utility.yul\":562:579   */\n      add\n        /* \"#utility.yul\":553:559   */\n      dup5\n        /* \"#utility.yul\":509:580   */\n      tag_280\n      jump\t// in\n    tag_335:\n        /* \"#utility.yul\":365:587   */\n      swap3\n      swap2\n      pop\n      pop\n      jump\t// out\n        /* \"#utility.yul\":593:683   */\n    tag_281:\n        /* \"#utility.yul\":627:634   */\n      0x00\n        /* \"#utility.yul\":670:675   */\n      dup2\n        /* \"#utility.yul\":663:676   */\n      iszero\n        /* \"#utility.yul\":656:677   */\n      iszero\n        /* \"#utility.yul\":645:677   */\n      swap1\n      pop\n        /* \"#utility.yul\":593:683   */\n      swap2\n      swap1\n      pop\n      jump\t// out\n        /* \"#utility.yul\":689:798   */\n    tag_282:\n        /* \"#utility.yul\":770:791   */\n      tag_338\n        /* \"#utility.yul\":785:790   */\n      dup2\n        /* \"#utility.yul\":770:791   */\n      tag_281\n      jump\t// in\n    tag_338:\n        /* \"#utility.yul\":765:768   */\n      dup3\n        /* \"#utility.yul\":758:792   */\n      mstore\n        /* \"#utility.yul\":689:798   */\n      pop\n      pop\n      jump\t// out\n        /* \"#utility.yul\":804:1014   */\n    tag_37:\n        /* \"#utility.yul\":891:895   */\n      0x00\n        /* \"#utility.yul\":929:931   */\n      0x20\n        /* \"#utility.yul\":918:927   */\n      dup3\n        /* \"#utility.yul\":914:932   */\n      add\n        /* \"#utility.yul\":906:932   */\n      swap1\n      pop\n        /* \"#utility.yul\":942:1007   */\n      tag_340\n        /* \"#utility.yul\":1004:1005   */\n      0x00\n        /* \"#utility.yul\":993:1002   */\n      dup4\n        /* \"#utility.yul\":989:1006   */\n      add\n        /* \"#utility.yul\":980:986   */\n      dup5\n        /* \"#utility.yul\":942:1007   */\n      tag_282\n      jump\t// in\n    tag_340:\n        /* \"#utility.yul\":804:1014   */\n      swap3\n      swap2\n      pop\n      pop\n      jump\t// out\n        /* \"#utility.yul\":1020:1097   */\n    tag_283:\n        /* \"#utility.yul\":1057:1064   */\n      0x00\n        /* \"#utility.yul\":1086:1091   */\n      dup2\n        /* \"#utility.yul\":1075:1091   */\n      swap1\n      pop\n        /* \"#utility.yul\":1020:1097   */\n      swap2\n      swap1\n      pop\n      jump\t// out\n        /* \"#utility.yul\":1103:1221   */\n    tag_284:\n        /* \"#utility.yul\":1190:1214   */\n      tag_343\n        /* \"#utility.yul\":1208:1213   */\n      dup2\n        /* \"#utility.yul\":1190:1214   */\n      tag_283\n      jump\t// in\n    tag_343:\n        /* \"#utility.yul\":1185:1188   */\n      dup3\n        /* \"#utility.yul\":1178:1215   */\n      mstore\n        /* \"#utility.yul\":1103:1221   */\n      pop\n      pop\n      jump\t// out\n        /* \"#utility.yul\":1227:1449   */\n    tag_42:\n        /* \"#utility.yul\":1320:1324   */\n      0x00\n        /* \"#utility.yul\":1358:1360   */\n      0x20\n        /* \"#utility.yul\":1347:1356   */\n      dup3\n        /* \"#utility.yul\":1343:1361   */\n      add\n        /* \"#utility.yul\":1335:1361   */\n      swap1\n      pop\n        /* \"#utility.yul\":1371:1442   */\n      tag_345\n        /* \"#utility.yul\":1439:1440   */\n      0x00\n        /* \"#utility.yul\":1428:1437   */\n      dup4\n        /* \"#utility.yul\":1424:1441   */\n      add\n        /* \"#utility.yul\":1415:1421   */\n      dup5\n        /* \"#utility.yul\":1371:1442   */\n      tag_284\n      jump\t// in\n    tag_345:\n        /* \"#utility.yul\":1227:1449   */\n      swap3\n      swap2\n      pop\n      pop\n      jump\t// out\n        /* \"#utility.yul\":1455:1624   */\n    tag_285:\n        /* \"#utility.yul\":1539:1550   */\n      0x00\n        /* \"#utility.yul\":1573:1579   */\n      dup3\n        /* \"#utility.yul\":1568:1571   */\n      dup3\n        /* \"#utility.yul\":1561:1580   */\n      mstore\n        /* \"#utility.yul\":1613:1617   */\n      0x20\n        /* \"#utility.yul\":1608:1611   */\n      dup3\n        /* \"#utility.yul\":1604:1618   */\n      add\n        /* \"#utility.yul\":1589:1618   */\n      swap1\n      pop\n        /* \"#utility.yul\":1455:1624   */\n      swap3\n      swap2\n      pop\n      pop\n      jump\t// out\n        /* \"#utility.yul\":1630:1806   */\n    tag_286:\n        /* \"#utility.yul\":1770:1798   */\n      0x4f6e6c79205368796c6f636b206d61792063616c6c2074686973000000000000\n        /* \"#utility.yul\":1766:1767   */\n      0x00\n        /* \"#utility.yul\":1758:1764   */\n      dup3\n        /* \"#utility.yul\":1754:1768   */\n      add\n        /* \"#utility.yul\":1747:1799   */\n      mstore\n        /* \"#utility.yul\":1630:1806   */\n      pop\n      jump\t// out\n        /* \"#utility.yul\":1812:2178   */\n    tag_287:\n        /* \"#utility.yul\":1954:1957   */\n      0x00\n        /* \"#utility.yul\":1975:2042   */\n      tag_349\n        /* \"#utility.yul\":2039:2041   */\n      0x1a\n        /* \"#utility.yul\":2034:2037   */\n      dup4\n        /* \"#utility.yul\":1975:2042   */\n      tag_285\n      jump\t// in\n    tag_349:\n        /* \"#utility.yul\":1968:2042   */\n      swap2\n      pop\n        /* \"#utility.yul\":2051:2144   */\n      tag_350\n        /* \"#utility.yul\":2140:2143   */\n      dup3\n        /* \"#utility.yul\":2051:2144   */\n      tag_286\n      jump\t// in\n    tag_350:\n        /* \"#utility.yul\":2169:2171   */\n      0x20\n        /* \"#utility.yul\":2164:2167   */\n      dup3\n        /* \"#utility.yul\":2160:2172   */\n      add\n        /* \"#utility.yul\":2153:2172   */\n      swap1\n      pop\n        /* \"#utility.yul\":1812:2178   */\n      swap2\n      swap1\n      pop\n      jump\t// out\n        /* \"#utility.yul\":2184:2603   */\n    tag_118:\n        /* \"#utility.yul\":2350:2354   */\n      0x00\n        /* \"#utility.yul\":2388:2390   */\n      0x20\n        /* \"#utility.yul\":2377:2386   */\n      dup3\n        /* \"#utility.yul\":2373:2391   */\n      add\n        /* \"#utility.yul\":2365:2391   */\n      swap1\n      pop\n        /* \"#utility.yul\":2437:2446   */\n      dup2\n        /* \"#utility.yul\":2431:2435   */\n      dup2\n        /* \"#utility.yul\":2427:2447   */\n      sub\n        /* \"#utility.yul\":2423:2424   */\n      0x00\n        /* \"#utility.yul\":2412:2421   */\n      dup4\n        /* \"#utility.yul\":2408:2425   */\n      add\n        /* \"#utility.yul\":2401:2448   */\n      mstore\n        /* \"#utility.yul\":2465:2596   */\n      tag_352\n        /* \"#utility.yul\":2591:2595   */\n      dup2\n        /* \"#utility.yul\":2465:2596   */\n      tag_287\n      jump\t// in\n    tag_352:\n        /* \"#utility.yul\":2457:2596   */\n      swap1\n      pop\n        /* \"#utility.yul\":2184:2603   */\n      swap2\n      swap1\n      pop\n      jump\t// out\n        /* \"#utility.yul\":2609:2783   */\n    tag_288:\n        /* \"#utility.yul\":2749:2775   */\n      0x436f6e747261637420616c726561647920736574746c65640000000000000000\n        /* \"#utility.yul\":2745:2746   */\n      0x00\n        /* \"#utility.yul\":2737:2743   */\n      dup3\n        /* \"#utility.yul\":2733:2747   */\n      add\n        /* \"#utility.yul\":2726:2776   */\n      mstore\n        /* \"#utility.yul\":2609:2783   */\n      pop\n      jump\t// out\n        /* \"#utility.yul\":2789:3155   */\n    tag_289:\n        /* \"#utility.yul\":2931:2934   */\n      0x00\n        /* \"#utility.yul\":2952:3019   */\n      tag_355\n        /* \"#utility.yul\":3016:3018   */\n      0x18\n        /* \"#utility.yul\":3011:3014   */\n      dup4\n        /* \"#utility.yul\":2952:3019   */\n      tag_285\n      jump\t// in\n    tag_355:\n        /* \"#utility.yul\":2945:3019   */\n      swap2\n      pop\n        /* \"#utility.yul\":3028:3121   */\n      tag_356\n        /* \"#utility.yul\":3117:3120   */\n      dup3\n        /* \"#utility.yul\":3028:3121   */\n      tag_288\n      jump\t// in\n    tag_356:\n        /* \"#utility.yul\":3146:3148   */\n      0x20\n        /* \"#utility.yul\":3141:3144   */\n      dup3\n        /* \"#utility.yul\":3137:3149   */\n      add\n        /* \"#utility.yul\":3130:3149   */\n      swap1\n      pop\n        /* \"#utility.yul\":2789:3155   */\n      swap2\n      swap1\n      pop\n      jump\t// out\n        /* \"#utility.yul\":3161:3580   */\n    tag_122:\n        /* \"#utility.yul\":3327:3331   */\n      0x00\n        /* \"#utility.yul\":3365:3367   */\n      0x20\n        /* \"#utility.yul\":3354:3363   */\n      dup3\n        /* \"#utility.yul\":3350:3368   */\n      add\n        /* \"#utility.yul\":3342:3368   */\n      swap1\n      pop\n        /* \"#utility.yul\":3414:3423   */\n      dup2\n        /* \"#utility.yul\":3408:3412   */\n      dup2\n        /* \"#utility.yul\":3404:3424   */\n      sub\n        /* \"#utility.yul\":3400:3401   */\n      0x00\n        /* \"#utility.yul\":3389:3398   */\n      dup4\n        /* \"#utility.yul\":3385:3402   */\n      add\n        /* \"#utility.yul\":3378:3425   */\n      mstore\n        /* \"#utility.yul\":3442:3573   */\n      tag_358\n        /* \"#utility.yul\":3568:3572   */\n      dup2\n        /* \"#utility.yul\":3442:3573   */\n      tag_289\n      jump\t// in\n    tag_358:\n        /* \"#utility.yul\":3434:3573   */\n      swap1\n      pop\n        /* \"#utility.yul\":3161:3580   */\n      swap2\n      swap1\n      pop\n      jump\t// out\n        /* \"#utility.yul\":3586:3764   */\n    tag_290:\n        /* \"#utility.yul\":3726:3756   */\n      0x436f6c6c61746572616c206e6f7420796574206465706f736974656400000000\n        /* \"#utility.yul\":3722:3723   */\n      0x00\n        /* \"#utility.yul\":3714:3720   */\n      dup3\n        /* \"#utility.yul\":3710:3724   */\n      add\n        /* \"#utility.yul\":3703:3757   */\n      mstore\n        /* \"#utility.yul\":3586:3764   */\n      pop\n      jump\t// out\n        /* \"#utility.yul\":3770:4136   */\n    tag_291:\n        /* \"#utility.yul\":3912:3915   */\n      0x00\n        /* \"#utility.yul\":3933:4000   */\n      tag_361\n        /* \"#utility.yul\":3997:3999   */\n      0x1c\n        /* \"#utility.yul\":3992:3995   */\n      dup4\n        /* \"#utility.yul\":3933:4000   */\n      tag_285\n      jump\t// in\n    tag_361:\n        /* \"#utility.yul\":3926:4000   */\n      swap2\n      pop\n        /* \"#utility.yul\":4009:4102   */\n      tag_362\n        /* \"#utility.yul\":4098:4101   */\n      dup3\n        /* \"#utility.yul\":4009:4102   */\n      tag_290\n      jump\t// in\n    tag_362:\n        /* \"#utility.yul\":4127:4129   */\n      0x20\n        /* \"#utility.yul\":4122:4125   */\n      dup3\n        /* \"#utility.yul\":4118:4130   */\n      add\n        /* \"#utility.yul\":4111:4130   */\n      swap1\n      pop\n        /* \"#utility.yul\":3770:4136   */\n      swap2\n      swap1\n      pop\n      jump\t// out\n        /* \"#utility.yul\":4142:4561   */\n    tag_126:\n        /* \"#utility.yul\":4308:4312   */\n      0x00\n        /* \"#utility.yul\":4346:4348   */\n      0x20\n        /* \"#utility.yul\":4335:4344   */\n      dup3\n        /* \"#utility.yul\":4331:4349   */\n      add\n        /* \"#utility.yul\":4323:4349   */\n      swap1\n      pop\n        /* \"#utility.yul\":4395:4404   */\n      dup2\n        /* \"#utility.yul\":4389:4393   */\n      dup2\n        /* \"#utility.yul\":4385:4405   */\n      sub\n        /* \"#utility.yul\":4381:4382   */\n      0x00\n        /* \"#utility.yul\":4370:4379   */\n      dup4\n        /* \"#utility.yul\":4366:4383   */\n      add\n        /* \"#utility.yul\":4359:4406   */\n      mstore\n        /* \"#utility.yul\":4423:4554   */\n      tag_364\n        /* \"#utility.yul\":4549:4553   */\n      dup2\n        /* \"#utility.yul\":4423:4554   */\n      tag_291\n      jump\t// in\n    tag_364:\n        /* \"#utility.yul\":4415:4554   */\n      swap1\n      pop\n        /* \"#utility.yul\":4142:4561   */\n      swap2\n      swap1\n      pop\n      jump\t// out\n        /* \"#utility.yul\":4567:4739   */\n    tag_292:\n        /* \"#utility.yul\":4707:4731   */\n      0x4c6f616e20616c72656164792064697362757273656400000000000000000000\n        /* \"#utility.yul\":4703:4704   */\n      0x00\n        /* \"#utility.yul\":4695:4701   */\n      dup3\n        /* \"#utility.yul\":4691:4705   */\n      add\n        /* \"#utility.yul\":4684:4732   */\n      mstore\n        /* \"#utility.yul\":4567:4739   */\n      pop\n      jump\t// out\n        /* \"#utility.yul\":4745:5111   */\n    tag_293:\n        /* \"#utility.yul\":4887:4890   */\n      0x00\n        /* \"#utility.yul\":4908:4975   */\n      tag_367\n        /* \"#utility.yul\":4972:4974   */\n      0x16\n        /* \"#utility.yul\":4967:4970   */\n      dup4\n        /* \"#utility.yul\":4908:4975   */\n      tag_285\n      jump\t// in\n    tag_367:\n        /* \"#utility.yul\":4901:4975   */\n      swap2\n      pop\n        /* \"#utility.yul\":4984:5077   */\n      tag_368\n        /* \"#utility.yul\":5073:5076   */\n      dup3\n        /* \"#utility.yul\":4984:5077   */\n      tag_292\n      jump\t// in\n    tag_368:\n        /* \"#utility.yul\":5102:5104   */\n      0x20\n        /* \"#utility.yul\":5097:5100   */\n      dup3\n        /* \"#utility.yul\":5093:5105   */\n      add\n        /* \"#utility.yul\":5086:5105   */\n      swap1\n      pop\n        /* \"#utility.yul\":4745:5111   */\n      swap2\n      swap1\n      pop\n      jump\t// out\n        /* \"#utility.yul\":5117:5536   */\n    tag_130:\n        /* \"#utility.yul\":5283:5287   */\n      0x00\n        /* \"#utility.yul\":5321:5323   */\n      0x20\n        /* \"#utility.yul\":5310:5319   */\n      dup3\n        /* \"#utility.yul\":5306:5324   */\n      add\n        /* \"#utility.yul\":5298:5324   */\n      swap1\n      pop\n        /* \"#utility.yul\":5370:5379   */\n      dup2\n        /* \"#utility.yul\":5364:5368   */\n      dup2\n        /* \"#utility.yul\":5360:5380   */\n      sub\n        /* \"#utility.yul\":5356:5357   */\n      0x00\n        /* \"#utility.yul\":5345:5354   */\n      dup4\n        /* \"#utility.yul\":5341:5358   */\n      add\n        /* \"#utility.yul\":5334:5381   */\n      mstore\n        /* \"#utility.yul\":5398:5529   */\n      tag_370\n        /* \"#utility.yul\":5524:5528   */\n      dup2\n        /* \"#utility.yul\":5398:5529   */\n      tag_293\n      jump\t// in\n    tag_370:\n        /* \"#utility.yul\":5390:5529   */\n      swap1\n      pop\n        /* \"#utility.yul\":5117:5536   */\n      swap2\n      swap1\n      pop\n      jump\t// out\n        /* \"#utility.yul\":5542:5722   */\n    tag_294:\n        /* \"#utility.yul\":5682:5714   */\n      0x44697362757273656d656e742077696e646f772068617320636c6f7365640000\n        /* \"#utility.yul\":5678:5679   */\n      0x00\n        /* \"#utility.yul\":5670:5676   */\n      dup3\n        /* \"#utility.yul\":5666:5680   */\n      add\n        /* \"#utility.yul\":5659:5715   */\n      mstore\n        /* \"#utility.yul\":5542:5722   */\n      pop\n      jump\t// out\n        /* \"#utility.yul\":5728:6094   */\n    tag_295:\n        /* \"#utility.yul\":5870:5873   */\n      0x00\n        /* \"#utility.yul\":5891:5958   */\n      tag_373\n        /* \"#utility.yul\":5955:5957   */\n      0x1e\n        /* \"#utility.yul\":5950:5953   */\n      dup4\n        /* \"#utility.yul\":5891:5958   */\n      tag_285\n      jump\t// in\n    tag_373:\n        /* \"#utility.yul\":5884:5958   */\n      swap2\n      pop\n        /* \"#utility.yul\":5967:6060   */\n      tag_374\n        /* \"#utility.yul\":6056:6059   */\n      dup3\n        /* \"#utility.yul\":5967:6060   */\n      tag_294\n      jump\t// in\n    tag_374:\n        /* \"#utility.yul\":6085:6087   */\n      0x20\n        /* \"#utility.yul\":6080:6083   */\n      dup3\n        /* \"#utility.yul\":6076:6088   */\n      add\n        /* \"#utility.yul\":6069:6088   */\n      swap1\n      pop\n        /* \"#utility.yul\":5728:6094   */\n      swap2\n      swap1\n      pop\n      jump\t// out\n        /* \"#utility.yul\":6100:6519   */\n    tag_134:\n        /* \"#utility.yul\":6266:6270   */\n      0x00\n        /* \"#utility.yul\":6304:6306   */\n      0x20\n        /* \"#utility.yul\":6293:6302   */\n      dup3\n        /* \"#utility.yul\":6289:6307   */\n      add\n        /* \"#utility.yul\":6281:6307   */\n      swap1\n      pop\n        /* \"#utility.yul\":6353:6362   */\n      dup2\n        /* \"#utility.yul\":6347:6351   */\n      dup2\n        /* \"#utility.yul\":6343:6363   */\n      sub\n        /* \"#utility.yul\":6339:6340   */\n      0x00\n        /* \"#utility.yul\":6328:6337   */\n      dup4\n        /* \"#utility.yul\":6324:6341   */\n      add\n        /* \"#utility.yul\":6317:6364   */\n      mstore\n        /* \"#utility.yul\":6381:6512   */\n      tag_376\n        /* \"#utility.yul\":6507:6511   */\n      dup2\n        /* \"#utility.yul\":6381:6512   */\n      tag_295\n      jump\t// in\n    tag_376:\n        /* \"#utility.yul\":6373:6512   */\n      swap1\n      pop\n        /* \"#utility.yul\":6100:6519   */\n      swap2\n      swap1\n      pop\n      jump\t// out\n        /* \"#utility.yul\":6525:6689   */\n    tag_296:\n        /* \"#utility.yul\":6665:6681   */\n      0x5265656e7472616e742063616c6c000000000000000000000000000000000000\n        /* \"#utility.yul\":6661:6662   */\n      0x00\n        /* \"#utility.yul\":6653:6659   */\n      dup3\n        /* \"#utility.yul\":6649:6663   */\n      add\n        /* \"#utility.yul\":6642:6682   */\n      mstore\n        /* \"#utility.yul\":6525:6689   */\n      pop\n      jump\t// out\n        /* \"#utility.yul\":6695:7061   */\n    tag_297:\n        /* \"#utility.yul\":6837:6840   */\n      0x00\n        /* \"#utility.yul\":6858:6925   */\n      tag_379\n        /* \"#utility.yul\":6922:6924   */\n      0x0e\n        /* \"#utility.yul\":6917:6920   */\n      dup4\n        /* \"#utility.yul\":6858:6925   */\n      tag_285\n      jump\t// in\n    tag_379:\n        /* \"#utility.yul\":6851:6925   */\n      swap2\n      pop\n        /* \"#utility.yul\":6934:7027   */\n      tag_380\n        /* \"#utility.yul\":7023:7026   */\n      dup3\n        /* \"#utility.yul\":6934:7027   */\n      tag_296\n      jump\t// in\n    tag_380:\n        /* \"#utility.yul\":7052:7054   */\n      0x20\n        /* \"#utility.yul\":7047:7050   */\n      dup3\n        /* \"#utility.yul\":7043:7055   */\n      add\n        /* \"#utility.yul\":7036:7055   */\n      swap1\n      pop\n        /* \"#utility.yul\":6695:7061   */\n      swap2\n      swap1\n      pop\n      jump\t// out\n        /* \"#utility.yul\":7067:7486   */\n    tag_138:\n        /* \"#utility.yul\":7233:7237   */\n      0x00\n        /* \"#utility.yul\":7271:7273   */\n      0x20\n        /* \"#utility.yul\":7260:7269   */\n      dup3\n        /* \"#utility.yul\":7256:7274   */\n      add\n        /* \"#utility.yul\":7248:7274   */\n      swap1\n      pop\n        /* \"#utility.yul\":7320:7329   */\n      dup2\n        /* \"#utility.yul\":7314:7318   */\n      dup2\n        /* \"#utility.yul\":7310:7330   */\n      sub\n        /* \"#utility.yul\":7306:7307   */\n      0x00\n        /* \"#utility.yul\":7295:7304   */\n      dup4\n        /* \"#utility.yul\":7291:7308   */\n      add\n        /* \"#utility.yul\":7284:7331   */\n      mstore\n        /* \"#utility.yul\":7348:7479   */\n      tag_382\n        /* \"#utility.yul\":7474:7478   */\n      dup2\n        /* \"#utility.yul\":7348:7479   */\n      tag_297\n      jump\t// in\n    tag_382:\n        /* \"#utility.yul\":7340:7479   */\n      swap1\n      pop\n        /* \"#utility.yul\":7067:7486   */\n      swap2\n      swap1\n      pop\n      jump\t// out\n        /* \"#utility.yul\":7492:7716   */\n    tag_298:\n        /* \"#utility.yul\":7632:7666   */\n      0x4d7573742064697362757273652065786163746c7920746865206c6f616e2061\n        /* \"#utility.yul\":7628:7629   */\n      0x00\n        /* \"#utility.yul\":7620:7626   */\n      dup3\n        /* \"#utility.yul\":7616:7630   */\n      add\n        /* \"#utility.yul\":7609:7667   */\n      mstore\n        /* \"#utility.yul\":7701:7708   */\n      0x6d6f756e74000000000000000000000000000000000000000000000000000000\n        /* \"#utility.yul\":7696:7698   */\n      0x20\n        /* \"#utility.yul\":7688:7694   */\n      dup3\n        /* \"#utility.yul\":7684:7699   */\n      add\n        /* \"#utility.yul\":7677:7709   */\n      mstore\n        /* \"#utility.yul\":7492:7716   */\n      pop\n      jump\t// out\n        /* \"#utility.yul\":7722:8088   */\n    tag_299:\n        /* \"#utility.yul\":7864:7867   */\n      0x00\n        /* \"#utility.yul\":7885:7952   */\n      tag_385\n        /* \"#utility.yul\":7949:7951   */\n      0x25\n        /* \"#utility.yul\":7944:7947   */\n      dup4\n        /* \"#utility.yul\":7885:7952   */\n      tag_285\n      jump\t// in\n    tag_385:\n        /* \"#utility.yul\":7878:7952   */\n      swap2\n      pop\n        /* \"#utility.yul\":7961:8054   */\n      tag_386\n        /* \"#utility.yul\":8050:8053   */\n      dup3\n        /* \"#utility.yul\":7961:8054   */\n      tag_298\n      jump\t// in\n    tag_386:\n        /* \"#utility.yul\":8079:8081   */\n      0x40\n        /* \"#utility.yul\":8074:8077   */\n      dup3\n        /* \"#utility.yul\":8070:8082   */\n      add\n        /* \"#utility.yul\":8063:8082   */\n      swap1\n      pop\n        /* \"#utility.yul\":7722:8088   */\n      swap2\n      swap1\n      pop\n      jump\t// out\n        /* \"#utility.yul\":8094:8513   */\n    tag_142:\n        /* \"#utility.yul\":8260:8264   */\n      0x00\n        /* \"#utility.yul\":8298:8300   */\n      0x20\n        /* \"#utility.yul\":8287:8296   */\n      dup3\n        /* \"#utility.yul\":8283:8301   */\n      add\n        /* \"#utility.yul\":8275:8301   */\n      swap1\n      pop\n        /* \"#utility.yul\":8347:8356   */\n      dup2\n        /* \"#utility.yul\":8341:8345   */\n      dup2\n        /* \"#utility.yul\":8337:8357   */\n      sub\n        /* \"#utility.yul\":8333:8334   */\n      0x00\n        /* \"#utility.yul\":8322:8331   */\n      dup4\n        /* \"#utility.yul\":8318:8335   */\n      add\n        /* \"#utility.yul\":8311:8358   */\n      mstore\n        /* \"#utility.yul\":8375:8506   */\n      tag_388\n        /* \"#utility.yul\":8501:8505   */\n      dup2\n        /* \"#utility.yul\":8375:8506   */\n      tag_299\n      jump\t// in\n    tag_388:\n        /* \"#utility.yul\":8367:8506   */\n      swap1\n      pop\n        /* \"#utility.yul\":8094:8513   */\n      swap2\n      swap1\n      pop\n      jump\t// out\n        /* \"#utility.yul\":8519:8699   */\n    tag_300:\n        /* \"#utility.yul\":8567:8644   */\n      0x4e487b7100000000000000000000000000000000000000000000000000000000\n        /* \"#utility.yul\":8564:8565   */\n      0x00\n        /* \"#utility.yul\":8557:8645   */\n      mstore\n        /* \"#utility.yul\":8664:8668   */\n      0x11\n        /* \"#utility.yul\":8661:8662   */\n      0x04\n        /* \"#utility.yul\":8654:8669   */\n      mstore\n        /* \"#utility.yul\":8688:8692   */\n      0x24\n        /* \"#utility.yul\":8685:8686   */\n      0x00\n        /* \"#utility.yul\":8678:8693   */\n      revert\n        /* \"#utility.yul\":8705:8896   */\n    tag_144:\n        /* \"#utility.yul\":8745:8748   */\n      0x00\n        /* \"#utility.yul\":8764:8784   */\n      tag_391\n        /* \"#utility.yul\":8782:8783   */\n      dup3\n        /* \"#utility.yul\":8764:8784   */\n      tag_283\n      jump\t// in\n    tag_391:\n        /* \"#utility.yul\":8759:8784   */\n      swap2\n      pop\n        /* \"#utility.yul\":8798:8818   */\n      tag_392\n        /* \"#utility.yul\":8816:8817   */\n      dup4\n        /* \"#utility.yul\":8798:8818   */\n      tag_283\n      jump\t// in\n    tag_392:\n        /* \"#utility.yul\":8793:8818   */\n      swap3\n      pop\n        /* \"#utility.yul\":8841:8842   */\n      dup3\n        /* \"#utility.yul\":8838:8839   */\n      dup3\n        /* \"#utility.yul\":8834:8843   */\n      add\n        /* \"#utility.yul\":8827:8843   */\n      swap1\n      pop\n        /* \"#utility.yul\":8862:8865   */\n      dup1\n        /* \"#utility.yul\":8859:8860   */\n      dup3\n        /* \"#utility.yul\":8856:8866   */\n      gt\n        /* \"#utility.yul\":8853:8889   */\n      iszero\n      tag_393\n      jumpi\n        /* \"#utility.yul\":8869:8887   */\n      tag_394\n      tag_300\n      jump\t// in\n    tag_394:\n        /* \"#utility.yul\":8853:8889   */\n    tag_393:\n        /* \"#utility.yul\":8705:8896   */\n      swap3\n      swap2\n      pop\n      pop\n      jump\t// out\n        /* \"#utility.yul\":8902:9234   */\n    tag_148:\n        /* \"#utility.yul\":9023:9027   */\n      0x00\n        /* \"#utility.yul\":9061:9063   */\n      0x40\n        /* \"#utility.yul\":9050:9059   */\n      dup3\n        /* \"#utility.yul\":9046:9064   */\n      add\n        /* \"#utility.yul\":9038:9064   */\n      swap1\n      pop\n        /* \"#utility.yul\":9074:9145   */\n      tag_396\n        /* \"#utility.yul\":9142:9143   */\n      0x00\n        /* \"#utility.yul\":9131:9140   */\n      dup4\n        /* \"#utility.yul\":9127:9144   */\n      add\n        /* \"#utility.yul\":9118:9124   */\n      dup6\n        /* \"#utility.yul\":9074:9145   */\n      tag_284\n      jump\t// in\n    tag_396:\n        /* \"#utility.yul\":9155:9227   */\n      tag_397\n        /* \"#utility.yul\":9223:9225   */\n      0x20\n        /* \"#utility.yul\":9212:9221   */\n      dup4\n        /* \"#utility.yul\":9208:9226   */\n      add\n        /* \"#utility.yul\":9199:9205   */\n      dup5\n        /* \"#utility.yul\":9155:9227   */\n      tag_284\n      jump\t// in\n    tag_397:\n        /* \"#utility.yul\":8902:9234   */\n      swap4\n      swap3\n      pop\n      pop\n      pop\n      jump\t// out\n        /* \"#utility.yul\":9240:9434   */\n    tag_152:\n        /* \"#utility.yul\":9280:9284   */\n      0x00\n        /* \"#utility.yul\":9300:9320   */\n      tag_399\n        /* \"#utility.yul\":9318:9319   */\n      dup3\n        /* \"#utility.yul\":9300:9320   */\n      tag_283\n      jump\t// in\n    tag_399:\n        /* \"#utility.yul\":9295:9320   */\n      swap2\n      pop\n        /* \"#utility.yul\":9334:9354   */\n      tag_400\n        /* \"#utility.yul\":9352:9353   */\n      dup4\n        /* \"#utility.yul\":9334:9354   */\n      tag_283\n      jump\t// in\n    tag_400:\n        /* \"#utility.yul\":9329:9354   */\n      swap3\n      pop\n        /* \"#utility.yul\":9378:9379   */\n      dup3\n        /* \"#utility.yul\":9375:9376   */\n      dup3\n        /* \"#utility.yul\":9371:9380   */\n      sub\n        /* \"#utility.yul\":9363:9380   */\n      swap1\n      pop\n        /* \"#utility.yul\":9402:9403   */\n      dup2\n        /* \"#utility.yul\":9396:9400   */\n      dup2\n        /* \"#utility.yul\":9393:9404   */\n      gt\n        /* \"#utility.yul\":9390:9427   */\n      iszero\n      tag_401\n      jumpi\n        /* \"#utility.yul\":9407:9425   */\n      tag_402\n      tag_300\n      jump\t// in\n    tag_402:\n        /* \"#utility.yul\":9390:9427   */\n    tag_401:\n        /* \"#utility.yul\":9240:9434   */\n      swap3\n      swap2\n      pop\n      pop\n      jump\t// out\n        /* \"#utility.yul\":9440:9616   */\n    tag_301:\n        /* \"#utility.yul\":9580:9608   */\n      0x4f6e6c7920416e746f6e696f206d61792063616c6c2074686973000000000000\n        /* \"#utility.yul\":9576:9577   */\n      0x00\n        /* \"#utility.yul\":9568:9574   */\n      dup3\n        /* \"#utility.yul\":9564:9578   */\n      add\n        /* \"#utility.yul\":9557:9609   */\n      mstore\n        /* \"#utility.yul\":9440:9616   */\n      pop\n      jump\t// out\n        /* \"#utility.yul\":9622:9988   */\n    tag_302:\n        /* \"#utility.yul\":9764:9767   */\n      0x00\n        /* \"#utility.yul\":9785:9852   */\n      tag_405\n        /* \"#utility.yul\":9849:9851   */\n      0x1a\n        /* \"#utility.yul\":9844:9847   */\n      dup4\n        /* \"#utility.yul\":9785:9852   */\n      tag_285\n      jump\t// in\n    tag_405:\n        /* \"#utility.yul\":9778:9852   */\n      swap2\n      pop\n        /* \"#utility.yul\":9861:9954   */\n      tag_406\n        /* \"#utility.yul\":9950:9953   */\n      dup3\n        /* \"#utility.yul\":9861:9954   */\n      tag_301\n      jump\t// in\n    tag_406:\n        /* \"#utility.yul\":9979:9981   */\n      0x20\n        /* \"#utility.yul\":9974:9977   */\n      dup3\n        /* \"#utility.yul\":9970:9982   */\n      add\n        /* \"#utility.yul\":9963:9982   */\n      swap1\n      pop\n        /* \"#utility.yul\":9622:9988   */\n      swap2\n      swap1\n      pop\n      jump\t// out\n        /* \"#utility.yul\":9994:10413   */\n    tag_156:\n        /* \"#utility.yul\":10160:10164   */\n      0x00\n        /* \"#utility.yul\":10198:10200   */\n      0x20\n        /* \"#utility.yul\":10187:10196   */\n      dup3\n        /* \"#utility.yul\":10183:10201   */\n      add\n        /* \"#utility.yul\":10175:10201   */\n      swap1\n      pop\n        /* \"#utility.yul\":10247:10256   */\n      dup2\n        /* \"#utility.yul\":10241:10245   */\n      dup2\n        /* \"#utility.yul\":10237:10257   */\n      sub\n        /* \"#utility.yul\":10233:10234   */\n      0x00\n        /* \"#utility.yul\":10222:10231   */\n      dup4\n        /* \"#utility.yul\":10218:10235   */\n      add\n        /* \"#utility.yul\":10211:10258   */\n      mstore\n        /* \"#utility.yul\":10275:10406   */\n      tag_408\n        /* \"#utility.yul\":10401:10405   */\n      dup2\n        /* \"#utility.yul\":10275:10406   */\n      tag_302\n      jump\t// in\n    tag_408:\n        /* \"#utility.yul\":10267:10406   */\n      swap1\n      pop\n        /* \"#utility.yul\":9994:10413   */\n      swap2\n      swap1\n      pop\n      jump\t// out\n        /* \"#utility.yul\":10419:10591   */\n    tag_303:\n        /* \"#utility.yul\":10559:10583   */\n      0x4c6f616e206e6f74207965742064697362757273656400000000000000000000\n        /* \"#utility.yul\":10555:10556   */\n      0x00\n        /* \"#utility.yul\":10547:10553   */\n      dup3\n        /* \"#utility.yul\":10543:10557   */\n      add\n        /* \"#utility.yul\":10536:10584   */\n      mstore\n        /* \"#utility.yul\":10419:10591   */\n      pop\n      jump\t// out\n        /* \"#utility.yul\":10597:10963   */\n    tag_304:\n        /* \"#utility.yul\":10739:10742   */\n      0x00\n        /* \"#utility.yul\":10760:10827   */\n      tag_411\n        /* \"#utility.yul\":10824:10826   */\n      0x16\n        /* \"#utility.yul\":10819:10822   */\n      dup4\n        /* \"#utility.yul\":10760:10827   */\n      tag_285\n      jump\t// in\n    tag_411:\n        /* \"#utility.yul\":10753:10827   */\n      swap2\n      pop\n        /* \"#utility.yul\":10836:10929   */\n      tag_412\n        /* \"#utility.yul\":10925:10928   */\n      dup3\n        /* \"#utility.yul\":10836:10929   */\n      tag_303\n      jump\t// in\n    tag_412:\n        /* \"#utility.yul\":10954:10956   */\n      0x20\n        /* \"#utility.yul\":10949:10952   */\n      dup3\n        /* \"#utility.yul\":10945:10957   */\n      add\n        /* \"#utility.yul\":10938:10957   */\n      swap1\n      pop\n        /* \"#utility.yul\":10597:10963   */\n      swap2\n      swap1\n      pop\n      jump\t// out\n        /* \"#utility.yul\":10969:11388   */\n    tag_163:\n        /* \"#utility.yul\":11135:11139   */\n      0x00\n        /* \"#utility.yul\":11173:11175   */\n      0x20\n        /* \"#utility.yul\":11162:11171   */\n      dup3\n        /* \"#utility.yul\":11158:11176   */\n      add\n        /* \"#utility.yul\":11150:11176   */\n      swap1\n      pop\n        /* \"#utility.yul\":11222:11231   */\n      dup2\n        /* \"#utility.yul\":11216:11220   */\n      dup2\n        /* \"#utility.yul\":11212:11232   */\n      sub\n        /* \"#utility.yul\":11208:11209   */\n      0x00\n        /* \"#utility.yul\":11197:11206   */\n      dup4\n        /* \"#utility.yul\":11193:11210   */\n      add\n        /* \"#utility.yul\":11186:11233   */\n      mstore\n        /* \"#utility.yul\":11250:11381   */\n      tag_414\n        /* \"#utility.yul\":11376:11380   */\n      dup2\n        /* \"#utility.yul\":11250:11381   */\n      tag_304\n      jump\t// in\n    tag_414:\n        /* \"#utility.yul\":11242:11381   */\n      swap1\n      pop\n        /* \"#utility.yul\":10969:11388   */\n      swap2\n      swap1\n      pop\n      jump\t// out\n        /* \"#utility.yul\":11394:11571   */\n    tag_305:\n        /* \"#utility.yul\":11534:11563   */\n      0x52657061796d656e742077696e646f772068617320636c6f7365640000000000\n        /* \"#utility.yul\":11530:11531   */\n      0x00\n        /* \"#utility.yul\":11522:11528   */\n      dup3\n        /* \"#utility.yul\":11518:11532   */\n      add\n        /* \"#utility.yul\":11511:11564   */\n      mstore\n        /* \"#utility.yul\":11394:11571   */\n      pop\n      jump\t// out\n        /* \"#utility.yul\":11577:11943   */\n    tag_306:\n        /* \"#utility.yul\":11719:11722   */\n      0x00\n        /* \"#utility.yul\":11740:11807   */\n      tag_417\n        /* \"#utility.yul\":11804:11806   */\n      0x1b\n        /* \"#utility.yul\":11799:11802   */\n      dup4\n        /* \"#utility.yul\":11740:11807   */\n      tag_285\n      jump\t// in\n    tag_417:\n        /* \"#utility.yul\":11733:11807   */\n      swap2\n      pop\n        /* \"#utility.yul\":11816:11909   */\n      tag_418\n        /* \"#utility.yul\":11905:11908   */\n      dup3\n        /* \"#utility.yul\":11816:11909   */\n      tag_305\n      jump\t// in\n    tag_418:\n        /* \"#utility.yul\":11934:11936   */\n      0x20\n        /* \"#utility.yul\":11929:11932   */\n      dup3\n        /* \"#utility.yul\":11925:11937   */\n      add\n        /* \"#utility.yul\":11918:11937   */\n      swap1\n      pop\n        /* \"#utility.yul\":11577:11943   */\n      swap2\n      swap1\n      pop\n      jump\t// out\n        /* \"#utility.yul\":11949:12368   */\n    tag_167:\n        /* \"#utility.yul\":12115:12119   */\n      0x00\n        /* \"#utility.yul\":12153:12155   */\n      0x20\n        /* \"#utility.yul\":12142:12151   */\n      dup3\n        /* \"#utility.yul\":12138:12156   */\n      add\n        /* \"#utility.yul\":12130:12156   */\n      swap1\n      pop\n        /* \"#utility.yul\":12202:12211   */\n      dup2\n        /* \"#utility.yul\":12196:12200   */\n      dup2\n        /* \"#utility.yul\":12192:12212   */\n      sub\n        /* \"#utility.yul\":12188:12189   */\n      0x00\n        /* \"#utility.yul\":12177:12186   */\n      dup4\n        /* \"#utility.yul\":12173:12190   */\n      add\n        /* \"#utility.yul\":12166:12213   */\n      mstore\n        /* \"#utility.yul\":12230:12361   */\n      tag_420\n        /* \"#utility.yul\":12356:12360   */\n      dup2\n        /* \"#utility.yul\":12230:12361   */\n      tag_306\n      jump\t// in\n    tag_420:\n        /* \"#utility.yul\":12222:12361   */\n      swap1\n      pop\n        /* \"#utility.yul\":11949:12368   */\n      swap2\n      swap1\n      pop\n      jump\t// out\n        /* \"#utility.yul\":12374:12595   */\n    tag_307:\n        /* \"#utility.yul\":12514:12548   */\n      0x4d7573742072657061792065786163746c7920746865206c6f616e20616d6f75\n        /* \"#utility.yul\":12510:12511   */\n      0x00\n        /* \"#utility.yul\":12502:12508   */\n      dup3\n        /* \"#utility.yul\":12498:12512   */\n      add\n        /* \"#utility.yul\":12491:12549   */\n      mstore\n        /* \"#utility.yul\":12583:12587   */\n      0x6e74000000000000000000000000000000000000000000000000000000000000\n        /* \"#utility.yul\":12578:12580   */\n      0x20\n        /* \"#utility.yul\":12570:12576   */\n      dup3\n        /* \"#utility.yul\":12566:12581   */\n      add\n        /* \"#utility.yul\":12559:12588   */\n      mstore\n        /* \"#utility.yul\":12374:12595   */\n      pop\n      jump\t// out\n        /* \"#utility.yul\":12601:12967   */\n    tag_308:\n        /* \"#utility.yul\":12743:12746   */\n      0x00\n        /* \"#utility.yul\":12764:12831   */\n      tag_423\n        /* \"#utility.yul\":12828:12830   */\n      0x22\n        /* \"#utility.yul\":12823:12826   */\n      dup4\n        /* \"#utility.yul\":12764:12831   */\n      tag_285\n      jump\t// in\n    tag_423:\n        /* \"#utility.yul\":12757:12831   */\n      swap2\n      pop\n        /* \"#utility.yul\":12840:12933   */\n      tag_424\n        /* \"#utility.yul\":12929:12932   */\n      dup3\n        /* \"#utility.yul\":12840:12933   */\n      tag_307\n      jump\t// in\n    tag_424:\n        /* \"#utility.yul\":12958:12960   */\n      0x40\n        /* \"#utility.yul\":12953:12956   */\n      dup3\n        /* \"#utility.yul\":12949:12961   */\n      add\n        /* \"#utility.yul\":12942:12961   */\n      swap1\n      pop\n        /* \"#utility.yul\":12601:12967   */\n      swap2\n      swap1\n      pop\n      jump\t// out\n        /* \"#utility.yul\":12973:13392   */\n    tag_174:\n        /* \"#utility.yul\":13139:13143   */\n      0x00\n        /* \"#utility.yul\":13177:13179   */\n      0x20\n        /* \"#utility.yul\":13166:13175   */\n      dup3\n        /* \"#utility.yul\":13162:13180   */\n      add\n        /* \"#utility.yul\":13154:13180   */\n      swap1\n      pop\n        /* \"#utility.yul\":13226:13235   */\n      dup2\n        /* \"#utility.yul\":13220:13224   */\n      dup2\n        /* \"#utility.yul\":13216:13236   */\n      sub\n        /* \"#utility.yul\":13212:13213   */\n      0x00\n        /* \"#utility.yul\":13201:13210   */\n      dup4\n        /* \"#utility.yul\":13197:13214   */\n      add\n        /* \"#utility.yul\":13190:13237   */\n      mstore\n        /* \"#utility.yul\":13254:13385   */\n      tag_426\n        /* \"#utility.yul\":13380:13384   */\n      dup2\n        /* \"#utility.yul\":13254:13385   */\n      tag_308\n      jump\t// in\n    tag_426:\n        /* \"#utility.yul\":13246:13385   */\n      swap1\n      pop\n        /* \"#utility.yul\":12973:13392   */\n      swap2\n      swap1\n      pop\n      jump\t// out\n        /* \"#utility.yul\":13398:13573   */\n    tag_309:\n        /* \"#utility.yul\":13538:13565   */\n      0x4465706f7369742077696e646f772068617320636c6f73656400000000000000\n        /* \"#utility.yul\":13534:13535   */\n      0x00\n        /* \"#utility.yul\":13526:13532   */\n      dup3\n        /* \"#utility.yul\":13522:13536   */\n      add\n        /* \"#utility.yul\":13515:13566   */\n      mstore\n        /* \"#utility.yul\":13398:13573   */\n      pop\n      jump\t// out\n        /* \"#utility.yul\":13579:13945   */\n    tag_310:\n        /* \"#utility.yul\":13721:13724   */\n      0x00\n        /* \"#utility.yul\":13742:13809   */\n      tag_429\n        /* \"#utility.yul\":13806:13808   */\n      0x19\n        /* \"#utility.yul\":13801:13804   */\n      dup4\n        /* \"#utility.yul\":13742:13809   */\n      tag_285\n      jump\t// in\n    tag_429:\n        /* \"#utility.yul\":13735:13809   */\n      swap2\n      pop\n        /* \"#utility.yul\":13818:13911   */\n      tag_430\n        /* \"#utility.yul\":13907:13910   */\n      dup3\n        /* \"#utility.yul\":13818:13911   */\n      tag_309\n      jump\t// in\n    tag_430:\n        /* \"#utility.yul\":13936:13938   */\n      0x20\n        /* \"#utility.yul\":13931:13934   */\n      dup3\n        /* \"#utility.yul\":13927:13939   */\n      add\n        /* \"#utility.yul\":13920:13939   */\n      swap1\n      pop\n        /* \"#utility.yul\":13579:13945   */\n      swap2\n      swap1\n      pop\n      jump\t// out\n        /* \"#utility.yul\":13951:14370   */\n    tag_190:\n        /* \"#utility.yul\":14117:14121   */\n      0x00\n        /* \"#utility.yul\":14155:14157   */\n      0x20\n        /* \"#utility.yul\":14144:14153   */\n      dup3\n        /* \"#utility.yul\":14140:14158   */\n      add\n        /* \"#utility.yul\":14132:14158   */\n      swap1\n      pop\n        /* \"#utility.yul\":14204:14213   */\n      dup2\n        /* \"#utility.yul\":14198:14202   */\n      dup2\n        /* \"#utility.yul\":14194:14214   */\n      sub\n        /* \"#utility.yul\":14190:14191   */\n      0x00\n        /* \"#utility.yul\":14179:14188   */\n      dup4\n        /* \"#utility.yul\":14175:14192   */\n      add\n        /* \"#utility.yul\":14168:14215   */\n      mstore\n        /* \"#utility.yul\":14232:14363   */\n      tag_432\n        /* \"#utility.yul\":14358:14362   */\n      dup2\n        /* \"#utility.yul\":14232:14363   */\n      tag_310\n      jump\t// in\n    tag_432:\n        /* \"#utility.yul\":14224:14363   */\n      swap1\n      pop\n        /* \"#utility.yul\":13951:14370   */\n      swap2\n      swap1\n      pop\n      jump\t// out\n        /* \"#utility.yul\":14376:14554   */\n    tag_311:\n        /* \"#utility.yul\":14516:14546   */\n      0x436f6c6c61746572616c20616c7265616479206465706f736974656400000000\n        /* \"#utility.yul\":14512:14513   */\n      0x00\n        /* \"#utility.yul\":14504:14510   */\n      dup3\n        /* \"#utility.yul\":14500:14514   */\n      add\n        /* \"#utility.yul\":14493:14547   */\n      mstore\n        /* \"#utility.yul\":14376:14554   */\n      pop\n      jump\t// out\n        /* \"#utility.yul\":14560:14926   */\n    tag_312:\n        /* \"#utility.yul\":14702:14705   */\n      0x00\n        /* \"#utility.yul\":14723:14790   */\n      tag_435\n        /* \"#utility.yul\":14787:14789   */\n      0x1c\n        /* \"#utility.yul\":14782:14785   */\n      dup4\n        /* \"#utility.yul\":14723:14790   */\n      tag_285\n      jump\t// in\n    tag_435:\n        /* \"#utility.yul\":14716:14790   */\n      swap2\n      pop\n        /* \"#utility.yul\":14799:14892   */\n      tag_436\n        /* \"#utility.yul\":14888:14891   */\n      dup3\n        /* \"#utility.yul\":14799:14892   */\n      tag_311\n      jump\t// in\n    tag_436:\n        /* \"#utility.yul\":14917:14919   */\n      0x20\n        /* \"#utility.yul\":14912:14915   */\n      dup3\n        /* \"#utility.yul\":14908:14920   */\n      add\n        /* \"#utility.yul\":14901:14920   */\n      swap1\n      pop\n        /* \"#utility.yul\":14560:14926   */\n      swap2\n      swap1\n      pop\n      jump\t// out\n        /* \"#utility.yul\":14932:15351   */\n    tag_197:\n        /* \"#utility.yul\":15098:15102   */\n      0x00\n        /* \"#utility.yul\":15136:15138   */\n      0x20\n        /* \"#utility.yul\":15125:15134   */\n      dup3\n        /* \"#utility.yul\":15121:15139   */\n      add\n        /* \"#utility.yul\":15113:15139   */\n      swap1\n      pop\n        /* \"#utility.yul\":15185:15194   */\n      dup2\n        /* \"#utility.yul\":15179:15183   */\n      dup2\n        /* \"#utility.yul\":15175:15195   */\n      sub\n        /* \"#utility.yul\":15171:15172   */\n      0x00\n        /* \"#utility.yul\":15160:15169   */\n      dup4\n        /* \"#utility.yul\":15156:15173   */\n      add\n        /* \"#utility.yul\":15149:15196   */\n      mstore\n        /* \"#utility.yul\":15213:15344   */\n      tag_438\n        /* \"#utility.yul\":15339:15343   */\n      dup2\n        /* \"#utility.yul\":15213:15344   */\n      tag_312\n      jump\t// in\n    tag_438:\n        /* \"#utility.yul\":15205:15344   */\n      swap1\n      pop\n        /* \"#utility.yul\":14932:15351   */\n      swap2\n      swap1\n      pop\n      jump\t// out\n        /* \"#utility.yul\":15357:15586   */\n    tag_313:\n        /* \"#utility.yul\":15497:15531   */\n      0x4d757374206465706f7369742065786163746c7920747769636520746865206c\n        /* \"#utility.yul\":15493:15494   */\n      0x00\n        /* \"#utility.yul\":15485:15491   */\n      dup3\n        /* \"#utility.yul\":15481:15495   */\n      add\n        /* \"#utility.yul\":15474:15532   */\n      mstore\n        /* \"#utility.yul\":15566:15578   */\n      0x6f616e20616d6f756e7400000000000000000000000000000000000000000000\n        /* \"#utility.yul\":15561:15563   */\n      0x20\n        /* \"#utility.yul\":15553:15559   */\n      dup3\n        /* \"#utility.yul\":15549:15564   */\n      add\n        /* \"#utility.yul\":15542:15579   */\n      mstore\n        /* \"#utility.yul\":15357:15586   */\n      pop\n      jump\t// out\n        /* \"#utility.yul\":15592:15958   */\n    tag_314:\n        /* \"#utility.yul\":15734:15737   */\n      0x00\n        /* \"#utility.yul\":15755:15822   */\n      tag_441\n        /* \"#utility.yul\":15819:15821   */\n      0x2a\n        /* \"#utility.yul\":15814:15817   */\n      dup4\n        /* \"#utility.yul\":15755:15822   */\n      tag_285\n      jump\t// in\n    tag_441:\n        /* \"#utility.yul\":15748:15822   */\n      swap2\n      pop\n        /* \"#utility.yul\":15831:15924   */\n      tag_442\n        /* \"#utility.yul\":15920:15923   */\n      dup3\n        /* \"#utility.yul\":15831:15924   */\n      tag_313\n      jump\t// in\n    tag_442:\n        /* \"#utility.yul\":15949:15951   */\n      0x40\n        /* \"#utility.yul\":15944:15947   */\n      dup3\n        /* \"#utility.yul\":15940:15952   */\n      add\n        /* \"#utility.yul\":15933:15952   */\n      swap1\n      pop\n        /* \"#utility.yul\":15592:15958   */\n      swap2\n      swap1\n      pop\n      jump\t// out\n        /* \"#utility.yul\":15964:16383   */\n    tag_200:\n        /* \"#utility.yul\":16130:16134   */\n      0x00\n        /* \"#utility.yul\":16168:16170   */\n      0x20\n        /* \"#utility.yul\":16157:16166   */\n      dup3\n        /* \"#utility.yul\":16153:16171   */\n      add\n        /* \"#utility.yul\":16145:16171   */\n      swap1\n      pop\n        /* \"#utility.yul\":16217:16226   */\n      dup2\n        /* \"#utility.yul\":16211:16215   */\n      dup2\n        /* \"#utility.yul\":16207:16227   */\n      sub\n        /* \"#utility.yul\":16203:16204   */\n      0x00\n        /* \"#utility.yul\":16192:16201   */\n      dup4\n        /* \"#utility.yul\":16188:16205   */\n      add\n        /* \"#utility.yul\":16181:16228   */\n      mstore\n        /* \"#utility.yul\":16245:16376   */\n      tag_444\n        /* \"#utility.yul\":16371:16375   */\n      dup2\n        /* \"#utility.yul\":16245:16376   */\n      tag_314\n      jump\t// in\n    tag_444:\n        /* \"#utility.yul\":16237:16376   */\n      swap1\n      pop\n        /* \"#utility.yul\":15964:16383   */\n      swap2\n      swap1\n      pop\n      jump\t// out\n        /* \"#utility.yul\":16389:16570   */\n    tag_315:\n        /* \"#utility.yul\":16529:16562   */\n      0x52657061796d656e742077696e646f77206e6f742079657420636c6f73656400\n        /* \"#utility.yul\":16525:16526   */\n      0x00\n        /* \"#utility.yul\":16517:16523   */\n      dup3\n        /* \"#utility.yul\":16513:16527   */\n      add\n        /* \"#utility.yul\":16506:16563   */\n      mstore\n        /* \"#utility.yul\":16389:16570   */\n      pop\n      jump\t// out\n        /* \"#utility.yul\":16576:16942   */\n    tag_316:\n        /* \"#utility.yul\":16718:16721   */\n      0x00\n        /* \"#utility.yul\":16739:16806   */\n      tag_447\n        /* \"#utility.yul\":16803:16805   */\n      0x1f\n        /* \"#utility.yul\":16798:16801   */\n      dup4\n        /* \"#utility.yul\":16739:16806   */\n      tag_285\n      jump\t// in\n    tag_447:\n        /* \"#utility.yul\":16732:16806   */\n      swap2\n      pop\n        /* \"#utility.yul\":16815:16908   */\n      tag_448\n        /* \"#utility.yul\":16904:16907   */\n      dup3\n        /* \"#utility.yul\":16815:16908   */\n      tag_315\n      jump\t// in\n    tag_448:\n        /* \"#utility.yul\":16933:16935   */\n      0x20\n        /* \"#utility.yul\":16928:16931   */\n      dup3\n        /* \"#utility.yul\":16924:16936   */\n      add\n        /* \"#utility.yul\":16917:16936   */\n      swap1\n      pop\n        /* \"#utility.yul\":16576:16942   */\n      swap2\n      swap1\n      pop\n      jump\t// out\n        /* \"#utility.yul\":16948:17367   */\n    tag_223:\n        /* \"#utility.yul\":17114:17118   */\n      0x00\n        /* \"#utility.yul\":17152:17154   */\n      0x20\n        /* \"#utility.yul\":17141:17150   */\n      dup3\n        /* \"#utility.yul\":17137:17155   */\n      add\n        /* \"#utility.yul\":17129:17155   */\n      swap1\n      pop\n        /* \"#utility.yul\":17201:17210   */\n      dup2\n        /* \"#utility.yul\":17195:17199   */\n      dup2\n        /* \"#utility.yul\":17191:17211   */\n      sub\n        /* \"#utility.yul\":17187:17188   */\n      0x00\n        /* \"#utility.yul\":17176:17185   */\n      dup4\n        /* \"#utility.yul\":17172:17189   */\n      add\n        /* \"#utility.yul\":17165:17212   */\n      mstore\n        /* \"#utility.yul\":17229:17360   */\n      tag_450\n        /* \"#utility.yul\":17355:17359   */\n      dup2\n        /* \"#utility.yul\":17229:17360   */\n      tag_316\n      jump\t// in\n    tag_450:\n        /* \"#utility.yul\":17221:17360   */\n      swap1\n      pop\n        /* \"#utility.yul\":16948:17367   */\n      swap2\n      swap1\n      pop\n      jump\t// out\n        /* \"#utility.yul\":17373:17548   */\n    tag_317:\n        /* \"#utility.yul\":17513:17540   */\n      0x4465706f7369742077696e646f77207374696c6c206f70656e00000000000000\n        /* \"#utility.yul\":17509:17510   */\n      0x00\n        /* \"#utility.yul\":17501:17507   */\n      dup3\n        /* \"#utility.yul\":17497:17511   */\n      add\n        /* \"#utility.yul\":17490:17541   */\n      mstore\n        /* \"#utility.yul\":17373:17548   */\n      pop\n      jump\t// out\n        /* \"#utility.yul\":17554:17920   */\n    tag_318:\n        /* \"#utility.yul\":17696:17699   */\n      0x00\n        /* \"#utility.yul\":17717:17784   */\n      tag_453\n        /* \"#utility.yul\":17781:17783   */\n      0x19\n        /* \"#utility.yul\":17776:17779   */\n      dup4\n        /* \"#utility.yul\":17717:17784   */\n      tag_285\n      jump\t// in\n    tag_453:\n        /* \"#utility.yul\":17710:17784   */\n      swap2\n      pop\n        /* \"#utility.yul\":17793:17886   */\n      tag_454\n        /* \"#utility.yul\":17882:17885   */\n      dup3\n        /* \"#utility.yul\":17793:17886   */\n      tag_317\n      jump\t// in\n    tag_454:\n        /* \"#utility.yul\":17911:17913   */\n      0x20\n        /* \"#utility.yul\":17906:17909   */\n      dup3\n        /* \"#utility.yul\":17902:17914   */\n      add\n        /* \"#utility.yul\":17895:17914   */\n      swap1\n      pop\n        /* \"#utility.yul\":17554:17920   */\n      swap2\n      swap1\n      pop\n      jump\t// out\n        /* \"#utility.yul\":17926:18345   */\n    tag_239:\n        /* \"#utility.yul\":18092:18096   */\n      0x00\n        /* \"#utility.yul\":18130:18132   */\n      0x20\n        /* \"#utility.yul\":18119:18128   */\n      dup3\n        /* \"#utility.yul\":18115:18133   */\n      add\n        /* \"#utility.yul\":18107:18133   */\n      swap1\n      pop\n        /* \"#utility.yul\":18179:18188   */\n      dup2\n        /* \"#utility.yul\":18173:18177   */\n      dup2\n        /* \"#utility.yul\":18169:18189   */\n      sub\n        /* \"#utility.yul\":18165:18166   */\n      0x00\n        /* \"#utility.yul\":18154:18163   */\n      dup4\n        /* \"#utility.yul\":18150:18167   */\n      add\n        /* \"#utility.yul\":18143:18190   */\n      mstore\n        /* \"#utility.yul\":18207:18338   */\n      tag_456\n        /* \"#utility.yul\":18333:18337   */\n      dup2\n        /* \"#utility.yul\":18207:18338   */\n      tag_318\n      jump\t// in\n    tag_456:\n        /* \"#utility.yul\":18199:18338   */\n      swap1\n      pop\n        /* \"#utility.yul\":17926:18345   */\n      swap2\n      swap1\n      pop\n      jump\t// out\n        /* \"#utility.yul\":18351:18585   */\n    tag_319:\n        /* \"#utility.yul\":18491:18525   */\n      0x436f6c6c61746572616c206465706f736974656420757365207265636c61696d\n        /* \"#utility.yul\":18487:18488   */\n      0x00\n        /* \"#utility.yul\":18479:18485   */\n      dup3\n        /* \"#utility.yul\":18475:18489   */\n      add\n        /* \"#utility.yul\":18468:18526   */\n      mstore\n        /* \"#utility.yul\":18560:18577   */\n      0x436f6c6c61746572616c20706174680000000000000000000000000000000000\n        /* \"#utility.yul\":18555:18557   */\n      0x20\n        /* \"#utility.yul\":18547:18553   */\n      dup3\n        /* \"#utility.yul\":18543:18558   */\n      add\n        /* \"#utility.yul\":18536:18578   */\n      mstore\n        /* \"#utility.yul\":18351:18585   */\n      pop\n      jump\t// out\n        /* \"#utility.yul\":18591:18957   */\n    tag_320:\n        /* \"#utility.yul\":18733:18736   */\n      0x00\n        /* \"#utility.yul\":18754:18821   */\n      tag_459\n        /* \"#utility.yul\":18818:18820   */\n      0x2f\n        /* \"#utility.yul\":18813:18816   */\n      dup4\n        /* \"#utility.yul\":18754:18821   */\n      tag_285\n      jump\t// in\n    tag_459:\n        /* \"#utility.yul\":18747:18821   */\n      swap2\n      pop\n        /* \"#utility.yul\":18830:18923   */\n      tag_460\n        /* \"#utility.yul\":18919:18922   */\n      dup3\n        /* \"#utility.yul\":18830:18923   */\n      tag_319\n      jump\t// in\n    tag_460:\n        /* \"#utility.yul\":18948:18950   */\n      0x40\n        /* \"#utility.yul\":18943:18946   */\n      dup3\n        /* \"#utility.yul\":18939:18951   */\n      add\n        /* \"#utility.yul\":18932:18951   */\n      swap1\n      pop\n        /* \"#utility.yul\":18591:18957   */\n      swap2\n      swap1\n      pop\n      jump\t// out\n        /* \"#utility.yul\":18963:19382   */\n    tag_246:\n        /* \"#utility.yul\":19129:19133   */\n      0x00\n        /* \"#utility.yul\":19167:19169   */\n      0x20\n        /* \"#utility.yul\":19156:19165   */\n      dup3\n        /* \"#utility.yul\":19152:19170   */\n      add\n        /* \"#utility.yul\":19144:19170   */\n      swap1\n      pop\n        /* \"#utility.yul\":19216:19225   */\n      dup2\n        /* \"#utility.yul\":19210:19214   */\n      dup2\n        /* \"#utility.yul\":19206:19226   */\n      sub\n        /* \"#utility.yul\":19202:19203   */\n      0x00\n        /* \"#utility.yul\":19191:19200   */\n      dup4\n        /* \"#utility.yul\":19187:19204   */\n      add\n        /* \"#utility.yul\":19180:19227   */\n      mstore\n        /* \"#utility.yul\":19244:19375   */\n      tag_462\n        /* \"#utility.yul\":19370:19374   */\n      dup2\n        /* \"#utility.yul\":19244:19375   */\n      tag_320\n      jump\t// in\n    tag_462:\n        /* \"#utility.yul\":19236:19375   */\n      swap1\n      pop\n        /* \"#utility.yul\":18963:19382   */\n      swap2\n      swap1\n      pop\n      jump\t// out\n        /* \"#utility.yul\":19388:19568   */\n    tag_321:\n        /* \"#utility.yul\":19528:19560   */\n      0x44697362757273656d656e742077696e646f77207374696c6c206f70656e0000\n        /* \"#utility.yul\":19524:19525   */\n      0x00\n        /* \"#utility.yul\":19516:19522   */\n      dup3\n        /* \"#utility.yul\":19512:19526   */\n      add\n        /* \"#utility.yul\":19505:19561   */\n      mstore\n        /* \"#utility.yul\":19388:19568   */\n      pop\n      jump\t// out\n        /* \"#utility.yul\":19574:19940   */\n    tag_322:\n        /* \"#utility.yul\":19716:19719   */\n      0x00\n        /* \"#utility.yul\":19737:19804   */\n      tag_465\n        /* \"#utility.yul\":19801:19803   */\n      0x1e\n        /* \"#utility.yul\":19796:19799   */\n      dup4\n        /* \"#utility.yul\":19737:19804   */\n      tag_285\n      jump\t// in\n    tag_465:\n        /* \"#utility.yul\":19730:19804   */\n      swap2\n      pop\n        /* \"#utility.yul\":19813:19906   */\n      tag_466\n        /* \"#utility.yul\":19902:19905   */\n      dup3\n        /* \"#utility.yul\":19813:19906   */\n      tag_321\n      jump\t// in\n    tag_466:\n        /* \"#utility.yul\":19931:19933   */\n      0x20\n        /* \"#utility.yul\":19926:19929   */\n      dup3\n        /* \"#utility.yul\":19922:19934   */\n      add\n        /* \"#utility.yul\":19915:19934   */\n      swap1\n      pop\n        /* \"#utility.yul\":19574:19940   */\n      swap2\n      swap1\n      pop\n      jump\t// out\n        /* \"#utility.yul\":19946:20365   */\n    tag_262:\n        /* \"#utility.yul\":20112:20116   */\n      0x00\n        /* \"#utility.yul\":20150:20152   */\n      0x20\n        /* \"#utility.yul\":20139:20148   */\n      dup3\n        /* \"#utility.yul\":20135:20153   */\n      add\n        /* \"#utility.yul\":20127:20153   */\n      swap1\n      pop\n        /* \"#utility.yul\":20199:20208   */\n      dup2\n        /* \"#utility.yul\":20193:20197   */\n      dup2\n        /* \"#utility.yul\":20189:20209   */\n      sub\n        /* \"#utility.yul\":20185:20186   */\n      0x00\n        /* \"#utility.yul\":20174:20183   */\n      dup4\n        /* \"#utility.yul\":20170:20187   */\n      add\n        /* \"#utility.yul\":20163:20210   */\n      mstore\n        /* \"#utility.yul\":20227:20358   */\n      tag_468\n        /* \"#utility.yul\":20353:20357   */\n      dup2\n        /* \"#utility.yul\":20227:20358   */\n      tag_322\n      jump\t// in\n    tag_468:\n        /* \"#utility.yul\":20219:20358   */\n      swap1\n      pop\n        /* \"#utility.yul\":19946:20365   */\n      swap2\n      swap1\n      pop\n      jump\t// out\n        /* \"#utility.yul\":20371:20518   */\n    tag_323:\n        /* \"#utility.yul\":20472:20483   */\n      0x00\n        /* \"#utility.yul\":20509:20512   */\n      dup2\n        /* \"#utility.yul\":20494:20512   */\n      swap1\n      pop\n        /* \"#utility.yul\":20371:20518   */\n      swap3\n      swap2\n      pop\n      pop\n      jump\t// out\n        /* \"#utility.yul\":20524:20638   */\n    tag_324:\n      pop\n      jump\t// out\n        /* \"#utility.yul\":20644:21042   */\n    tag_325:\n        /* \"#utility.yul\":20803:20806   */\n      0x00\n        /* \"#utility.yul\":20824:20907   */\n      tag_472\n        /* \"#utility.yul\":20905:20906   */\n      0x00\n        /* \"#utility.yul\":20900:20903   */\n      dup4\n        /* \"#utility.yul\":20824:20907   */\n      tag_323\n      jump\t// in\n    tag_472:\n        /* \"#utility.yul\":20817:20907   */\n      swap2\n      pop\n        /* \"#utility.yul\":20916:21009   */\n      tag_473\n        /* \"#utility.yul\":21005:21008   */\n      dup3\n        /* \"#utility.yul\":20916:21009   */\n      tag_324\n      jump\t// in\n    tag_473:\n        /* \"#utility.yul\":21034:21035   */\n      0x00\n        /* \"#utility.yul\":21029:21032   */\n      dup3\n        /* \"#utility.yul\":21025:21036   */\n      add\n        /* \"#utility.yul\":21018:21036   */\n      swap1\n      pop\n        /* \"#utility.yul\":20644:21042   */\n      swap2\n      swap1\n      pop\n      jump\t// out\n        /* \"#utility.yul\":21048:21427   */\n    tag_271:\n        /* \"#utility.yul\":21232:21235   */\n      0x00\n        /* \"#utility.yul\":21254:21401   */\n      tag_475\n        /* \"#utility.yul\":21397:21400   */\n      dup3\n        /* \"#utility.yul\":21254:21401   */\n      tag_325\n      jump\t// in\n    tag_475:\n        /* \"#utility.yul\":21247:21401   */\n      swap2\n      pop\n        /* \"#utility.yul\":21418:21421   */\n      dup2\n        /* \"#utility.yul\":21411:21421   */\n      swap1\n      pop\n        /* \"#utility.yul\":21048:21427   */\n      swap2\n      swap1\n      pop\n      jump\t// out\n        /* \"#utility.yul\":21433:21602   */\n    tag_326:\n        /* \"#utility.yul\":21573:21594   */\n      0x455448207472616e73666572206661696c656400000000000000000000000000\n        /* \"#utility.yul\":21569:21570   */\n      0x00\n        /* \"#utility.yul\":21561:21567   */\n      dup3\n        /* \"#utility.yul\":21557:21571   */\n      add\n        /* \"#utility.yul\":21550:21595   */\n      mstore\n        /* \"#utility.yul\":21433:21602   */\n      pop\n      jump\t// out\n        /* \"#utility.yul\":21608:21974   */\n    tag_327:\n        /* \"#utility.yul\":21750:21753   */\n      0x00\n        /* \"#utility.yul\":21771:21838   */\n      tag_478\n        /* \"#utility.yul\":21835:21837   */\n      0x13\n        /* \"#utility.yul\":21830:21833   */\n      dup4\n        /* \"#utility.yul\":21771:21838   */\n      tag_285\n      jump\t// in\n    tag_478:\n        /* \"#utility.yul\":21764:21838   */\n      swap2\n      pop\n        /* \"#utility.yul\":21847:21940   */\n      tag_479\n        /* \"#utility.yul\":21936:21939   */\n      dup3\n        /* \"#utility.yul\":21847:21940   */\n      tag_326\n      jump\t// in\n    tag_479:\n        /* \"#utility.yul\":21965:21967   */\n      0x20\n        /* \"#utility.yul\":21960:21963   */\n      dup3\n        /* \"#utility.yul\":21956:21968   */\n      add\n        /* \"#utility.yul\":21949:21968   */\n      swap1\n      pop\n        /* \"#utility.yul\":21608:21974   */\n      swap2\n      swap1\n      pop\n      jump\t// out\n        /* \"#utility.yul\":21980:22399   */\n    tag_277:\n        /* \"#utility.yul\":22146:22150   */\n      0x00\n        /* \"#utility.yul\":22184:22186   */\n      0x20\n        /* \"#utility.yul\":22173:22182   */\n      dup3\n        /* \"#utility.yul\":22169:22187   */\n      add\n        /* \"#utility.yul\":22161:22187   */\n      swap1\n      pop\n        /* \"#utility.yul\":22233:22242   */\n      dup2\n        /* \"#utility.yul\":22227:22231   */\n      dup2\n        /* \"#utility.yul\":22223:22243   */\n      sub\n        /* \"#utility.yul\":22219:22220   */\n      0x00\n        /* \"#utility.yul\":22208:22217   */\n      dup4\n        /* \"#utility.yul\":22204:22221   */\n      add\n        /* \"#utility.yul\":22197:22244   */\n      mstore\n        /* \"#utility.yul\":22261:22392   */\n      tag_481\n        /* \"#utility.yul\":22387:22391   */\n      dup2\n        /* \"#utility.yul\":22261:22392   */\n      tag_327\n      jump\t// in\n    tag_481:\n        /* \"#utility.yul\":22253:22392   */\n      swap1\n      pop\n        /* \"#utility.yul\":21980:22399   */\n      swap2\n      swap1\n      pop\n      jump\t// out\n\n    auxdata: 0xa264697066735822122084d7236454ddc14bef5ab9650729c4bc0b3dfd4cb5fb5a2507dbf97733d2b49864736f6c63430008220033\n}\n",
				"bytecode": {
					"linkReferences": {},
					"object": "608060405234801561000f575f5ffd5b5060405161289938038061289983398181016040528101906100319190610379565b5f73ffffffffffffffffffffffffffffffffffffffff168573ffffffffffffffffffffffffffffffffffffffff160361009f576040517f08c379a00000000000000000000000000000000000000000000000000000000081526004016100969061044a565b60405180910390fd5b5f84116100e1576040517f08c379a00000000000000000000000000000000000000000000000000000000081526004016100d8906104b2565b60405180910390fd5b5f8311610123576040517f08c379a000000000000000000000000000000000000000000000000000000000815260040161011a9061051a565b60405180910390fd5b5f8211610165576040517f08c379a000000000000000000000000000000000000000000000000000000000815260040161015c906105a8565b60405180910390fd5b5f81116101a7576040517f08c379a000000000000000000000000000000000000000000000000000000000815260040161019e90610636565b60405180910390fd5b335f5f6101000a81548173ffffffffffffffffffffffffffffffffffffffff021916908373ffffffffffffffffffffffffffffffffffffffff1602179055508460015f6101000a81548173ffffffffffffffffffffffffffffffffffffffff021916908373ffffffffffffffffffffffffffffffffffffffff1602179055508360028190555060028461023a9190610681565b600381905550826007819055508160088190555080600981905550824261026191906106c2565b6004819055508473ffffffffffffffffffffffffffffffffffffffff163373ffffffffffffffffffffffffffffffffffffffff167ff7140fc59a3419c7ddb1d0f8dadd2536d111632dc26793137700c8513aa54f60866002886102c49190610681565b6004546040516102d693929190610704565b60405180910390a35050505050610739565b5f5ffd5b5f73ffffffffffffffffffffffffffffffffffffffff82169050919050565b5f610315826102ec565b9050919050565b6103258161030b565b811461032f575f5ffd5b50565b5f815190506103408161031c565b92915050565b5f819050919050565b61035881610346565b8114610362575f5ffd5b50565b5f815190506103738161034f565b92915050565b5f5f5f5f5f60a08688031215610392576103916102e8565b5b5f61039f88828901610332565b95505060206103b088828901610365565b94505060406103c188828901610365565b93505060606103d288828901610365565b92505060806103e388828901610365565b9150509295509295909350565b5f82825260208201905092915050565b7f496e76616c696420416e746f6e696f20616464726573730000000000000000005f82015250565b5f6104346017836103f0565b915061043f82610400565b602082019050919050565b5f6020820190508181035f83015261046181610428565b9050919050565b7f4c6f616e20616d6f756e74206d75737420626520706f736974697665000000005f82015250565b5f61049c601c836103f0565b91506104a782610468565b602082019050919050565b5f6020820190508181035f8301526104c981610490565b9050919050565b7f4465706f7369742077696e646f77206d75737420626520706f736974697665005f82015250565b5f610504601f836103f0565b915061050f826104d0565b602082019050919050565b5f6020820190508181035f830152610531816104f8565b9050919050565b7f44697362757273656d656e742077696e646f77206d75737420626520706f73695f8201527f7469766500000000000000000000000000000000000000000000000000000000602082015250565b5f6105926024836103f0565b915061059d82610538565b604082019050919050565b5f6020820190508181035f8301526105bf81610586565b9050919050565b7f52657061796d656e742077696e646f77206d75737420626520706f73697469765f8201527f6500000000000000000000000000000000000000000000000000000000000000602082015250565b5f6106206021836103f0565b915061062b826105c6565b604082019050919050565b5f6020820190508181035f83015261064d81610614565b9050919050565b7f4e487b71000000000000000000000000000000000000000000000000000000005f52601160045260245ffd5b5f61068b82610346565b915061069683610346565b92508282026106a481610346565b915082820484148315176106bb576106ba610654565b5b5092915050565b5f6106cc82610346565b91506106d783610346565b92508282019050808211156106ef576106ee610654565b5b92915050565b6106fe81610346565b82525050565b5f6060820190506107175f8301866106f5565b61072460208301856106f5565b61073160408301846106f5565b949350505050565b612153806107465f395ff3fe60806040526004361061013f575f3560e01c80636f758140116100b55780639d585f7f1161006e5780639d585f7f146103ad578063b3344db5146103d7578063c7cf748414610401578063ea8a1af014610417578063f09dba951461042d578063f9686e72146104575761013f565b80636f758140146102d1578063829c7197146102db5780638a4709f8146103055780638f7758391461032f57806392d09ceb14610359578063993f35f3146103835761013f565b8063201fa34811610107578063201fa348146101f55780633c03a0991461021f578063402d88831461024957806344e3dff51461025357806361603d891461027d5780636311d06a146102a75761013f565b80630cc0707f1461014357806310812a7d1461016d57806312065fe014610197578063188874bd146101c157806319cc3aaa146101cb575b5f5ffd5b34801561014e575f5ffd5b5061015761046d565b6040516101649190611745565b60405180910390f35b348015610178575f5ffd5b50610181610492565b60405161018e9190611778565b60405180910390f35b3480156101a2575f5ffd5b506101ab6104a5565b6040516101b891906117a9565b60405180910390f35b6101c96104ac565b005b3480156101d6575f5ffd5b506101df6107d1565b6040516101ec91906117a9565b60405180910390f35b348015610200575f5ffd5b506102096107d7565b60405161021691906117a9565b60405180910390f35b34801561022a575f5ffd5b506102336107dd565b60405161024091906117a9565b60405180910390f35b610251610803565b005b34801561025e575f5ffd5b50610267610af2565b6040516102749190611745565b60405180910390f35b348015610288575f5ffd5b50610291610b16565b60405161029e91906117a9565b60405180910390f35b3480156102b2575f5ffd5b506102bb610b1c565b6040516102c89190611778565b60405180910390f35b6102d9610b2e565b005b3480156102e6575f5ffd5b506102ef610e25565b6040516102fc91906117a9565b60405180910390f35b348015610310575f5ffd5b50610319610e67565b60405161032691906117a9565b60405180910390f35b34801561033a575f5ffd5b50610343610e6d565b6040516103509190611778565b60405180910390f35b348015610364575f5ffd5b5061036d610e80565b60405161037a91906117a9565b60405180910390f35b34801561038e575f5ffd5b50610397610e86565b6040516103a491906117a9565b60405180910390f35b3480156103b8575f5ffd5b506103c1610ec7565b6040516103ce91906117a9565b60405180910390f35b3480156103e2575f5ffd5b506103eb610ecd565b6040516103f891906117a9565b60405180910390f35b34801561040c575f5ffd5b50610415610ed3565b005b348015610422575f5ffd5b5061042b61114b565b005b348015610438575f5ffd5b5061044161138a565b60405161044e91906117a9565b60405180910390f35b348015610462575f5ffd5b5061046b611390565b005b60015f9054906101000a900473ffffffffffffffffffffffffffffffffffffffff1681565b600a60019054906101000a900460ff1681565b5f47905090565b5f5f9054906101000a900473ffffffffffffffffffffffffffffffffffffffff1673ffffffffffffffffffffffffffffffffffffffff163373ffffffffffffffffffffffffffffffffffffffff161461053a576040517f08c379a00000000000000000000000000000000000000000000000000000000081526004016105319061181c565b60405180910390fd5b600a60029054906101000a900460ff161561058a576040517f08c379a000000000000000000000000000000000000000000000000000000000815260040161058190611884565b60405180910390fd5b600a5f9054906101000a900460ff166105d8576040517f08c379a00000000000000000000000000000000000000000000000000000000081526004016105cf906118ec565b60405180910390fd5b600a60019054906101000a900460ff1615610628576040517f08c379a000000000000000000000000000000000000000000000000000000000815260040161061f90611954565b60405180910390fd5b60055442111561066d576040517f08c379a0000000000000000000000000000000000000000000000000000000008152600401610664906119bc565b60405180910390fd5b600a60039054906101000a900460ff16156106bd576040517f08c379a00000000000000000000000000000000000000000000000000000000081526004016106b490611a24565b60405180910390fd5b6001600a60036101000a81548160ff021916908315150217905550600254341461071c576040517f08c379a000000000000000000000000000000000000000000000000000000000815260040161071390611ab2565b60405180910390fd5b6001600a60016101000a81548160ff021916908315150217905550600954426107459190611afd565b60068190555061077860015f9054906101000a900473ffffffffffffffffffffffffffffffffffffffff16600254611659565b7fb2e7e42df3fc0061410ecdbb2644b7b36cd803c2c7d9f20515593b59d98b988c6002546006546040516107ad929190611b30565b60405180910390a15f600a60036101000a81548160ff021916908315150217905550565b60065481565b60085481565b5f60045442106107ef575f9050610800565b426004546107fd9190611b57565b90505b90565b60015f9054906101000a900473ffffffffffffffffffffffffffffffffffffffff1673ffffffffffffffffffffffffffffffffffffffff163373ffffffffffffffffffffffffffffffffffffffff1614610892576040517f08c379a000000000000000000000000000000000000000000000000000000000815260040161088990611bd4565b60405180910390fd5b600a60029054906101000a900460ff16156108e2576040517f08c379a00000000000000000000000000000000000000000000000000000000081526004016108d990611884565b60405180910390fd5b600a60019054906101000a900460ff16610931576040517f08c379a000000000000000000000000000000000000000000000000000000000815260040161092890611c3c565b60405180910390fd5b600654421115610976576040517f08c379a000000000000000000000000000000000000000000000000000000000815260040161096d90611ca4565b60405180910390fd5b600a60039054906101000a900460ff16156109c6576040517f08c379a00000000000000000000000000000000000000000000000000000000081526004016109bd90611a24565b60405180910390fd5b6001600a60036101000a81548160ff0219169083151502179055506002543414610a25576040517f08c379a0000000000000000000000000000000000000000000000000000000008152600401610a1c90611d32565b60405180910390fd5b6001600a60026101000a81548160ff021916908315150217905550610a6d60015f9054906101000a900473ffffffffffffffffffffffffffffffffffffffff16600354611659565b610a995f5f9054906101000a900473ffffffffffffffffffffffffffffffffffffffff16600254611659565b7f040cee90ee4799897c30ca04e5feb6fa43dbba9b6d084b4b257cdafd84ba013e600254600354604051610ace929190611b30565b60405180910390a15f600a60036101000a81548160ff021916908315150217905550565b5f5f9054906101000a900473ffffffffffffffffffffffffffffffffffffffff1681565b60045481565b600a5f9054906101000a900460ff1681565b60015f9054906101000a900473ffffffffffffffffffffffffffffffffffffffff1673ffffffffffffffffffffffffffffffffffffffff163373ffffffffffffffffffffffffffffffffffffffff1614610bbd576040517f08c379a0000000000000000000000000000000000000000000000000000000008152600401610bb490611bd4565b60405180910390fd5b600a60029054906101000a900460ff1615610c0d576040517f08c379a0000000000000000000000000000000000000000000000000000000008152600401610c0490611884565b60405180910390fd5b600a60019054906101000a900460ff1615610c5d576040517f08c379a0000000000000000000000000000000000000000000000000000000008152600401610c5490611954565b60405180910390fd5b600454421115610ca2576040517f08c379a0000000000000000000000000000000000000000000000000000000008152600401610c9990611d9a565b60405180910390fd5b600a60039054906101000a900460ff1615610cf2576040517f08c379a0000000000000000000000000000000000000000000000000000000008152600401610ce990611a24565b60405180910390fd5b6001600a60036101000a81548160ff021916908315150217905550600a5f9054906101000a900460ff1615610d5c576040517f08c379a0000000000000000000000000000000000000000000000000000000008152600401610d5390611e02565b60405180910390fd5b6003543414610da0576040517f08c379a0000000000000000000000000000000000000000000000000000000008152600401610d9790611e90565b60405180910390fd5b6001600a5f6101000a81548160ff02191690831515021790555060085442610dc89190611afd565b6005819055507f1d6754727766d56b1fac49ac85a13585c6caab122a19c994e569d16077d462f234600554604051610e01929190611b30565b60405180910390a15f600a60036101000a81548160ff021916908315150217905550565b5f600a60019054906101000a900460ff16610e42575f9050610e64565b6006544210610e53575f9050610e64565b42600654610e619190611b57565b90505b90565b60055481565b600a60029054906101000a900460ff1681565b60035481565b5f600a5f9054906101000a900460ff16610ea2575f9050610ec4565b6005544210610eb3575f9050610ec4565b42600554610ec19190611b57565b90505b90565b60025481565b60075481565b5f5f9054906101000a900473ffffffffffffffffffffffffffffffffffffffff1673ffffffffffffffffffffffffffffffffffffffff163373ffffffffffffffffffffffffffffffffffffffff1614610f61576040517f08c379a0000000000000000000000000000000000000000000000000000000008152600401610f589061181c565b60405180910390fd5b600a60029054906101000a900460ff1615610fb1576040517f08c379a0000000000000000000000000000000000000000000000000000000008152600401610fa890611884565b60405180910390fd5b600a60019054906101000a900460ff16611000576040517f08c379a0000000000000000000000000000000000000000000000000000000008152600401610ff790611c3c565b60405180910390fd5b6006544211611044576040517f08c379a000000000000000000000000000000000000000000000000000000000815260040161103b90611ef8565b60405180910390fd5b600a60039054906101000a900460ff1615611094576040517f08c379a000000000000000000000000000000000000000000000000000000000815260040161108b90611a24565b60405180910390fd5b6001600a60036101000a81548160ff0219169083151502179055506001600a60026101000a81548160ff0219169083151502179055506110f65f5f9054906101000a900473ffffffffffffffffffffffffffffffffffffffff16600354611659565b7f5012a849f7aac3bd3087fbd8fc70d53aa8669f72ad6ed83b0efca0b07c1bd97d60035460405161112791906117a9565b60405180910390a15f600a60036101000a81548160ff021916908315150217905550565b5f5f9054906101000a900473ffffffffffffffffffffffffffffffffffffffff1673ffffffffffffffffffffffffffffffffffffffff163373ffffffffffffffffffffffffffffffffffffffff16146111d9576040517f08c379a00000000000000000000000000000000000000000000000000000000081526004016111d09061181c565b60405180910390fd5b600a60029054906101000a900460ff1615611229576040517f08c379a000000000000000000000000000000000000000000000000000000000815260040161122090611884565b60405180910390fd5b600454421161126d576040517f08c379a000000000000000000000000000000000000000000000000000000000815260040161126490611f60565b60405180910390fd5b600a60039054906101000a900460ff16156112bd576040517f08c379a00000000000000000000000000000000000000000000000000000000081526004016112b490611a24565b60405180910390fd5b6001600a60036101000a81548160ff021916908315150217905550600a5f9054906101000a900460ff1615611327576040517f08c379a000000000000000000000000000000000000000000000000000000000815260040161131e90611fee565b60405180910390fd5b6001600a60026101000a81548160ff0219169083151502179055507fca722985a56cf602f4433af65333d6734bf8a2d80cfb080cb8735d7b133e60e560405160405180910390a15f600a60036101000a81548160ff021916908315150217905550565b60095481565b60015f9054906101000a900473ffffffffffffffffffffffffffffffffffffffff1673ffffffffffffffffffffffffffffffffffffffff163373ffffffffffffffffffffffffffffffffffffffff161461141f576040517f08c379a000000000000000000000000000000000000000000000000000000000815260040161141690611bd4565b60405180910390fd5b600a60029054906101000a900460ff161561146f576040517f08c379a000000000000000000000000000000000000000000000000000000000815260040161146690611884565b60405180910390fd5b600a5f9054906101000a900460ff166114bd576040517f08c379a00000000000000000000000000000000000000000000000000000000081526004016114b4906118ec565b60405180910390fd5b600a60019054906101000a900460ff161561150d576040517f08c379a000000000000000000000000000000000000000000000000000000000815260040161150490611954565b60405180910390fd5b6005544211611551576040517f08c379a000000000000000000000000000000000000000000000000000000000815260040161154890612056565b60405180910390fd5b600a60039054906101000a900460ff16156115a1576040517f08c379a000000000000000000000000000000000000000000000000000000000815260040161159890611a24565b60405180910390fd5b6001600a60036101000a81548160ff0219169083151502179055506001600a60026101000a81548160ff02191690831515021790555061160460015f9054906101000a900473ffffffffffffffffffffffffffffffffffffffff16600354611659565b7f52d70f4b39f417a165362c56d7e7a93fee95660ad90595cc9ebe26f69ddc6e4a60035460405161163591906117a9565b60405180910390a15f600a60036101000a81548160ff021916908315150217905550565b5f8273ffffffffffffffffffffffffffffffffffffffff168260405161167e906120a1565b5f6040518083038185875af1925050503d805f81146116b8576040519150601f19603f3d011682016040523d82523d5f602084013e6116bd565b606091505b5050905080611701576040517f08c379a00000000000000000000000000000000000000000000000000000000081526004016116f8906120ff565b60405180910390fd5b505050565b5f73ffffffffffffffffffffffffffffffffffffffff82169050919050565b5f61172f82611706565b9050919050565b61173f81611725565b82525050565b5f6020820190506117585f830184611736565b92915050565b5f8115159050919050565b6117728161175e565b82525050565b5f60208201905061178b5f830184611769565b92915050565b5f819050919050565b6117a381611791565b82525050565b5f6020820190506117bc5f83018461179a565b92915050565b5f82825260208201905092915050565b7f4f6e6c79205368796c6f636b206d61792063616c6c20746869730000000000005f82015250565b5f611806601a836117c2565b9150611811826117d2565b602082019050919050565b5f6020820190508181035f830152611833816117fa565b9050919050565b7f436f6e747261637420616c726561647920736574746c656400000000000000005f82015250565b5f61186e6018836117c2565b91506118798261183a565b602082019050919050565b5f6020820190508181035f83015261189b81611862565b9050919050565b7f436f6c6c61746572616c206e6f7420796574206465706f7369746564000000005f82015250565b5f6118d6601c836117c2565b91506118e1826118a2565b602082019050919050565b5f6020820190508181035f830152611903816118ca565b9050919050565b7f4c6f616e20616c726561647920646973627572736564000000000000000000005f82015250565b5f61193e6016836117c2565b91506119498261190a565b602082019050919050565b5f6020820190508181035f83015261196b81611932565b9050919050565b7f44697362757273656d656e742077696e646f772068617320636c6f73656400005f82015250565b5f6119a6601e836117c2565b91506119b182611972565b602082019050919050565b5f6020820190508181035f8301526119d38161199a565b9050919050565b7f5265656e7472616e742063616c6c0000000000000000000000000000000000005f82015250565b5f611a0e600e836117c2565b9150611a19826119da565b602082019050919050565b5f6020820190508181035f830152611a3b81611a02565b9050919050565b7f4d7573742064697362757273652065786163746c7920746865206c6f616e20615f8201527f6d6f756e74000000000000000000000000000000000000000000000000000000602082015250565b5f611a9c6025836117c2565b9150611aa782611a42565b604082019050919050565b5f6020820190508181035f830152611ac981611a90565b9050919050565b7f4e487b71000000000000000000000000000000000000000000000000000000005f52601160045260245ffd5b5f611b0782611791565b9150611b1283611791565b9250828201905080821115611b2a57611b29611ad0565b5b92915050565b5f604082019050611b435f83018561179a565b611b50602083018461179a565b9392505050565b5f611b6182611791565b9150611b6c83611791565b9250828203905081811115611b8457611b83611ad0565b5b92915050565b7f4f6e6c7920416e746f6e696f206d61792063616c6c20746869730000000000005f82015250565b5f611bbe601a836117c2565b9150611bc982611b8a565b602082019050919050565b5f6020820190508181035f830152611beb81611bb2565b9050919050565b7f4c6f616e206e6f742079657420646973627572736564000000000000000000005f82015250565b5f611c266016836117c2565b9150611c3182611bf2565b602082019050919050565b5f6020820190508181035f830152611c5381611c1a565b9050919050565b7f52657061796d656e742077696e646f772068617320636c6f73656400000000005f82015250565b5f611c8e601b836117c2565b9150611c9982611c5a565b602082019050919050565b5f6020820190508181035f830152611cbb81611c82565b9050919050565b7f4d7573742072657061792065786163746c7920746865206c6f616e20616d6f755f8201527f6e74000000000000000000000000000000000000000000000000000000000000602082015250565b5f611d1c6022836117c2565b9150611d2782611cc2565b604082019050919050565b5f6020820190508181035f830152611d4981611d10565b9050919050565b7f4465706f7369742077696e646f772068617320636c6f736564000000000000005f82015250565b5f611d846019836117c2565b9150611d8f82611d50565b602082019050919050565b5f6020820190508181035f830152611db181611d78565b9050919050565b7f436f6c6c61746572616c20616c7265616479206465706f7369746564000000005f82015250565b5f611dec601c836117c2565b9150611df782611db8565b602082019050919050565b5f6020820190508181035f830152611e1981611de0565b9050919050565b7f4d757374206465706f7369742065786163746c7920747769636520746865206c5f8201527f6f616e20616d6f756e7400000000000000000000000000000000000000000000602082015250565b5f611e7a602a836117c2565b9150611e8582611e20565b604082019050919050565b5f6020820190508181035f830152611ea781611e6e565b9050919050565b7f52657061796d656e742077696e646f77206e6f742079657420636c6f736564005f82015250565b5f611ee2601f836117c2565b9150611eed82611eae565b602082019050919050565b5f6020820190508181035f830152611f0f81611ed6565b9050919050565b7f4465706f7369742077696e646f77207374696c6c206f70656e000000000000005f82015250565b5f611f4a6019836117c2565b9150611f5582611f16565b602082019050919050565b5f6020820190508181035f830152611f7781611f3e565b9050919050565b7f436f6c6c61746572616c206465706f736974656420757365207265636c61696d5f8201527f436f6c6c61746572616c20706174680000000000000000000000000000000000602082015250565b5f611fd8602f836117c2565b9150611fe382611f7e565b604082019050919050565b5f6020820190508181035f83015261200581611fcc565b9050919050565b7f44697362757273656d656e742077696e646f77207374696c6c206f70656e00005f82015250565b5f612040601e836117c2565b915061204b8261200c565b602082019050919050565b5f6020820190508181035f83015261206d81612034565b9050919050565b5f81905092915050565b50565b5f61208c5f83612074565b91506120978261207e565b5f82019050919050565b5f6120ab82612081565b9150819050919050565b7f455448207472616e73666572206661696c6564000000000000000000000000005f82015250565b5f6120e96013836117c2565b91506120f4826120b5565b602082019050919050565b5f6020820190508181035f830152612116816120dd565b905091905056fea264697066735822122084d7236454ddc14bef5ab9650729c4bc0b3dfd4cb5fb5a2507dbf97733d2b49864736f6c63430008220033",
					"opcodes": "PUSH1 0x80 PUSH1 0x40 MSTORE CALLVALUE DUP1 ISZERO PUSH2 0xF JUMPI PUSH0 PUSH0 REVERT JUMPDEST POP PUSH1 0x40 MLOAD PUSH2 0x2899 CODESIZE SUB DUP1 PUSH2 0x2899 DUP4 CODECOPY DUP2 DUP2 ADD PUSH1 0x40 MSTORE DUP2 ADD SWAP1 PUSH2 0x31 SWAP2 SWAP1 PUSH2 0x379 JUMP JUMPDEST PUSH0 PUSH20 0xFFFFFFFFFFFFFFFFFFFFFFFFFFFFFFFFFFFFFFFF AND DUP6 PUSH20 0xFFFFFFFFFFFFFFFFFFFFFFFFFFFFFFFFFFFFFFFF AND SUB PUSH2 0x9F JUMPI PUSH1 0x40 MLOAD PUSH32 0x8C379A000000000000000000000000000000000000000000000000000000000 DUP2 MSTORE PUSH1 0x4 ADD PUSH2 0x96 SWAP1 PUSH2 0x44A JUMP JUMPDEST PUSH1 0x40 MLOAD DUP1 SWAP2 SUB SWAP1 REVERT JUMPDEST PUSH0 DUP5 GT PUSH2 0xE1 JUMPI PUSH1 0x40 MLOAD PUSH32 0x8C379A000000000000000000000000000000000000000000000000000000000 DUP2 MSTORE PUSH1 0x4 ADD PUSH2 0xD8 SWAP1 PUSH2 0x4B2 JUMP JUMPDEST PUSH1 0x40 MLOAD DUP1 SWAP2 SUB SWAP1 REVERT JUMPDEST PUSH0 DUP4 GT PUSH2 0x123 JUMPI PUSH1 0x40 MLOAD PUSH32 0x8C379A000000000000000000000000000000000000000000000000000000000 DUP2 MSTORE PUSH1 0x4 ADD PUSH2 0x11A SWAP1 PUSH2 0x51A JUMP JUMPDEST PUSH1 0x40 MLOAD DUP1 SWAP2 SUB SWAP1 REVERT JUMPDEST PUSH0 DUP3 GT PUSH2 0x165 JUMPI PUSH1 0x40 MLOAD PUSH32 0x8C379A000000000000000000000000000000000000000000000000000000000 DUP2 MSTORE PUSH1 0x4 ADD PUSH2 0x15C SWAP1 PUSH2 0x5A8 JUMP JUMPDEST PUSH1 0x40 MLOAD DUP1 SWAP2 SUB SWAP1 REVERT JUMPDEST PUSH0 DUP2 GT PUSH2 0x1A7 JUMPI PUSH1 0x40 MLOAD PUSH32 0x8C379A000000000000000000000000000000000000000000000000000000000 DUP2 MSTORE PUSH1 0x4 ADD PUSH2 0x19E SWAP1 PUSH2 0x636 JUMP JUMPDEST PUSH1 0x40 MLOAD DUP1 SWAP2 SUB SWAP1 REVERT JUMPDEST CALLER PUSH0 PUSH0 PUSH2 0x100 EXP DUP2 SLOAD DUP2 PUSH20 0xFFFFFFFFFFFFFFFFFFFFFFFFFFFFFFFFFFFFFFFF MUL NOT AND SWAP1 DUP4 PUSH20 0xFFFFFFFFFFFFFFFFFFFFFFFFFFFFFFFFFFFFFFFF AND MUL OR SWAP1 SSTORE POP DUP5 PUSH1 0x1 PUSH0 PUSH2 0x100 EXP DUP2 SLOAD DUP2 PUSH20 0xFFFFFFFFFFFFFFFFFFFFFFFFFFFFFFFFFFFFFFFF MUL NOT AND SWAP1 DUP4 PUSH20 0xFFFFFFFFFFFFFFFFFFFFFFFFFFFFFFFFFFFFFFFF AND MUL OR SWAP1 SSTORE POP DUP4 PUSH1 0x2 DUP2 SWAP1 SSTORE POP PUSH1 0x2 DUP5 PUSH2 0x23A SWAP2 SWAP1 PUSH2 0x681 JUMP JUMPDEST PUSH1 0x3 DUP2 SWAP1 SSTORE POP DUP3 PUSH1 0x7 DUP2 SWAP1 SSTORE POP DUP2 PUSH1 0x8 DUP2 SWAP1 SSTORE POP DUP1 PUSH1 0x9 DUP2 SWAP1 SSTORE POP DUP3 TIMESTAMP PUSH2 0x261 SWAP2 SWAP1 PUSH2 0x6C2 JUMP JUMPDEST PUSH1 0x4 DUP2 SWAP1 SSTORE POP DUP5 PUSH20 0xFFFFFFFFFFFFFFFFFFFFFFFFFFFFFFFFFFFFFFFF AND CALLER PUSH20 0xFFFFFFFFFFFFFFFFFFFFFFFFFFFFFFFFFFFFFFFF AND PUSH32 0xF7140FC59A3419C7DDB1D0F8DADD2536D111632DC26793137700C8513AA54F60 DUP7 PUSH1 0x2 DUP9 PUSH2 0x2C4 SWAP2 SWAP1 PUSH2 0x681 JUMP JUMPDEST PUSH1 0x4 SLOAD PUSH1 0x40 MLOAD PUSH2 0x2D6 SWAP4 SWAP3 SWAP2 SWAP1 PUSH2 0x704 JUMP JUMPDEST PUSH1 0x40 MLOAD DUP1 SWAP2 SUB SWAP1 LOG3 POP POP POP POP POP PUSH2 0x739 JUMP JUMPDEST PUSH0 PUSH0 REVERT JUMPDEST PUSH0 PUSH20 0xFFFFFFFFFFFFFFFFFFFFFFFFFFFFFFFFFFFFFFFF DUP3 AND SWAP1 POP SWAP2 SWAP1 POP JUMP JUMPDEST PUSH0 PUSH2 0x315 DUP3 PUSH2 0x2EC JUMP JUMPDEST SWAP1 POP SWAP2 SWAP1 POP JUMP JUMPDEST PUSH2 0x325 DUP2 PUSH2 0x30B JUMP JUMPDEST DUP2 EQ PUSH2 0x32F JUMPI PUSH0 PUSH0 REVERT JUMPDEST POP JUMP JUMPDEST PUSH0 DUP2 MLOAD SWAP1 POP PUSH2 0x340 DUP2 PUSH2 0x31C JUMP JUMPDEST SWAP3 SWAP2 POP POP JUMP JUMPDEST PUSH0 DUP2 SWAP1 POP SWAP2 SWAP1 POP JUMP JUMPDEST PUSH2 0x358 DUP2 PUSH2 0x346 JUMP JUMPDEST DUP2 EQ PUSH2 0x362 JUMPI PUSH0 PUSH0 REVERT JUMPDEST POP JUMP JUMPDEST PUSH0 DUP2 MLOAD SWAP1 POP PUSH2 0x373 DUP2 PUSH2 0x34F JUMP JUMPDEST SWAP3 SWAP2 POP POP JUMP JUMPDEST PUSH0 PUSH0 PUSH0 PUSH0 PUSH0 PUSH1 0xA0 DUP7 DUP9 SUB SLT ISZERO PUSH2 0x392 JUMPI PUSH2 0x391 PUSH2 0x2E8 JUMP JUMPDEST JUMPDEST PUSH0 PUSH2 0x39F DUP9 DUP3 DUP10 ADD PUSH2 0x332 JUMP JUMPDEST SWAP6 POP POP PUSH1 0x20 PUSH2 0x3B0 DUP9 DUP3 DUP10 ADD PUSH2 0x365 JUMP JUMPDEST SWAP5 POP POP PUSH1 0x40 PUSH2 0x3C1 DUP9 DUP3 DUP10 ADD PUSH2 0x365 JUMP JUMPDEST SWAP4 POP POP PUSH1 0x60 PUSH2 0x3D2 DUP9 DUP3 DUP10 ADD PUSH2 0x365 JUMP JUMPDEST SWAP3 POP POP PUSH1 0x80 PUSH2 0x3E3 DUP9 DUP3 DUP10 ADD PUSH2 0x365 JUMP JUMPDEST SWAP2 POP POP SWAP3 SWAP6 POP SWAP3 SWAP6 SWAP1 SWAP4 POP JUMP JUMPDEST PUSH0 DUP3 DUP3 MSTORE PUSH1 0x20 DUP3 ADD SWAP1 POP SWAP3 SWAP2 POP POP JUMP JUMPDEST PUSH32 0x496E76616C696420416E746F6E696F2061646472657373000000000000000000 PUSH0 DUP3 ADD MSTORE POP JUMP JUMPDEST PUSH0 PUSH2 0x434 PUSH1 0x17 DUP4 PUSH2 0x3F0 JUMP JUMPDEST SWAP2 POP PUSH2 0x43F DUP3 PUSH2 0x400 JUMP JUMPDEST PUSH1 0x20 DUP3 ADD SWAP1 POP SWAP2 SWAP1 POP JUMP JUMPDEST PUSH0 PUSH1 0x20 DUP3 ADD SWAP1 POP DUP2 DUP2 SUB PUSH0 DUP4 ADD MSTORE PUSH2 0x461 DUP2 PUSH2 0x428 JUMP JUMPDEST SWAP1 POP SWAP2 SWAP1 POP JUMP JUMPDEST PUSH32 0x4C6F616E20616D6F756E74206D75737420626520706F73697469766500000000 PUSH0 DUP3 ADD MSTORE POP JUMP JUMPDEST PUSH0 PUSH2 0x49C PUSH1 0x1C DUP4 PUSH2 0x3F0 JUMP JUMPDEST SWAP2 POP PUSH2 0x4A7 DUP3 PUSH2 0x468 JUMP JUMPDEST PUSH1 0x20 DUP3 ADD SWAP1 POP SWAP2 SWAP1 POP JUMP JUMPDEST PUSH0 PUSH1 0x20 DUP3 ADD SWAP1 POP DUP2 DUP2 SUB PUSH0 DUP4 ADD MSTORE PUSH2 0x4C9 DUP2 PUSH2 0x490 JUMP JUMPDEST SWAP1 POP SWAP2 SWAP1 POP JUMP JUMPDEST PUSH32 0x4465706F7369742077696E646F77206D75737420626520706F73697469766500 PUSH0 DUP3 ADD MSTORE POP JUMP JUMPDEST PUSH0 PUSH2 0x504 PUSH1 0x1F DUP4 PUSH2 0x3F0 JUMP JUMPDEST SWAP2 POP PUSH2 0x50F DUP3 PUSH2 0x4D0 JUMP JUMPDEST PUSH1 0x20 DUP3 ADD SWAP1 POP SWAP2 SWAP1 POP JUMP JUMPDEST PUSH0 PUSH1 0x20 DUP3 ADD SWAP1 POP DUP2 DUP2 SUB PUSH0 DUP4 ADD MSTORE PUSH2 0x531 DUP2 PUSH2 0x4F8 JUMP JUMPDEST SWAP1 POP SWAP2 SWAP1 POP JUMP JUMPDEST PUSH32 0x44697362757273656D656E742077696E646F77206D75737420626520706F7369 PUSH0 DUP3 ADD MSTORE PUSH32 0x7469766500000000000000000000000000000000000000000000000000000000 PUSH1 0x20 DUP3 ADD MSTORE POP JUMP JUMPDEST PUSH0 PUSH2 0x592 PUSH1 0x24 DUP4 PUSH2 0x3F0 JUMP JUMPDEST SWAP2 POP PUSH2 0x59D DUP3 PUSH2 0x538 JUMP JUMPDEST PUSH1 0x40 DUP3 ADD SWAP1 POP SWAP2 SWAP1 POP JUMP JUMPDEST PUSH0 PUSH1 0x20 DUP3 ADD SWAP1 POP DUP2 DUP2 SUB PUSH0 DUP4 ADD MSTORE PUSH2 0x5BF DUP2 PUSH2 0x586 JUMP JUMPDEST SWAP1 POP SWAP2 SWAP1 POP JUMP JUMPDEST PUSH32 0x52657061796D656E742077696E646F77206D75737420626520706F7369746976 PUSH0 DUP3 ADD MSTORE PUSH32 0x6500000000000000000000000000000000000000000000000000000000000000 PUSH1 0x20 DUP3 ADD MSTORE POP JUMP JUMPDEST PUSH0 PUSH2 0x620 PUSH1 0x21 DUP4 PUSH2 0x3F0 JUMP JUMPDEST SWAP2 POP PUSH2 0x62B DUP3 PUSH2 0x5C6 JUMP JUMPDEST PUSH1 0x40 DUP3 ADD SWAP1 POP SWAP2 SWAP1 POP JUMP JUMPDEST PUSH0 PUSH1 0x20 DUP3 ADD SWAP1 POP DUP2 DUP2 SUB PUSH0 DUP4 ADD MSTORE PUSH2 0x64D DUP2 PUSH2 0x614 JUMP JUMPDEST SWAP1 POP SWAP2 SWAP1 POP JUMP JUMPDEST PUSH32 0x4E487B7100000000000000000000000000000000000000000000000000000000 PUSH0 MSTORE PUSH1 0x11 PUSH1 0x4 MSTORE PUSH1 0x24 PUSH0 REVERT JUMPDEST PUSH0 PUSH2 0x68B DUP3 PUSH2 0x346 JUMP JUMPDEST SWAP2 POP PUSH2 0x696 DUP4 PUSH2 0x346 JUMP JUMPDEST SWAP3 POP DUP3 DUP3 MUL PUSH2 0x6A4 DUP2 PUSH2 0x346 JUMP JUMPDEST SWAP2 POP DUP3 DUP3 DIV DUP5 EQ DUP4 ISZERO OR PUSH2 0x6BB JUMPI PUSH2 0x6BA PUSH2 0x654 JUMP JUMPDEST JUMPDEST POP SWAP3 SWAP2 POP POP JUMP JUMPDEST PUSH0 PUSH2 0x6CC DUP3 PUSH2 0x346 JUMP JUMPDEST SWAP2 POP PUSH2 0x6D7 DUP4 PUSH2 0x346 JUMP JUMPDEST SWAP3 POP DUP3 DUP3 ADD SWAP1 POP DUP1 DUP3 GT ISZERO PUSH2 0x6EF JUMPI PUSH2 0x6EE PUSH2 0x654 JUMP JUMPDEST JUMPDEST SWAP3 SWAP2 POP POP JUMP JUMPDEST PUSH2 0x6FE DUP2 PUSH2 0x346 JUMP JUMPDEST DUP3 MSTORE POP POP JUMP JUMPDEST PUSH0 PUSH1 0x60 DUP3 ADD SWAP1 POP PUSH2 0x717 PUSH0 DUP4 ADD DUP7 PUSH2 0x6F5 JUMP JUMPDEST PUSH2 0x724 PUSH1 0x20 DUP4 ADD DUP6 PUSH2 0x6F5 JUMP JUMPDEST PUSH2 0x731 PUSH1 0x40 DUP4 ADD DUP5 PUSH2 0x6F5 JUMP JUMPDEST SWAP5 SWAP4 POP POP POP POP JUMP JUMPDEST PUSH2 0x2153 DUP1 PUSH2 0x746 PUSH0 CODECOPY PUSH0 RETURN INVALID PUSH1 0x80 PUSH1 0x40 MSTORE PUSH1 0x4 CALLDATASIZE LT PUSH2 0x13F JUMPI PUSH0 CALLDATALOAD PUSH1 0xE0 SHR DUP1 PUSH4 0x6F758140 GT PUSH2 0xB5 JUMPI DUP1 PUSH4 0x9D585F7F GT PUSH2 0x6E JUMPI DUP1 PUSH4 0x9D585F7F EQ PUSH2 0x3AD JUMPI DUP1 PUSH4 0xB3344DB5 EQ PUSH2 0x3D7 JUMPI DUP1 PUSH4 0xC7CF7484 EQ PUSH2 0x401 JUMPI DUP1 PUSH4 0xEA8A1AF0 EQ PUSH2 0x417 JUMPI DUP1 PUSH4 0xF09DBA95 EQ PUSH2 0x42D JUMPI DUP1 PUSH4 0xF9686E72 EQ PUSH2 0x457 JUMPI PUSH2 0x13F JUMP JUMPDEST DUP1 PUSH4 0x6F758140 EQ PUSH2 0x2D1 JUMPI DUP1 PUSH4 0x829C7197 EQ PUSH2 0x2DB JUMPI DUP1 PUSH4 0x8A4709F8 EQ PUSH2 0x305 JUMPI DUP1 PUSH4 0x8F775839 EQ PUSH2 0x32F JUMPI DUP1 PUSH4 0x92D09CEB EQ PUSH2 0x359 JUMPI DUP1 PUSH4 0x993F35F3 EQ PUSH2 0x383 JUMPI PUSH2 0x13F JUMP JUMPDEST DUP1 PUSH4 0x201FA348 GT PUSH2 0x107 JUMPI DUP1 PUSH4 0x201FA348 EQ PUSH2 0x1F5 JUMPI DUP1 PUSH4 0x3C03A099 EQ PUSH2 0x21F JUMPI DUP1 PUSH4 0x402D8883 EQ PUSH2 0x249 JUMPI DUP1 PUSH4 0x44E3DFF5 EQ PUSH2 0x253 JUMPI DUP1 PUSH4 0x61603D89 EQ PUSH2 0x27D JUMPI DUP1 PUSH4 0x6311D06A EQ PUSH2 0x2A7 JUMPI PUSH2 0x13F JUMP JUMPDEST DUP1 PUSH4 0xCC0707F EQ PUSH2 0x143 JUMPI DUP1 PUSH4 0x10812A7D EQ PUSH2 0x16D JUMPI DUP1 PUSH4 0x12065FE0 EQ PUSH2 0x197 JUMPI DUP1 PUSH4 0x188874BD EQ PUSH2 0x1C1 JUMPI DUP1 PUSH4 0x19CC3AAA EQ PUSH2 0x1CB JUMPI JUMPDEST PUSH0 PUSH0 REVERT JUMPDEST CALLVALUE DUP1 ISZERO PUSH2 0x14E JUMPI PUSH0 PUSH0 REVERT JUMPDEST POP PUSH2 0x157 PUSH2 0x46D JUMP JUMPDEST PUSH1 0x40 MLOAD PUSH2 0x164 SWAP2 SWAP1 PUSH2 0x1745 JUMP JUMPDEST PUSH1 0x40 MLOAD DUP1 SWAP2 SUB SWAP1 RETURN JUMPDEST CALLVALUE DUP1 ISZERO PUSH2 0x178 JUMPI PUSH0 PUSH0 REVERT JUMPDEST POP PUSH2 0x181 PUSH2 0x492 JUMP JUMPDEST PUSH1 0x40 MLOAD PUSH2 0x18E SWAP2 SWAP1 PUSH2 0x1778 JUMP JUMPDEST PUSH1 0x40 MLOAD DUP1 SWAP2 SUB SWAP1 RETURN JUMPDEST CALLVALUE DUP1 ISZERO PUSH2 0x1A2 JUMPI PUSH0 PUSH0 REVERT JUMPDEST POP PUSH2 0x1AB PUSH2 0x4A5 JUMP JUMPDEST PUSH1 0x40 MLOAD PUSH2 0x1B8 SWAP2 SWAP1 PUSH2 0x17A9 JUMP JUMPDEST PUSH1 0x40 MLOAD DUP1 SWAP2 SUB SWAP1 RETURN JUMPDEST PUSH2 0x1C9 PUSH2 0x4AC JUMP JUMPDEST STOP JUMPDEST CALLVALUE DUP1 ISZERO PUSH2 0x1D6 JUMPI PUSH0 PUSH0 REVERT JUMPDEST POP PUSH2 0x1DF PUSH2 0x7D1 JUMP JUMPDEST PUSH1 0x40 MLOAD PUSH2 0x1EC SWAP2 SWAP1 PUSH2 0x17A9 JUMP JUMPDEST PUSH1 0x40 MLOAD DUP1 SWAP2 SUB SWAP1 RETURN JUMPDEST CALLVALUE DUP1 ISZERO PUSH2 0x200 JUMPI PUSH0 PUSH0 REVERT JUMPDEST POP PUSH2 0x209 PUSH2 0x7D7 JUMP JUMPDEST PUSH1 0x40 MLOAD PUSH2 0x216 SWAP2 SWAP1 PUSH2 0x17A9 JUMP JUMPDEST PUSH1 0x40 MLOAD DUP1 SWAP2 SUB SWAP1 RETURN JUMPDEST CALLVALUE DUP1 ISZERO PUSH2 0x22A JUMPI PUSH0 PUSH0 REVERT JUMPDEST POP PUSH2 0x233 PUSH2 0x7DD JUMP JUMPDEST PUSH1 0x40 MLOAD PUSH2 0x240 SWAP2 SWAP1 PUSH2 0x17A9 JUMP JUMPDEST PUSH1 0x40 MLOAD DUP1 SWAP2 SUB SWAP1 RETURN JUMPDEST PUSH2 0x251 PUSH2 0x803 JUMP JUMPDEST STOP JUMPDEST CALLVALUE DUP1 ISZERO PUSH2 0x25E JUMPI PUSH0 PUSH0 REVERT JUMPDEST POP PUSH2 0x267 PUSH2 0xAF2 JUMP JUMPDEST PUSH1 0x40 MLOAD PUSH2 0x274 SWAP2 SWAP1 PUSH2 0x1745 JUMP JUMPDEST PUSH1 0x40 MLOAD DUP1 SWAP2 SUB SWAP1 RETURN JUMPDEST CALLVALUE DUP1 ISZERO PUSH2 0x288 JUMPI PUSH0 PUSH0 REVERT JUMPDEST POP PUSH2 0x291 PUSH2 0xB16 JUMP JUMPDEST PUSH1 0x40 MLOAD PUSH2 0x29E SWAP2 SWAP1 PUSH2 0x17A9 JUMP JUMPDEST PUSH1 0x40 MLOAD DUP1 SWAP2 SUB SWAP1 RETURN JUMPDEST CALLVALUE DUP1 ISZERO PUSH2 0x2B2 JUMPI PUSH0 PUSH0 REVERT JUMPDEST POP PUSH2 0x2BB PUSH2 0xB1C JUMP JUMPDEST PUSH1 0x40 MLOAD PUSH2 0x2C8 SWAP2 SWAP1 PUSH2 0x1778 JUMP JUMPDEST PUSH1 0x40 MLOAD DUP1 SWAP2 SUB SWAP1 RETURN JUMPDEST PUSH2 0x2D9 PUSH2 0xB2E JUMP JUMPDEST STOP JUMPDEST CALLVALUE DUP1 ISZERO PUSH2 0x2E6 JUMPI PUSH0 PUSH0 REVERT JUMPDEST POP PUSH2 0x2EF PUSH2 0xE25 JUMP JUMPDEST PUSH1 0x40 MLOAD PUSH2 0x2FC SWAP2 SWAP1 PUSH2 0x17A9 JUMP JUMPDEST PUSH1 0x40 MLOAD DUP1 SWAP2 SUB SWAP1 RETURN JUMPDEST CALLVALUE DUP1 ISZERO PUSH2 0x310 JUMPI PUSH0 PUSH0 REVERT JUMPDEST POP PUSH2 0x319 PUSH2 0xE67 JUMP JUMPDEST PUSH1 0x40 MLOAD PUSH2 0x326 SWAP2 SWAP1 PUSH2 0x17A9 JUMP JUMPDEST PUSH1 0x40 MLOAD DUP1 SWAP2 SUB SWAP1 RETURN JUMPDEST CALLVALUE DUP1 ISZERO PUSH2 0x33A JUMPI PUSH0 PUSH0 REVERT JUMPDEST POP PUSH2 0x343 PUSH2 0xE6D JUMP JUMPDEST PUSH1 0x40 MLOAD PUSH2 0x350 SWAP2 SWAP1 PUSH2 0x1778 JUMP JUMPDEST PUSH1 0x40 MLOAD DUP1 SWAP2 SUB SWAP1 RETURN JUMPDEST CALLVALUE DUP1 ISZERO PUSH2 0x364 JUMPI PUSH0 PUSH0 REVERT JUMPDEST POP PUSH2 0x36D PUSH2 0xE80 JUMP JUMPDEST PUSH1 0x40 MLOAD PUSH2 0x37A SWAP2 SWAP1 PUSH2 0x17A9 JUMP JUMPDEST PUSH1 0x40 MLOAD DUP1 SWAP2 SUB SWAP1 RETURN JUMPDEST CALLVALUE DUP1 ISZERO PUSH2 0x38E JUMPI PUSH0 PUSH0 REVERT JUMPDEST POP PUSH2 0x397 PUSH2 0xE86 JUMP JUMPDEST PUSH1 0x40 MLOAD PUSH2 0x3A4 SWAP2 SWAP1 PUSH2 0x17A9 JUMP JUMPDEST PUSH1 0x40 MLOAD DUP1 SWAP2 SUB SWAP1 RETURN JUMPDEST CALLVALUE DUP1 ISZERO PUSH2 0x3B8 JUMPI PUSH0 PUSH0 REVERT JUMPDEST POP PUSH2 0x3C1 PUSH2 0xEC7 JUMP JUMPDEST PUSH1 0x40 MLOAD PUSH2 0x3CE SWAP2 SWAP1 PUSH2 0x17A9 JUMP JUMPDEST PUSH1 0x40 MLOAD DUP1 SWAP2 SUB SWAP1 RETURN JUMPDEST CALLVALUE DUP1 ISZERO PUSH2 0x3E2 JUMPI PUSH0 PUSH0 REVERT JUMPDEST POP PUSH2 0x3EB PUSH2 0xECD JUMP JUMPDEST PUSH1 0x40 MLOAD PUSH2 0x3F8 SWAP2 SWAP1 PUSH2 0x17A9 JUMP JUMPDEST PUSH1 0x40 MLOAD DUP1 SWAP2 SUB SWAP1 RETURN JUMPDEST CALLVALUE DUP1 ISZERO PUSH2 0x40C JUMPI PUSH0 PUSH0 REVERT JUMPDEST POP PUSH2 0x415 PUSH2 0xED3 JUMP JUMPDEST STOP JUMPDEST CALLVALUE DUP1 ISZERO PUSH2 0x422 JUMPI PUSH0 PUSH0 REVERT JUMPDEST POP PUSH2 0x42B PUSH2 0x114B JUMP JUMPDEST STOP JUMPDEST CALLVALUE DUP1 ISZERO PUSH2 0x438 JUMPI PUSH0 PUSH0 REVERT JUMPDEST POP PUSH2 0x441 PUSH2 0x138A JUMP JUMPDEST PUSH1 0x40 MLOAD PUSH2 0x44E SWAP2 SWAP1 PUSH2 0x17A9 JUMP JUMPDEST PUSH1 0x40 MLOAD DUP1 SWAP2 SUB SWAP1 RETURN JUMPDEST CALLVALUE DUP1 ISZERO PUSH2 0x462 JUMPI PUSH0 PUSH0 REVERT JUMPDEST POP PUSH2 0x46B PUSH2 0x1390 JUMP JUMPDEST STOP JUMPDEST PUSH1 0x1 PUSH0 SWAP1 SLOAD SWAP1 PUSH2 0x100 EXP SWAP1 DIV PUSH20 0xFFFFFFFFFFFFFFFFFFFFFFFFFFFFFFFFFFFFFFFF AND DUP2 JUMP JUMPDEST PUSH1 0xA PUSH1 0x1 SWAP1 SLOAD SWAP1 PUSH2 0x100 EXP SWAP1 DIV PUSH1 0xFF AND DUP2 JUMP JUMPDEST PUSH0 SELFBALANCE SWAP1 POP SWAP1 JUMP JUMPDEST PUSH0 PUSH0 SWAP1 SLOAD SWAP1 PUSH2 0x100 EXP SWAP1 DIV PUSH20 0xFFFFFFFFFFFFFFFFFFFFFFFFFFFFFFFFFFFFFFFF AND PUSH20 0xFFFFFFFFFFFFFFFFFFFFFFFFFFFFFFFFFFFFFFFF AND CALLER PUSH20 0xFFFFFFFFFFFFFFFFFFFFFFFFFFFFFFFFFFFFFFFF AND EQ PUSH2 0x53A JUMPI PUSH1 0x40 MLOAD PUSH32 0x8C379A000000000000000000000000000000000000000000000000000000000 DUP2 MSTORE PUSH1 0x4 ADD PUSH2 0x531 SWAP1 PUSH2 0x181C JUMP JUMPDEST PUSH1 0x40 MLOAD DUP1 SWAP2 SUB SWAP1 REVERT JUMPDEST PUSH1 0xA PUSH1 0x2 SWAP1 SLOAD SWAP1 PUSH2 0x100 EXP SWAP1 DIV PUSH1 0xFF AND ISZERO PUSH2 0x58A JUMPI PUSH1 0x40 MLOAD PUSH32 0x8C379A000000000000000000000000000000000000000000000000000000000 DUP2 MSTORE PUSH1 0x4 ADD PUSH2 0x581 SWAP1 PUSH2 0x1884 JUMP JUMPDEST PUSH1 0x40 MLOAD DUP1 SWAP2 SUB SWAP1 REVERT JUMPDEST PUSH1 0xA PUSH0 SWAP1 SLOAD SWAP1 PUSH2 0x100 EXP SWAP1 DIV PUSH1 0xFF AND PUSH2 0x5D8 JUMPI PUSH1 0x40 MLOAD PUSH32 0x8C379A000000000000000000000000000000000000000000000000000000000 DUP2 MSTORE PUSH1 0x4 ADD PUSH2 0x5CF SWAP1 PUSH2 0x18EC JUMP JUMPDEST PUSH1 0x40 MLOAD DUP1 SWAP2 SUB SWAP1 REVERT JUMPDEST PUSH1 0xA PUSH1 0x1 SWAP1 SLOAD SWAP1 PUSH2 0x100 EXP SWAP1 DIV PUSH1 0xFF AND ISZERO PUSH2 0x628 JUMPI PUSH1 0x40 MLOAD PUSH32 0x8C379A000000000000000000000000000000000000000000000000000000000 DUP2 MSTORE PUSH1 0x4 ADD PUSH2 0x61F SWAP1 PUSH2 0x1954 JUMP JUMPDEST PUSH1 0x40 MLOAD DUP1 SWAP2 SUB SWAP1 REVERT JUMPDEST PUSH1 0x5 SLOAD TIMESTAMP GT ISZERO PUSH2 0x66D JUMPI PUSH1 0x40 MLOAD PUSH32 0x8C379A000000000000000000000000000000000000000000000000000000000 DUP2 MSTORE PUSH1 0x4 ADD PUSH2 0x664 SWAP1 PUSH2 0x19BC JUMP JUMPDEST PUSH1 0x40 MLOAD DUP1 SWAP2 SUB SWAP1 REVERT JUMPDEST PUSH1 0xA PUSH1 0x3 SWAP1 SLOAD SWAP1 PUSH2 0x100 EXP SWAP1 DIV PUSH1 0xFF AND ISZERO PUSH2 0x6BD JUMPI PUSH1 0x40 MLOAD PUSH32 0x8C379A000000000000000000000000000000000000000000000000000000000 DUP2 MSTORE PUSH1 0x4 ADD PUSH2 0x6B4 SWAP1 PUSH2 0x1A24 JUMP JUMPDEST PUSH1 0x40 MLOAD DUP1 SWAP2 SUB SWAP1 REVERT JUMPDEST PUSH1 0x1 PUSH1 0xA PUSH1 0x3 PUSH2 0x100 EXP DUP2 SLOAD DUP2 PUSH1 0xFF MUL NOT AND SWAP1 DUP4 ISZERO ISZERO MUL OR SWAP1 SSTORE POP PUSH1 0x2 SLOAD CALLVALUE EQ PUSH2 0x71C JUMPI PUSH1 0x40 MLOAD PUSH32 0x8C379A000000000000000000000000000000000000000000000000000000000 DUP2 MSTORE PUSH1 0x4 ADD PUSH2 0x713 SWAP1 PUSH2 0x1AB2 JUMP JUMPDEST PUSH1 0x40 MLOAD DUP1 SWAP2 SUB SWAP1 REVERT JUMPDEST PUSH1 0x1 PUSH1 0xA PUSH1 0x1 PUSH2 0x100 EXP DUP2 SLOAD DUP2 PUSH1 0xFF MUL NOT AND SWAP1 DUP4 ISZERO ISZERO MUL OR SWAP1 SSTORE POP PUSH1 0x9 SLOAD TIMESTAMP PUSH2 0x745 SWAP2 SWAP1 PUSH2 0x1AFD JUMP JUMPDEST PUSH1 0x6 DUP2 SWAP1 SSTORE POP PUSH2 0x778 PUSH1 0x1 PUSH0 SWAP1 SLOAD SWAP1 PUSH2 0x100 EXP SWAP1 DIV PUSH20 0xFFFFFFFFFFFFFFFFFFFFFFFFFFFFFFFFFFFFFFFF AND PUSH1 0x2 SLOAD PUSH2 0x1659 JUMP JUMPDEST PUSH32 0xB2E7E42DF3FC0061410ECDBB2644B7B36CD803C2C7D9F20515593B59D98B988C PUSH1 0x2 SLOAD PUSH1 0x6 SLOAD PUSH1 0x40 MLOAD PUSH2 0x7AD SWAP3 SWAP2 SWAP1 PUSH2 0x1B30 JUMP JUMPDEST PUSH1 0x40 MLOAD DUP1 SWAP2 SUB SWAP1 LOG1 PUSH0 PUSH1 0xA PUSH1 0x3 PUSH2 0x100 EXP DUP2 SLOAD DUP2 PUSH1 0xFF MUL NOT AND SWAP1 DUP4 ISZERO ISZERO MUL OR SWAP1 SSTORE POP JUMP JUMPDEST PUSH1 0x6 SLOAD DUP2 JUMP JUMPDEST PUSH1 0x8 SLOAD DUP2 JUMP JUMPDEST PUSH0 PUSH1 0x4 SLOAD TIMESTAMP LT PUSH2 0x7EF JUMPI PUSH0 SWAP1 POP PUSH2 0x800 JUMP JUMPDEST TIMESTAMP PUSH1 0x4 SLOAD PUSH2 0x7FD SWAP2 SWAP1 PUSH2 0x1B57 JUMP JUMPDEST SWAP1 POP JUMPDEST SWAP1 JUMP JUMPDEST PUSH1 0x1 PUSH0 SWAP1 SLOAD SWAP1 PUSH2 0x100 EXP SWAP1 DIV PUSH20 0xFFFFFFFFFFFFFFFFFFFFFFFFFFFFFFFFFFFFFFFF AND PUSH20 0xFFFFFFFFFFFFFFFFFFFFFFFFFFFFFFFFFFFFFFFF AND CALLER PUSH20 0xFFFFFFFFFFFFFFFFFFFFFFFFFFFFFFFFFFFFFFFF AND EQ PUSH2 0x892 JUMPI PUSH1 0x40 MLOAD PUSH32 0x8C379A000000000000000000000000000000000000000000000000000000000 DUP2 MSTORE PUSH1 0x4 ADD PUSH2 0x889 SWAP1 PUSH2 0x1BD4 JUMP JUMPDEST PUSH1 0x40 MLOAD DUP1 SWAP2 SUB SWAP1 REVERT JUMPDEST PUSH1 0xA PUSH1 0x2 SWAP1 SLOAD SWAP1 PUSH2 0x100 EXP SWAP1 DIV PUSH1 0xFF AND ISZERO PUSH2 0x8E2 JUMPI PUSH1 0x40 MLOAD PUSH32 0x8C379A000000000000000000000000000000000000000000000000000000000 DUP2 MSTORE PUSH1 0x4 ADD PUSH2 0x8D9 SWAP1 PUSH2 0x1884 JUMP JUMPDEST PUSH1 0x40 MLOAD DUP1 SWAP2 SUB SWAP1 REVERT JUMPDEST PUSH1 0xA PUSH1 0x1 SWAP1 SLOAD SWAP1 PUSH2 0x100 EXP SWAP1 DIV PUSH1 0xFF AND PUSH2 0x931 JUMPI PUSH1 0x40 MLOAD PUSH32 0x8C379A000000000000000000000000000000000000000000000000000000000 DUP2 MSTORE PUSH1 0x4 ADD PUSH2 0x928 SWAP1 PUSH2 0x1C3C JUMP JUMPDEST PUSH1 0x40 MLOAD DUP1 SWAP2 SUB SWAP1 REVERT JUMPDEST PUSH1 0x6 SLOAD TIMESTAMP GT ISZERO PUSH2 0x976 JUMPI PUSH1 0x40 MLOAD PUSH32 0x8C379A000000000000000000000000000000000000000000000000000000000 DUP2 MSTORE PUSH1 0x4 ADD PUSH2 0x96D SWAP1 PUSH2 0x1CA4 JUMP JUMPDEST PUSH1 0x40 MLOAD DUP1 SWAP2 SUB SWAP1 REVERT JUMPDEST PUSH1 0xA PUSH1 0x3 SWAP1 SLOAD SWAP1 PUSH2 0x100 EXP SWAP1 DIV PUSH1 0xFF AND ISZERO PUSH2 0x9C6 JUMPI PUSH1 0x40 MLOAD PUSH32 0x8C379A000000000000000000000000000000000000000000000000000000000 DUP2 MSTORE PUSH1 0x4 ADD PUSH2 0x9BD SWAP1 PUSH2 0x1A24 JUMP JUMPDEST PUSH1 0x40 MLOAD DUP1 SWAP2 SUB SWAP1 REVERT JUMPDEST PUSH1 0x1 PUSH1 0xA PUSH1 0x3 PUSH2 0x100 EXP DUP2 SLOAD DUP2 PUSH1 0xFF MUL NOT AND SWAP1 DUP4 ISZERO ISZERO MUL OR SWAP1 SSTORE POP PUSH1 0x2 SLOAD CALLVALUE EQ PUSH2 0xA25 JUMPI PUSH1 0x40 MLOAD PUSH32 0x8C379A000000000000000000000000000000000000000000000000000000000 DUP2 MSTORE PUSH1 0x4 ADD PUSH2 0xA1C SWAP1 PUSH2 0x1D32 JUMP JUMPDEST PUSH1 0x40 MLOAD DUP1 SWAP2 SUB SWAP1 REVERT JUMPDEST PUSH1 0x1 PUSH1 0xA PUSH1 0x2 PUSH2 0x100 EXP DUP2 SLOAD DUP2 PUSH1 0xFF MUL NOT AND SWAP1 DUP4 ISZERO ISZERO MUL OR SWAP1 SSTORE POP PUSH2 0xA6D PUSH1 0x1 PUSH0 SWAP1 SLOAD SWAP1 PUSH2 0x100 EXP SWAP1 DIV PUSH20 0xFFFFFFFFFFFFFFFFFFFFFFFFFFFFFFFFFFFFFFFF AND PUSH1 0x3 SLOAD PUSH2 0x1659 JUMP JUMPDEST PUSH2 0xA99 PUSH0 PUSH0 SWAP1 SLOAD SWAP1 PUSH2 0x100 EXP SWAP1 DIV PUSH20 0xFFFFFFFFFFFFFFFFFFFFFFFFFFFFFFFFFFFFFFFF AND PUSH1 0x2 SLOAD PUSH2 0x1659 JUMP JUMPDEST PUSH32 0x40CEE90EE4799897C30CA04E5FEB6FA43DBBA9B6D084B4B257CDAFD84BA013E PUSH1 0x2 SLOAD PUSH1 0x3 SLOAD PUSH1 0x40 MLOAD PUSH2 0xACE SWAP3 SWAP2 SWAP1 PUSH2 0x1B30 JUMP JUMPDEST PUSH1 0x40 MLOAD DUP1 SWAP2 SUB SWAP1 LOG1 PUSH0 PUSH1 0xA PUSH1 0x3 PUSH2 0x100 EXP DUP2 SLOAD DUP2 PUSH1 0xFF MUL NOT AND SWAP1 DUP4 ISZERO ISZERO MUL OR SWAP1 SSTORE POP JUMP JUMPDEST PUSH0 PUSH0 SWAP1 SLOAD SWAP1 PUSH2 0x100 EXP SWAP1 DIV PUSH20 0xFFFFFFFFFFFFFFFFFFFFFFFFFFFFFFFFFFFFFFFF AND DUP2 JUMP JUMPDEST PUSH1 0x4 SLOAD DUP2 JUMP JUMPDEST PUSH1 0xA PUSH0 SWAP1 SLOAD SWAP1 PUSH2 0x100 EXP SWAP1 DIV PUSH1 0xFF AND DUP2 JUMP JUMPDEST PUSH1 0x1 PUSH0 SWAP1 SLOAD SWAP1 PUSH2 0x100 EXP SWAP1 DIV PUSH20 0xFFFFFFFFFFFFFFFFFFFFFFFFFFFFFFFFFFFFFFFF AND PUSH20 0xFFFFFFFFFFFFFFFFFFFFFFFFFFFFFFFFFFFFFFFF AND CALLER PUSH20 0xFFFFFFFFFFFFFFFFFFFFFFFFFFFFFFFFFFFFFFFF AND EQ PUSH2 0xBBD JUMPI PUSH1 0x40 MLOAD PUSH32 0x8C379A000000000000000000000000000000000000000000000000000000000 DUP2 MSTORE PUSH1 0x4 ADD PUSH2 0xBB4 SWAP1 PUSH2 0x1BD4 JUMP JUMPDEST PUSH1 0x40 MLOAD DUP1 SWAP2 SUB SWAP1 REVERT JUMPDEST PUSH1 0xA PUSH1 0x2 SWAP1 SLOAD SWAP1 PUSH2 0x100 EXP SWAP1 DIV PUSH1 0xFF AND ISZERO PUSH2 0xC0D JUMPI PUSH1 0x40 MLOAD PUSH32 0x8C379A000000000000000000000000000000000000000000000000000000000 DUP2 MSTORE PUSH1 0x4 ADD PUSH2 0xC04 SWAP1 PUSH2 0x1884 JUMP JUMPDEST PUSH1 0x40 MLOAD DUP1 SWAP2 SUB SWAP1 REVERT JUMPDEST PUSH1 0xA PUSH1 0x1 SWAP1 SLOAD SWAP1 PUSH2 0x100 EXP SWAP1 DIV PUSH1 0xFF AND ISZERO PUSH2 0xC5D JUMPI PUSH1 0x40 MLOAD PUSH32 0x8C379A000000000000000000000000000000000000000000000000000000000 DUP2 MSTORE PUSH1 0x4 ADD PUSH2 0xC54 SWAP1 PUSH2 0x1954 JUMP JUMPDEST PUSH1 0x40 MLOAD DUP1 SWAP2 SUB SWAP1 REVERT JUMPDEST PUSH1 0x4 SLOAD TIMESTAMP GT ISZERO PUSH2 0xCA2 JUMPI PUSH1 0x40 MLOAD PUSH32 0x8C379A000000000000000000000000000000000000000000000000000000000 DUP2 MSTORE PUSH1 0x4 ADD PUSH2 0xC99 SWAP1 PUSH2 0x1D9A JUMP JUMPDEST PUSH1 0x40 MLOAD DUP1 SWAP2 SUB SWAP1 REVERT JUMPDEST PUSH1 0xA PUSH1 0x3 SWAP1 SLOAD SWAP1 PUSH2 0x100 EXP SWAP1 DIV PUSH1 0xFF AND ISZERO PUSH2 0xCF2 JUMPI PUSH1 0x40 MLOAD PUSH32 0x8C379A000000000000000000000000000000000000000000000000000000000 DUP2 MSTORE PUSH1 0x4 ADD PUSH2 0xCE9 SWAP1 PUSH2 0x1A24 JUMP JUMPDEST PUSH1 0x40 MLOAD DUP1 SWAP2 SUB SWAP1 REVERT JUMPDEST PUSH1 0x1 PUSH1 0xA PUSH1 0x3 PUSH2 0x100 EXP DUP2 SLOAD DUP2 PUSH1 0xFF MUL NOT AND SWAP1 DUP4 ISZERO ISZERO MUL OR SWAP1 SSTORE POP PUSH1 0xA PUSH0 SWAP1 SLOAD SWAP1 PUSH2 0x100 EXP SWAP1 DIV PUSH1 0xFF AND ISZERO PUSH2 0xD5C JUMPI PUSH1 0x40 MLOAD PUSH32 0x8C379A000000000000000000000000000000000000000000000000000000000 DUP2 MSTORE PUSH1 0x4 ADD PUSH2 0xD53 SWAP1 PUSH2 0x1E02 JUMP JUMPDEST PUSH1 0x40 MLOAD DUP1 SWAP2 SUB SWAP1 REVERT JUMPDEST PUSH1 0x3 SLOAD CALLVALUE EQ PUSH2 0xDA0 JUMPI PUSH1 0x40 MLOAD PUSH32 0x8C379A000000000000000000000000000000000000000000000000000000000 DUP2 MSTORE PUSH1 0x4 ADD PUSH2 0xD97 SWAP1 PUSH2 0x1E90 JUMP JUMPDEST PUSH1 0x40 MLOAD DUP1 SWAP2 SUB SWAP1 REVERT JUMPDEST PUSH1 0x1 PUSH1 0xA PUSH0 PUSH2 0x100 EXP DUP2 SLOAD DUP2 PUSH1 0xFF MUL NOT AND SWAP1 DUP4 ISZERO ISZERO MUL OR SWAP1 SSTORE POP PUSH1 0x8 SLOAD TIMESTAMP PUSH2 0xDC8 SWAP2 SWAP1 PUSH2 0x1AFD JUMP JUMPDEST PUSH1 0x5 DUP2 SWAP1 SSTORE POP PUSH32 0x1D6754727766D56B1FAC49AC85A13585C6CAAB122A19C994E569D16077D462F2 CALLVALUE PUSH1 0x5 SLOAD PUSH1 0x40 MLOAD PUSH2 0xE01 SWAP3 SWAP2 SWAP1 PUSH2 0x1B30 JUMP JUMPDEST PUSH1 0x40 MLOAD DUP1 SWAP2 SUB SWAP1 LOG1 PUSH0 PUSH1 0xA PUSH1 0x3 PUSH2 0x100 EXP DUP2 SLOAD DUP2 PUSH1 0xFF MUL NOT AND SWAP1 DUP4 ISZERO ISZERO MUL OR SWAP1 SSTORE POP JUMP JUMPDEST PUSH0 PUSH1 0xA PUSH1 0x1 SWAP1 SLOAD SWAP1 PUSH2 0x100 EXP SWAP1 DIV PUSH1 0xFF AND PUSH2 0xE42 JUMPI PUSH0 SWAP1 POP PUSH2 0xE64 JUMP JUMPDEST PUSH1 0x6 SLOAD TIMESTAMP LT PUSH2 0xE53 JUMPI PUSH0 SWAP1 POP PUSH2 0xE64 JUMP JUMPDEST TIMESTAMP PUSH1 0x6 SLOAD PUSH2 0xE61 SWAP2 SWAP1 PUSH2 0x1B57 JUMP JUMPDEST SWAP1 POP JUMPDEST SWAP1 JUMP JUMPDEST PUSH1 0x5 SLOAD DUP2 JUMP JUMPDEST PUSH1 0xA PUSH1 0x2 SWAP1 SLOAD SWAP1 PUSH2 0x100 EXP SWAP1 DIV PUSH1 0xFF AND DUP2 JUMP JUMPDEST PUSH1 0x3 SLOAD DUP2 JUMP JUMPDEST PUSH0 PUSH1 0xA PUSH0 SWAP1 SLOAD SWAP1 PUSH2 0x100 EXP SWAP1 DIV PUSH1 0xFF AND PUSH2 0xEA2 JUMPI PUSH0 SWAP1 POP PUSH2 0xEC4 JUMP JUMPDEST PUSH1 0x5 SLOAD TIMESTAMP LT PUSH2 0xEB3 JUMPI PUSH0 SWAP1 POP PUSH2 0xEC4 JUMP JUMPDEST TIMESTAMP PUSH1 0x5 SLOAD PUSH2 0xEC1 SWAP2 SWAP1 PUSH2 0x1B57 JUMP JUMPDEST SWAP1 POP JUMPDEST SWAP1 JUMP JUMPDEST PUSH1 0x2 SLOAD DUP2 JUMP JUMPDEST PUSH1 0x7 SLOAD DUP2 JUMP JUMPDEST PUSH0 PUSH0 SWAP1 SLOAD SWAP1 PUSH2 0x100 EXP SWAP1 DIV PUSH20 0xFFFFFFFFFFFFFFFFFFFFFFFFFFFFFFFFFFFFFFFF AND PUSH20 0xFFFFFFFFFFFFFFFFFFFFFFFFFFFFFFFFFFFFFFFF AND CALLER PUSH20 0xFFFFFFFFFFFFFFFFFFFFFFFFFFFFFFFFFFFFFFFF AND EQ PUSH2 0xF61 JUMPI PUSH1 0x40 MLOAD PUSH32 0x8C379A000000000000000000000000000000000000000000000000000000000 DUP2 MSTORE PUSH1 0x4 ADD PUSH2 0xF58 SWAP1 PUSH2 0x181C JUMP JUMPDEST PUSH1 0x40 MLOAD DUP1 SWAP2 SUB SWAP1 REVERT JUMPDEST PUSH1 0xA PUSH1 0x2 SWAP1 SLOAD SWAP1 PUSH2 0x100 EXP SWAP1 DIV PUSH1 0xFF AND ISZERO PUSH2 0xFB1 JUMPI PUSH1 0x40 MLOAD PUSH32 0x8C379A000000000000000000000000000000000000000000000000000000000 DUP2 MSTORE PUSH1 0x4 ADD PUSH2 0xFA8 SWAP1 PUSH2 0x1884 JUMP JUMPDEST PUSH1 0x40 MLOAD DUP1 SWAP2 SUB SWAP1 REVERT JUMPDEST PUSH1 0xA PUSH1 0x1 SWAP1 SLOAD SWAP1 PUSH2 0x100 EXP SWAP1 DIV PUSH1 0xFF AND PUSH2 0x1000 JUMPI PUSH1 0x40 MLOAD PUSH32 0x8C379A000000000000000000000000000000000000000000000000000000000 DUP2 MSTORE PUSH1 0x4 ADD PUSH2 0xFF7 SWAP1 PUSH2 0x1C3C JUMP JUMPDEST PUSH1 0x40 MLOAD DUP1 SWAP2 SUB SWAP1 REVERT JUMPDEST PUSH1 0x6 SLOAD TIMESTAMP GT PUSH2 0x1044 JUMPI PUSH1 0x40 MLOAD PUSH32 0x8C379A000000000000000000000000000000000000000000000000000000000 DUP2 MSTORE PUSH1 0x4 ADD PUSH2 0x103B SWAP1 PUSH2 0x1EF8 JUMP JUMPDEST PUSH1 0x40 MLOAD DUP1 SWAP2 SUB SWAP1 REVERT JUMPDEST PUSH1 0xA PUSH1 0x3 SWAP1 SLOAD SWAP1 PUSH2 0x100 EXP SWAP1 DIV PUSH1 0xFF AND ISZERO PUSH2 0x1094 JUMPI PUSH1 0x40 MLOAD PUSH32 0x8C379A000000000000000000000000000000000000000000000000000000000 DUP2 MSTORE PUSH1 0x4 ADD PUSH2 0x108B SWAP1 PUSH2 0x1A24 JUMP JUMPDEST PUSH1 0x40 MLOAD DUP1 SWAP2 SUB SWAP1 REVERT JUMPDEST PUSH1 0x1 PUSH1 0xA PUSH1 0x3 PUSH2 0x100 EXP DUP2 SLOAD DUP2 PUSH1 0xFF MUL NOT AND SWAP1 DUP4 ISZERO ISZERO MUL OR SWAP1 SSTORE POP PUSH1 0x1 PUSH1 0xA PUSH1 0x2 PUSH2 0x100 EXP DUP2 SLOAD DUP2 PUSH1 0xFF MUL NOT AND SWAP1 DUP4 ISZERO ISZERO MUL OR SWAP1 SSTORE POP PUSH2 0x10F6 PUSH0 PUSH0 SWAP1 SLOAD SWAP1 PUSH2 0x100 EXP SWAP1 DIV PUSH20 0xFFFFFFFFFFFFFFFFFFFFFFFFFFFFFFFFFFFFFFFF AND PUSH1 0x3 SLOAD PUSH2 0x1659 JUMP JUMPDEST PUSH32 0x5012A849F7AAC3BD3087FBD8FC70D53AA8669F72AD6ED83B0EFCA0B07C1BD97D PUSH1 0x3 SLOAD PUSH1 0x40 MLOAD PUSH2 0x1127 SWAP2 SWAP1 PUSH2 0x17A9 JUMP JUMPDEST PUSH1 0x40 MLOAD DUP1 SWAP2 SUB SWAP1 LOG1 PUSH0 PUSH1 0xA PUSH1 0x3 PUSH2 0x100 EXP DUP2 SLOAD DUP2 PUSH1 0xFF MUL NOT AND SWAP1 DUP4 ISZERO ISZERO MUL OR SWAP1 SSTORE POP JUMP JUMPDEST PUSH0 PUSH0 SWAP1 SLOAD SWAP1 PUSH2 0x100 EXP SWAP1 DIV PUSH20 0xFFFFFFFFFFFFFFFFFFFFFFFFFFFFFFFFFFFFFFFF AND PUSH20 0xFFFFFFFFFFFFFFFFFFFFFFFFFFFFFFFFFFFFFFFF AND CALLER PUSH20 0xFFFFFFFFFFFFFFFFFFFFFFFFFFFFFFFFFFFFFFFF AND EQ PUSH2 0x11D9 JUMPI PUSH1 0x40 MLOAD PUSH32 0x8C379A000000000000000000000000000000000000000000000000000000000 DUP2 MSTORE PUSH1 0x4 ADD PUSH2 0x11D0 SWAP1 PUSH2 0x181C JUMP JUMPDEST PUSH1 0x40 MLOAD DUP1 SWAP2 SUB SWAP1 REVERT JUMPDEST PUSH1 0xA PUSH1 0x2 SWAP1 SLOAD SWAP1 PUSH2 0x100 EXP SWAP1 DIV PUSH1 0xFF AND ISZERO PUSH2 0x1229 JUMPI PUSH1 0x40 MLOAD PUSH32 0x8C379A000000000000000000000000000000000000000000000000000000000 DUP2 MSTORE PUSH1 0x4 ADD PUSH2 0x1220 SWAP1 PUSH2 0x1884 JUMP JUMPDEST PUSH1 0x40 MLOAD DUP1 SWAP2 SUB SWAP1 REVERT JUMPDEST PUSH1 0x4 SLOAD TIMESTAMP GT PUSH2 0x126D JUMPI PUSH1 0x40 MLOAD PUSH32 0x8C379A000000000000000000000000000000000000000000000000000000000 DUP2 MSTORE PUSH1 0x4 ADD PUSH2 0x1264 SWAP1 PUSH2 0x1F60 JUMP JUMPDEST PUSH1 0x40 MLOAD DUP1 SWAP2 SUB SWAP1 REVERT JUMPDEST PUSH1 0xA PUSH1 0x3 SWAP1 SLOAD SWAP1 PUSH2 0x100 EXP SWAP1 DIV PUSH1 0xFF AND ISZERO PUSH2 0x12BD JUMPI PUSH1 0x40 MLOAD PUSH32 0x8C379A000000000000000000000000000000000000000000000000000000000 DUP2 MSTORE PUSH1 0x4 ADD PUSH2 0x12B4 SWAP1 PUSH2 0x1A24 JUMP JUMPDEST PUSH1 0x40 MLOAD DUP1 SWAP2 SUB SWAP1 REVERT JUMPDEST PUSH1 0x1 PUSH1 0xA PUSH1 0x3 PUSH2 0x100 EXP DUP2 SLOAD DUP2 PUSH1 0xFF MUL NOT AND SWAP1 DUP4 ISZERO ISZERO MUL OR SWAP1 SSTORE POP PUSH1 0xA PUSH0 SWAP1 SLOAD SWAP1 PUSH2 0x100 EXP SWAP1 DIV PUSH1 0xFF AND ISZERO PUSH2 0x1327 JUMPI PUSH1 0x40 MLOAD PUSH32 0x8C379A000000000000000000000000000000000000000000000000000000000 DUP2 MSTORE PUSH1 0x4 ADD PUSH2 0x131E SWAP1 PUSH2 0x1FEE JUMP JUMPDEST PUSH1 0x40 MLOAD DUP1 SWAP2 SUB SWAP1 REVERT JUMPDEST PUSH1 0x1 PUSH1 0xA PUSH1 0x2 PUSH2 0x100 EXP DUP2 SLOAD DUP2 PUSH1 0xFF MUL NOT AND SWAP1 DUP4 ISZERO ISZERO MUL OR SWAP1 SSTORE POP PUSH32 0xCA722985A56CF602F4433AF65333D6734BF8A2D80CFB080CB8735D7B133E60E5 PUSH1 0x40 MLOAD PUSH1 0x40 MLOAD DUP1 SWAP2 SUB SWAP1 LOG1 PUSH0 PUSH1 0xA PUSH1 0x3 PUSH2 0x100 EXP DUP2 SLOAD DUP2 PUSH1 0xFF MUL NOT AND SWAP1 DUP4 ISZERO ISZERO MUL OR SWAP1 SSTORE POP JUMP JUMPDEST PUSH1 0x9 SLOAD DUP2 JUMP JUMPDEST PUSH1 0x1 PUSH0 SWAP1 SLOAD SWAP1 PUSH2 0x100 EXP SWAP1 DIV PUSH20 0xFFFFFFFFFFFFFFFFFFFFFFFFFFFFFFFFFFFFFFFF AND PUSH20 0xFFFFFFFFFFFFFFFFFFFFFFFFFFFFFFFFFFFFFFFF AND CALLER PUSH20 0xFFFFFFFFFFFFFFFFFFFFFFFFFFFFFFFFFFFFFFFF AND EQ PUSH2 0x141F JUMPI PUSH1 0x40 MLOAD PUSH32 0x8C379A000000000000000000000000000000000000000000000000000000000 DUP2 MSTORE PUSH1 0x4 ADD PUSH2 0x1416 SWAP1 PUSH2 0x1BD4 JUMP JUMPDEST PUSH1 0x40 MLOAD DUP1 SWAP2 SUB SWAP1 REVERT JUMPDEST PUSH1 0xA PUSH1 0x2 SWAP1 SLOAD SWAP1 PUSH2 0x100 EXP SWAP1 DIV PUSH1 0xFF AND ISZERO PUSH2 0x146F JUMPI PUSH1 0x40 MLOAD PUSH32 0x8C379A000000000000000000000000000000000000000000000000000000000 DUP2 MSTORE PUSH1 0x4 ADD PUSH2 0x1466 SWAP1 PUSH2 0x1884 JUMP JUMPDEST PUSH1 0x40 MLOAD DUP1 SWAP2 SUB SWAP1 REVERT JUMPDEST PUSH1 0xA PUSH0 SWAP1 SLOAD SWAP1 PUSH2 0x100 EXP SWAP1 DIV PUSH1 0xFF AND PUSH2 0x14BD JUMPI PUSH1 0x40 MLOAD PUSH32 0x8C379A000000000000000000000000000000000000000000000000000000000 DUP2 MSTORE PUSH1 0x4 ADD PUSH2 0x14B4 SWAP1 PUSH2 0x18EC JUMP JUMPDEST PUSH1 0x40 MLOAD DUP1 SWAP2 SUB SWAP1 REVERT JUMPDEST PUSH1 0xA PUSH1 0x1 SWAP1 SLOAD SWAP1 PUSH2 0x100 EXP SWAP1 DIV PUSH1 0xFF AND ISZERO PUSH2 0x150D JUMPI PUSH1 0x40 MLOAD PUSH32 0x8C379A000000000000000000000000000000000000000000000000000000000 DUP2 MSTORE PUSH1 0x4 ADD PUSH2 0x1504 SWAP1 PUSH2 0x1954 JUMP JUMPDEST PUSH1 0x40 MLOAD DUP1 SWAP2 SUB SWAP1 REVERT JUMPDEST PUSH1 0x5 SLOAD TIMESTAMP GT PUSH2 0x1551 JUMPI PUSH1 0x40 MLOAD PUSH32 0x8C379A000000000000000000000000000000000000000000000000000000000 DUP2 MSTORE PUSH1 0x4 ADD PUSH2 0x1548 SWAP1 PUSH2 0x2056 JUMP JUMPDEST PUSH1 0x40 MLOAD DUP1 SWAP2 SUB SWAP1 REVERT JUMPDEST PUSH1 0xA PUSH1 0x3 SWAP1 SLOAD SWAP1 PUSH2 0x100 EXP SWAP1 DIV PUSH1 0xFF AND ISZERO PUSH2 0x15A1 JUMPI PUSH1 0x40 MLOAD PUSH32 0x8C379A000000000000000000000000000000000000000000000000000000000 DUP2 MSTORE PUSH1 0x4 ADD PUSH2 0x1598 SWAP1 PUSH2 0x1A24 JUMP JUMPDEST PUSH1 0x40 MLOAD DUP1 SWAP2 SUB SWAP1 REVERT JUMPDEST PUSH1 0x1 PUSH1 0xA PUSH1 0x3 PUSH2 0x100 EXP DUP2 SLOAD DUP2 PUSH1 0xFF MUL NOT AND SWAP1 DUP4 ISZERO ISZERO MUL OR SWAP1 SSTORE POP PUSH1 0x1 PUSH1 0xA PUSH1 0x2 PUSH2 0x100 EXP DUP2 SLOAD DUP2 PUSH1 0xFF MUL NOT AND SWAP1 DUP4 ISZERO ISZERO MUL OR SWAP1 SSTORE POP PUSH2 0x1604 PUSH1 0x1 PUSH0 SWAP1 SLOAD SWAP1 PUSH2 0x100 EXP SWAP1 DIV PUSH20 0xFFFFFFFFFFFFFFFFFFFFFFFFFFFFFFFFFFFFFFFF AND PUSH1 0x3 SLOAD PUSH2 0x1659 JUMP JUMPDEST PUSH32 0x52D70F4B39F417A165362C56D7E7A93FEE95660AD90595CC9EBE26F69DDC6E4A PUSH1 0x3 SLOAD PUSH1 0x40 MLOAD PUSH2 0x1635 SWAP2 SWAP1 PUSH2 0x17A9 JUMP JUMPDEST PUSH1 0x40 MLOAD DUP1 SWAP2 SUB SWAP1 LOG1 PUSH0 PUSH1 0xA PUSH1 0x3 PUSH2 0x100 EXP DUP2 SLOAD DUP2 PUSH1 0xFF MUL NOT AND SWAP1 DUP4 ISZERO ISZERO MUL OR SWAP1 SSTORE POP JUMP JUMPDEST PUSH0 DUP3 PUSH20 0xFFFFFFFFFFFFFFFFFFFFFFFFFFFFFFFFFFFFFFFF AND DUP3 PUSH1 0x40 MLOAD PUSH2 0x167E SWAP1 PUSH2 0x20A1 JUMP JUMPDEST PUSH0 PUSH1 0x40 MLOAD DUP1 DUP4 SUB DUP2 DUP6 DUP8 GAS CALL SWAP3 POP POP POP RETURNDATASIZE DUP1 PUSH0 DUP2 EQ PUSH2 0x16B8 JUMPI PUSH1 0x40 MLOAD SWAP2 POP PUSH1 0x1F NOT PUSH1 0x3F RETURNDATASIZE ADD AND DUP3 ADD PUSH1 0x40 MSTORE RETURNDATASIZE DUP3 MSTORE RETURNDATASIZE PUSH0 PUSH1 0x20 DUP5 ADD RETURNDATACOPY PUSH2 0x16BD JUMP JUMPDEST PUSH1 0x60 SWAP2 POP JUMPDEST POP POP SWAP1 POP DUP1 PUSH2 0x1701 JUMPI PUSH1 0x40 MLOAD PUSH32 0x8C379A000000000000000000000000000000000000000000000000000000000 DUP2 MSTORE PUSH1 0x4 ADD PUSH2 0x16F8 SWAP1 PUSH2 0x20FF JUMP JUMPDEST PUSH1 0x40 MLOAD DUP1 SWAP2 SUB SWAP1 REVERT JUMPDEST POP POP POP JUMP JUMPDEST PUSH0 PUSH20 0xFFFFFFFFFFFFFFFFFFFFFFFFFFFFFFFFFFFFFFFF DUP3 AND SWAP1 POP SWAP2 SWAP1 POP JUMP JUMPDEST PUSH0 PUSH2 0x172F DUP3 PUSH2 0x1706 JUMP JUMPDEST SWAP1 POP SWAP2 SWAP1 POP JUMP JUMPDEST PUSH2 0x173F DUP2 PUSH2 0x1725 JUMP JUMPDEST DUP3 MSTORE POP POP JUMP JUMPDEST PUSH0 PUSH1 0x20 DUP3 ADD SWAP1 POP PUSH2 0x1758 PUSH0 DUP4 ADD DUP5 PUSH2 0x1736 JUMP JUMPDEST SWAP3 SWAP2 POP POP JUMP JUMPDEST PUSH0 DUP2 ISZERO ISZERO SWAP1 POP SWAP2 SWAP1 POP JUMP JUMPDEST PUSH2 0x1772 DUP2 PUSH2 0x175E JUMP JUMPDEST DUP3 MSTORE POP POP JUMP JUMPDEST PUSH0 PUSH1 0x20 DUP3 ADD SWAP1 POP PUSH2 0x178B PUSH0 DUP4 ADD DUP5 PUSH2 0x1769 JUMP JUMPDEST SWAP3 SWAP2 POP POP JUMP JUMPDEST PUSH0 DUP2 SWAP1 POP SWAP2 SWAP1 POP JUMP JUMPDEST PUSH2 0x17A3 DUP2 PUSH2 0x1791 JUMP JUMPDEST DUP3 MSTORE POP POP JUMP JUMPDEST PUSH0 PUSH1 0x20 DUP3 ADD SWAP1 POP PUSH2 0x17BC PUSH0 DUP4 ADD DUP5 PUSH2 0x179A JUMP JUMPDEST SWAP3 SWAP2 POP POP JUMP JUMPDEST PUSH0 DUP3 DUP3 MSTORE PUSH1 0x20 DUP3 ADD SWAP1 POP SWAP3 SWAP2 POP POP JUMP JUMPDEST PUSH32 0x4F6E6C79205368796C6F636B206D61792063616C6C2074686973000000000000 PUSH0 DUP3 ADD MSTORE POP JUMP JUMPDEST PUSH0 PUSH2 0x1806 PUSH1 0x1A DUP4 PUSH2 0x17C2 JUMP JUMPDEST SWAP2 POP PUSH2 0x1811 DUP3 PUSH2 0x17D2 JUMP JUMPDEST PUSH1 0x20 DUP3 ADD SWAP1 POP SWAP2 SWAP1 POP JUMP JUMPDEST PUSH0 PUSH1 0x20 DUP3 ADD SWAP1 POP DUP2 DUP2 SUB PUSH0 DUP4 ADD MSTORE PUSH2 0x1833 DUP2 PUSH2 0x17FA JUMP JUMPDEST SWAP1 POP SWAP2 SWAP1 POP JUMP JUMPDEST PUSH32 0x436F6E747261637420616C726561647920736574746C65640000000000000000 PUSH0 DUP3 ADD MSTORE POP JUMP JUMPDEST PUSH0 PUSH2 0x186E PUSH1 0x18 DUP4 PUSH2 0x17C2 JUMP JUMPDEST SWAP2 POP PUSH2 0x1879 DUP3 PUSH2 0x183A JUMP JUMPDEST PUSH1 0x20 DUP3 ADD SWAP1 POP SWAP2 SWAP1 POP JUMP JUMPDEST PUSH0 PUSH1 0x20 DUP3 ADD SWAP1 POP DUP2 DUP2 SUB PUSH0 DUP4 ADD MSTORE PUSH2 0x189B DUP2 PUSH2 0x1862 JUMP JUMPDEST SWAP1 POP SWAP2 SWAP1 POP JUMP JUMPDEST PUSH32 0x436F6C6C61746572616C206E6F7420796574206465706F736974656400000000 PUSH0 DUP3 ADD MSTORE POP JUMP JUMPDEST PUSH0 PUSH2 0x18D6 PUSH1 0x1C DUP4 PUSH2 0x17C2 JUMP JUMPDEST SWAP2 POP PUSH2 0x18E1 DUP3 PUSH2 0x18A2 JUMP JUMPDEST PUSH1 0x20 DUP3 ADD SWAP1 POP SWAP2 SWAP1 POP JUMP JUMPDEST PUSH0 PUSH1 0x20 DUP3 ADD SWAP1 POP DUP2 DUP2 SUB PUSH0 DUP4 ADD MSTORE PUSH2 0x1903 DUP2 PUSH2 0x18CA JUMP JUMPDEST SWAP1 POP SWAP2 SWAP1 POP JUMP JUMPDEST PUSH32 0x4C6F616E20616C72656164792064697362757273656400000000000000000000 PUSH0 DUP3 ADD MSTORE POP JUMP JUMPDEST PUSH0 PUSH2 0x193E PUSH1 0x16 DUP4 PUSH2 0x17C2 JUMP JUMPDEST SWAP2 POP PUSH2 0x1949 DUP3 PUSH2 0x190A JUMP JUMPDEST PUSH1 0x20 DUP3 ADD SWAP1 POP SWAP2 SWAP1 POP JUMP JUMPDEST PUSH0 PUSH1 0x20 DUP3 ADD SWAP1 POP DUP2 DUP2 SUB PUSH0 DUP4 ADD MSTORE PUSH2 0x196B DUP2 PUSH2 0x1932 JUMP JUMPDEST SWAP1 POP SWAP2 SWAP1 POP JUMP JUMPDEST PUSH32 0x44697362757273656D656E742077696E646F772068617320636C6F7365640000 PUSH0 DUP3 ADD MSTORE POP JUMP JUMPDEST PUSH0 PUSH2 0x19A6 PUSH1 0x1E DUP4 PUSH2 0x17C2 JUMP JUMPDEST SWAP2 POP PUSH2 0x19B1 DUP3 PUSH2 0x1972 JUMP JUMPDEST PUSH1 0x20 DUP3 ADD SWAP1 POP SWAP2 SWAP1 POP JUMP JUMPDEST PUSH0 PUSH1 0x20 DUP3 ADD SWAP1 POP DUP2 DUP2 SUB PUSH0 DUP4 ADD MSTORE PUSH2 0x19D3 DUP2 PUSH2 0x199A JUMP JUMPDEST SWAP1 POP SWAP2 SWAP1 POP JUMP JUMPDEST PUSH32 0x5265656E7472616E742063616C6C000000000000000000000000000000000000 PUSH0 DUP3 ADD MSTORE POP JUMP JUMPDEST PUSH0 PUSH2 0x1A0E PUSH1 0xE DUP4 PUSH2 0x17C2 JUMP JUMPDEST SWAP2 POP PUSH2 0x1A19 DUP3 PUSH2 0x19DA JUMP JUMPDEST PUSH1 0x20 DUP3 ADD SWAP1 POP SWAP2 SWAP1 POP JUMP JUMPDEST PUSH0 PUSH1 0x20 DUP3 ADD SWAP1 POP DUP2 DUP2 SUB PUSH0 DUP4 ADD MSTORE PUSH2 0x1A3B DUP2 PUSH2 0x1A02 JUMP JUMPDEST SWAP1 POP SWAP2 SWAP1 POP JUMP JUMPDEST PUSH32 0x4D7573742064697362757273652065786163746C7920746865206C6F616E2061 PUSH0 DUP3 ADD MSTORE PUSH32 0x6D6F756E74000000000000000000000000000000000000000000000000000000 PUSH1 0x20 DUP3 ADD MSTORE POP JUMP JUMPDEST PUSH0 PUSH2 0x1A9C PUSH1 0x25 DUP4 PUSH2 0x17C2 JUMP JUMPDEST SWAP2 POP PUSH2 0x1AA7 DUP3 PUSH2 0x1A42 JUMP JUMPDEST PUSH1 0x40 DUP3 ADD SWAP1 POP SWAP2 SWAP1 POP JUMP JUMPDEST PUSH0 PUSH1 0x20 DUP3 ADD SWAP1 POP DUP2 DUP2 SUB PUSH0 DUP4 ADD MSTORE PUSH2 0x1AC9 DUP2 PUSH2 0x1A90 JUMP JUMPDEST SWAP1 POP SWAP2 SWAP1 POP JUMP JUMPDEST PUSH32 0x4E487B7100000000000000000000000000000000000000000000000000000000 PUSH0 MSTORE PUSH1 0x11 PUSH1 0x4 MSTORE PUSH1 0x24 PUSH0 REVERT JUMPDEST PUSH0 PUSH2 0x1B07 DUP3 PUSH2 0x1791 JUMP JUMPDEST SWAP2 POP PUSH2 0x1B12 DUP4 PUSH2 0x1791 JUMP JUMPDEST SWAP3 POP DUP3 DUP3 ADD SWAP1 POP DUP1 DUP3 GT ISZERO PUSH2 0x1B2A JUMPI PUSH2 0x1B29 PUSH2 0x1AD0 JUMP JUMPDEST JUMPDEST SWAP3 SWAP2 POP POP JUMP JUMPDEST PUSH0 PUSH1 0x40 DUP3 ADD SWAP1 POP PUSH2 0x1B43 PUSH0 DUP4 ADD DUP6 PUSH2 0x179A JUMP JUMPDEST PUSH2 0x1B50 PUSH1 0x20 DUP4 ADD DUP5 PUSH2 0x179A JUMP JUMPDEST SWAP4 SWAP3 POP POP POP JUMP JUMPDEST PUSH0 PUSH2 0x1B61 DUP3 PUSH2 0x1791 JUMP JUMPDEST SWAP2 POP PUSH2 0x1B6C DUP4 PUSH2 0x1791 JUMP JUMPDEST SWAP3 POP DUP3 DUP3 SUB SWAP1 POP DUP2 DUP2 GT ISZERO PUSH2 0x1B84 JUMPI PUSH2 0x1B83 PUSH2 0x1AD0 JUMP JUMPDEST JUMPDEST SWAP3 SWAP2 POP POP JUMP JUMPDEST PUSH32 0x4F6E6C7920416E746F6E696F206D61792063616C6C2074686973000000000000 PUSH0 DUP3 ADD MSTORE POP JUMP JUMPDEST PUSH0 PUSH2 0x1BBE PUSH1 0x1A DUP4 PUSH2 0x17C2 JUMP JUMPDEST SWAP2 POP PUSH2 0x1BC9 DUP3 PUSH2 0x1B8A JUMP JUMPDEST PUSH1 0x20 DUP3 ADD SWAP1 POP SWAP2 SWAP1 POP JUMP JUMPDEST PUSH0 PUSH1 0x20 DUP3 ADD SWAP1 POP DUP2 DUP2 SUB PUSH0 DUP4 ADD MSTORE PUSH2 0x1BEB DUP2 PUSH2 0x1BB2 JUMP JUMPDEST SWAP1 POP SWAP2 SWAP1 POP JUMP JUMPDEST PUSH32 0x4C6F616E206E6F74207965742064697362757273656400000000000000000000 PUSH0 DUP3 ADD MSTORE POP JUMP JUMPDEST PUSH0 PUSH2 0x1C26 PUSH1 0x16 DUP4 PUSH2 0x17C2 JUMP JUMPDEST SWAP2 POP PUSH2 0x1C31 DUP3 PUSH2 0x1BF2 JUMP JUMPDEST PUSH1 0x20 DUP3 ADD SWAP1 POP SWAP2 SWAP1 POP JUMP JUMPDEST PUSH0 PUSH1 0x20 DUP3 ADD SWAP1 POP DUP2 DUP2 SUB PUSH0 DUP4 ADD MSTORE PUSH2 0x1C53 DUP2 PUSH2 0x1C1A JUMP JUMPDEST SWAP1 POP SWAP2 SWAP1 POP JUMP JUMPDEST PUSH32 0x52657061796D656E742077696E646F772068617320636C6F7365640000000000 PUSH0 DUP3 ADD MSTORE POP JUMP JUMPDEST PUSH0 PUSH2 0x1C8E PUSH1 0x1B DUP4 PUSH2 0x17C2 JUMP JUMPDEST SWAP2 POP PUSH2 0x1C99 DUP3 PUSH2 0x1C5A JUMP JUMPDEST PUSH1 0x20 DUP3 ADD SWAP1 POP SWAP2 SWAP1 POP JUMP JUMPDEST PUSH0 PUSH1 0x20 DUP3 ADD SWAP1 POP DUP2 DUP2 SUB PUSH0 DUP4 ADD MSTORE PUSH2 0x1CBB DUP2 PUSH2 0x1C82 JUMP JUMPDEST SWAP1 POP SWAP2 SWAP1 POP JUMP JUMPDEST PUSH32 0x4D7573742072657061792065786163746C7920746865206C6F616E20616D6F75 PUSH0 DUP3 ADD MSTORE PUSH32 0x6E74000000000000000000000000000000000000000000000000000000000000 PUSH1 0x20 DUP3 ADD MSTORE POP JUMP JUMPDEST PUSH0 PUSH2 0x1D1C PUSH1 0x22 DUP4 PUSH2 0x17C2 JUMP JUMPDEST SWAP2 POP PUSH2 0x1D27 DUP3 PUSH2 0x1CC2 JUMP JUMPDEST PUSH1 0x40 DUP3 ADD SWAP1 POP SWAP2 SWAP1 POP JUMP JUMPDEST PUSH0 PUSH1 0x20 DUP3 ADD SWAP1 POP DUP2 DUP2 SUB PUSH0 DUP4 ADD MSTORE PUSH2 0x1D49 DUP2 PUSH2 0x1D10 JUMP JUMPDEST SWAP1 POP SWAP2 SWAP1 POP JUMP JUMPDEST PUSH32 0x4465706F7369742077696E646F772068617320636C6F73656400000000000000 PUSH0 DUP3 ADD MSTORE POP JUMP JUMPDEST PUSH0 PUSH2 0x1D84 PUSH1 0x19 DUP4 PUSH2 0x17C2 JUMP JUMPDEST SWAP2 POP PUSH2 0x1D8F DUP3 PUSH2 0x1D50 JUMP JUMPDEST PUSH1 0x20 DUP3 ADD SWAP1 POP SWAP2 SWAP1 POP JUMP JUMPDEST PUSH0 PUSH1 0x20 DUP3 ADD SWAP1 POP DUP2 DUP2 SUB PUSH0 DUP4 ADD MSTORE PUSH2 0x1DB1 DUP2 PUSH2 0x1D78 JUMP JUMPDEST SWAP1 POP SWAP2 SWAP1 POP JUMP JUMPDEST PUSH32 0x436F6C6C61746572616C20616C7265616479206465706F736974656400000000 PUSH0 DUP3 ADD MSTORE POP JUMP JUMPDEST PUSH0 PUSH2 0x1DEC PUSH1 0x1C DUP4 PUSH2 0x17C2 JUMP JUMPDEST SWAP2 POP PUSH2 0x1DF7 DUP3 PUSH2 0x1DB8 JUMP JUMPDEST PUSH1 0x20 DUP3 ADD SWAP1 POP SWAP2 SWAP1 POP JUMP JUMPDEST PUSH0 PUSH1 0x20 DUP3 ADD SWAP1 POP DUP2 DUP2 SUB PUSH0 DUP4 ADD MSTORE PUSH2 0x1E19 DUP2 PUSH2 0x1DE0 JUMP JUMPDEST SWAP1 POP SWAP2 SWAP1 POP JUMP JUMPDEST PUSH32 0x4D757374206465706F7369742065786163746C7920747769636520746865206C PUSH0 DUP3 ADD MSTORE PUSH32 0x6F616E20616D6F756E7400000000000000000000000000000000000000000000 PUSH1 0x20 DUP3 ADD MSTORE POP JUMP JUMPDEST PUSH0 PUSH2 0x1E7A PUSH1 0x2A DUP4 PUSH2 0x17C2 JUMP JUMPDEST SWAP2 POP PUSH2 0x1E85 DUP3 PUSH2 0x1E20 JUMP JUMPDEST PUSH1 0x40 DUP3 ADD SWAP1 POP SWAP2 SWAP1 POP JUMP JUMPDEST PUSH0 PUSH1 0x20 DUP3 ADD SWAP1 POP DUP2 DUP2 SUB PUSH0 DUP4 ADD MSTORE PUSH2 0x1EA7 DUP2 PUSH2 0x1E6E JUMP JUMPDEST SWAP1 POP SWAP2 SWAP1 POP JUMP JUMPDEST PUSH32 0x52657061796D656E742077696E646F77206E6F742079657420636C6F73656400 PUSH0 DUP3 ADD MSTORE POP JUMP JUMPDEST PUSH0 PUSH2 0x1EE2 PUSH1 0x1F DUP4 PUSH2 0x17C2 JUMP JUMPDEST SWAP2 POP PUSH2 0x1EED DUP3 PUSH2 0x1EAE JUMP JUMPDEST PUSH1 0x20 DUP3 ADD SWAP1 POP SWAP2 SWAP1 POP JUMP JUMPDEST PUSH0 PUSH1 0x20 DUP3 ADD SWAP1 POP DUP2 DUP2 SUB PUSH0 DUP4 ADD MSTORE PUSH2 0x1F0F DUP2 PUSH2 0x1ED6 JUMP JUMPDEST SWAP1 POP SWAP2 SWAP1 POP JUMP JUMPDEST PUSH32 0x4465706F7369742077696E646F77207374696C6C206F70656E00000000000000 PUSH0 DUP3 ADD MSTORE POP JUMP JUMPDEST PUSH0 PUSH2 0x1F4A PUSH1 0x19 DUP4 PUSH2 0x17C2 JUMP JUMPDEST SWAP2 POP PUSH2 0x1F55 DUP3 PUSH2 0x1F16 JUMP JUMPDEST PUSH1 0x20 DUP3 ADD SWAP1 POP SWAP2 SWAP1 POP JUMP JUMPDEST PUSH0 PUSH1 0x20 DUP3 ADD SWAP1 POP DUP2 DUP2 SUB PUSH0 DUP4 ADD MSTORE PUSH2 0x1F77 DUP2 PUSH2 0x1F3E JUMP JUMPDEST SWAP1 POP SWAP2 SWAP1 POP JUMP JUMPDEST PUSH32 0x436F6C6C61746572616C206465706F736974656420757365207265636C61696D PUSH0 DUP3 ADD MSTORE PUSH32 0x436F6C6C61746572616C20706174680000000000000000000000000000000000 PUSH1 0x20 DUP3 ADD MSTORE POP JUMP JUMPDEST PUSH0 PUSH2 0x1FD8 PUSH1 0x2F DUP4 PUSH2 0x17C2 JUMP JUMPDEST SWAP2 POP PUSH2 0x1FE3 DUP3 PUSH2 0x1F7E JUMP JUMPDEST PUSH1 0x40 DUP3 ADD SWAP1 POP SWAP2 SWAP1 POP JUMP JUMPDEST PUSH0 PUSH1 0x20 DUP3 ADD SWAP1 POP DUP2 DUP2 SUB PUSH0 DUP4 ADD MSTORE PUSH2 0x2005 DUP2 PUSH2 0x1FCC JUMP JUMPDEST SWAP1 POP SWAP2 SWAP1 POP JUMP JUMPDEST PUSH32 0x44697362757273656D656E742077696E646F77207374696C6C206F70656E0000 PUSH0 DUP3 ADD MSTORE POP JUMP JUMPDEST PUSH0 PUSH2 0x2040 PUSH1 0x1E DUP4 PUSH2 0x17C2 JUMP JUMPDEST SWAP2 POP PUSH2 0x204B DUP3 PUSH2 0x200C JUMP JUMPDEST PUSH1 0x20 DUP3 ADD SWAP1 POP SWAP2 SWAP1 POP JUMP JUMPDEST PUSH0 PUSH1 0x20 DUP3 ADD SWAP1 POP DUP2 DUP2 SUB PUSH0 DUP4 ADD MSTORE PUSH2 0x206D DUP2 PUSH2 0x2034 JUMP JUMPDEST SWAP1 POP SWAP2 SWAP1 POP JUMP JUMPDEST PUSH0 DUP2 SWAP1 POP SWAP3 SWAP2 POP POP JUMP JUMPDEST POP JUMP JUMPDEST PUSH0 PUSH2 0x208C PUSH0 DUP4 PUSH2 0x2074 JUMP JUMPDEST SWAP2 POP PUSH2 0x2097 DUP3 PUSH2 0x207E JUMP JUMPDEST PUSH0 DUP3 ADD SWAP1 POP SWAP2 SWAP1 POP JUMP JUMPDEST PUSH0 PUSH2 0x20AB DUP3 PUSH2 0x2081 JUMP JUMPDEST SWAP2 POP DUP2 SWAP1 POP SWAP2 SWAP1 POP JUMP JUMPDEST PUSH32 0x455448207472616E73666572206661696C656400000000000000000000000000 PUSH0 DUP3 ADD MSTORE POP JUMP JUMPDEST PUSH0 PUSH2 0x20E9 PUSH1 0x13 DUP4 PUSH2 0x17C2 JUMP JUMPDEST SWAP2 POP PUSH2 0x20F4 DUP3 PUSH2 0x20B5 JUMP JUMPDEST PUSH1 0x20 DUP3 ADD SWAP1 POP SWAP2 SWAP1 POP JUMP JUMPDEST PUSH0 PUSH1 0x20 DUP3 ADD SWAP1 POP DUP2 DUP2 SUB PUSH0 DUP4 ADD MSTORE PUSH2 0x2116 DUP2 PUSH2 0x20DD JUMP JUMPDEST SWAP1 POP SWAP2 SWAP1 POP JUMP INVALID LOG2 PUSH5 0x6970667358 0x22 SLT KECCAK256 DUP5 0xD7 0x23 PUSH5 0x54DDC14BEF GAS 0xB9 PUSH6 0x729C4BC0B3D REVERT 0x4C 0xB5 EXTSTATICCALL GAS 0x25 SMOD 0xDB EXTDELEGATECALL PUSH24 0x33D2B49864736F6C63430008220033000000000000000000 "
				},
				"gasEstimates": {
					"creation": {
						"codeDepositCost": "1706200",
						"executionCost": "infinite",
						"totalCost": "infinite"
					},
					"external": {
						"antonio()": "2532",
						"cancel()": "84815",
						"claimBond()": "infinite",
						"collateralAmount()": "2536",
						"collateralDeposited()": "2599",
						"depositCollateral()": "infinite",
						"depositDeadline()": "2536",
						"depositWindowSeconds()": "2469",
						"disburseLoan()": "infinite",
						"disbursed()": "2563",
						"disbursementDeadline()": "2492",
						"disbursementWindowSeconds()": "2448",
						"getBalance()": "402",
						"loanAmount()": "2447",
						"reclaimCollateral()": "infinite",
						"repay()": "infinite",
						"repaymentDeadline()": "2537",
						"repaymentWindowSeconds()": "2535",
						"settled()": "2606",
						"shylock()": "2596",
						"timeToDepositDeadline()": "infinite",
						"timeToDisbursementDeadline()": "infinite",
						"timeToRepaymentDeadline()": "infinite"
					},
					"internal": {
						"_safeTransfer(address,uint256)": "infinite"
					}
				},
				"methodIdentifiers": {
					"antonio()": "0cc0707f",
					"cancel()": "ea8a1af0",
					"claimBond()": "c7cf7484",
					"collateralAmount()": "92d09ceb",
					"collateralDeposited()": "6311d06a",
					"depositCollateral()": "6f758140",
					"depositDeadline()": "61603d89",
					"depositWindowSeconds()": "b3344db5",
					"disburseLoan()": "188874bd",
					"disbursed()": "10812a7d",
					"disbursementDeadline()": "8a4709f8",
					"disbursementWindowSeconds()": "201fa348",
					"getBalance()": "12065fe0",
					"loanAmount()": "9d585f7f",
					"reclaimCollateral()": "f9686e72",
					"repay()": "402d8883",
					"repaymentDeadline()": "19cc3aaa",
					"repaymentWindowSeconds()": "f09dba95",
					"settled()": "8f775839",
					"shylock()": "44e3dff5",
					"timeToDepositDeadline()": "3c03a099",
					"timeToDisbursementDeadline()": "993f35f3",
					"timeToRepaymentDeadline()": "829c7197"
				}
			},
			"storageLayout": {
				"storage": [
					{
						"astId": 5,
						"contract": "MerchantOfVenice.sol:MerchantOfVenice",
						"label": "shylock",
						"offset": 0,
						"slot": "0",
						"type": "t_address"
					},
					{
						"astId": 8,
						"contract": "MerchantOfVenice.sol:MerchantOfVenice",
						"label": "antonio",
						"offset": 0,
						"slot": "1",
						"type": "t_address"
					},
					{
						"astId": 11,
						"contract": "MerchantOfVenice.sol:MerchantOfVenice",
						"label": "loanAmount",
						"offset": 0,
						"slot": "2",
						"type": "t_uint256"
					},
					{
						"astId": 14,
						"contract": "MerchantOfVenice.sol:MerchantOfVenice",
						"label": "collateralAmount",
						"offset": 0,
						"slot": "3",
						"type": "t_uint256"
					},
					{
						"astId": 17,
						"contract": "MerchantOfVenice.sol:MerchantOfVenice",
						"label": "depositDeadline",
						"offset": 0,
						"slot": "4",
						"type": "t_uint256"
					},
					{
						"astId": 20,
						"contract": "MerchantOfVenice.sol:MerchantOfVenice",
						"label": "disbursementDeadline",
						"offset": 0,
						"slot": "5",
						"type": "t_uint256"
					},
					{
						"astId": 23,
						"contract": "MerchantOfVenice.sol:MerchantOfVenice",
						"label": "repaymentDeadline",
						"offset": 0,
						"slot": "6",
						"type": "t_uint256"
					},
					{
						"astId": 26,
						"contract": "MerchantOfVenice.sol:MerchantOfVenice",
						"label": "depositWindowSeconds",
						"offset": 0,
						"slot": "7",
						"type": "t_uint256"
					},
					{
						"astId": 29,
						"contract": "MerchantOfVenice.sol:MerchantOfVenice",
						"label": "disbursementWindowSeconds",
						"offset": 0,
						"slot": "8",
						"type": "t_uint256"
					},
					{
						"astId": 32,
						"contract": "MerchantOfVenice.sol:MerchantOfVenice",
						"label": "repaymentWindowSeconds",
						"offset": 0,
						"slot": "9",
						"type": "t_uint256"
					},
					{
						"astId": 35,
						"contract": "MerchantOfVenice.sol:MerchantOfVenice",
						"label": "collateralDeposited",
						"offset": 0,
						"slot": "10",
						"type": "t_bool"
					},
					{
						"astId": 38,
						"contract": "MerchantOfVenice.sol:MerchantOfVenice",
						"label": "disbursed",
						"offset": 1,
						"slot": "10",
						"type": "t_bool"
					},
					{
						"astId": 41,
						"contract": "MerchantOfVenice.sol:MerchantOfVenice",
						"label": "settled",
						"offset": 2,
						"slot": "10",
						"type": "t_bool"
					},
					{
						"astId": 43,
						"contract": "MerchantOfVenice.sol:MerchantOfVenice",
						"label": "_locked",
						"offset": 3,
						"slot": "10",
						"type": "t_bool"
					}
				],
				"types": {
					"t_address": {
						"encoding": "inplace",
						"label": "address",
						"numberOfBytes": "20"
					},
					"t_bool": {
						"encoding": "inplace",
						"label": "bool",
						"numberOfBytes": "1"
					},
					"t_uint256": {
						"encoding": "inplace",
						"label": "uint256",
						"numberOfBytes": "32"
					}
				}
			},
			"userdoc": {
				"events": {
					"BondForfeited(uint256)": {
						"notice": "Emitted when Shylock claims collateral after Antonio defaults."
					},
					"CollateralDeposited(uint256,uint256)": {
						"notice": "Emitted when Antonio successfully deposits collateral."
					},
					"CollateralReclaimed(uint256)": {
						"notice": "Emitted when Antonio reclaims collateral after Shylock fails to disburse."
					},
					"ContractCancelled()": {
						"notice": "Emitted when Shylock cancels after no collateral was deposited."
					},
					"ContractCreated(address,address,uint256,uint256,uint256)": {
						"notice": "Emitted when the contract is deployed and terms are set."
					},
					"LoanDisbursed(uint256,uint256)": {
						"notice": "Emitted when Shylock disburses the loan to Antonio."
					},
					"LoanRepaid(uint256,uint256)": {
						"notice": "Emitted when Antonio repays and collateral is returned."
					}
				},
				"kind": "user",
				"methods": {
					"antonio()": {
						"notice": "The borrower. Deposits collateral and repays the loan."
					},
					"cancel()": {
						"notice": "Shylock cancels the contract if Antonio never deposited collateral         and the deposit window has closed. No ETH is held so nothing moves."
					},
					"claimBond()": {
						"notice": "Shylock claims the full collateral after Antonio defaults.         Only callable after the repayment deadline has passed.         Antonio keeps the loan ETH as the cost of default."
					},
					"collateralAmount()": {
						"notice": "The collateral Antonio must deposit — exactly twice the loan.         Returned to Antonio on repayment. Claimed by Shylock on default."
					},
					"collateralDeposited()": {
						"notice": "True once Antonio has deposited the required collateral."
					},
					"constructor": {
						"notice": "Deploy the contract and set the lending terms.         No ETH is locked at this stage."
					},
					"depositCollateral()": {
						"notice": "Antonio deposits collateral equal to twice the loan amount.         Starts the disbursement clock for Shylock."
					},
					"depositDeadline()": {
						"notice": "Antonio must deposit collateral before this timestamp.         Set at deployment."
					},
					"depositWindowSeconds()": {
						"notice": "Seconds Antonio has to deposit collateral after deployment."
					},
					"disburseLoan()": {
						"notice": "Shylock disburses the loan directly to Antonio.         Shylock attaches exactly loanAmount in wei.         Starts the repayment clock for Antonio.         The contract never holds both sums simultaneously —         the loan ETH passes through to Antonio immediately."
					},
					"disbursed()": {
						"notice": "True once Shylock has disbursed the loan to Antonio."
					},
					"disbursementDeadline()": {
						"notice": "Shylock must disburse the loan before this timestamp.         Set when Antonio calls depositCollateral()."
					},
					"disbursementWindowSeconds()": {
						"notice": "Seconds Shylock has to disburse after Antonio deposits."
					},
					"getBalance()": {
						"notice": "Current ETH balance held by the contract in wei."
					},
					"loanAmount()": {
						"notice": "The loan amount Shylock will send to Antonio."
					},
					"reclaimCollateral()": {
						"notice": "Antonio reclaims his collateral if Shylock failed to disburse         within the disbursement window."
					},
					"repay()": {
						"notice": "Antonio repays the loan before the repayment deadline.         Repayment is forwarded to Shylock and collateral is returned         to Antonio in the same transaction.         Checks-Effects-Interactions: settled is written before any transfer."
					},
					"repaymentDeadline()": {
						"notice": "Antonio must repay the loan before this timestamp.         Set when Shylock calls disburseLoan()."
					},
					"repaymentWindowSeconds()": {
						"notice": "Seconds Antonio has to repay after Shylock disburses."
					},
					"settled()": {
						"notice": "True once the contract has reached its final state.         No further functions may be called after this point."
					},
					"shylock()": {
						"notice": "The lender. Deploys the contract and disburses the loan."
					},
					"timeToDepositDeadline()": {
						"notice": "Seconds remaining in the deposit window. Returns 0 if closed."
					},
					"timeToDisbursementDeadline()": {
						"notice": "Seconds remaining in the disbursement window.         Returns 0 if collateral not deposited or window has closed."
					},
					"timeToRepaymentDeadline()": {
						"notice": "Seconds remaining in the repayment window.         Returns 0 if loan not disbursed or window has closed."
					}
				},
				"notice": "A fully on-chain secured lending escrow.         Shylock (lender) sets the terms at deployment.         Antonio (borrower) deposits collateral equal to twice the loan amount.         Shylock then disburses the loan directly to Antonio.         Antonio repays before the repayment deadline to recover his collateral.         If Antonio defaults, Shylock claims the full collateral as compensation.         Three time windows govern the lifecycle:           1. depositWindow       — Antonio must deposit collateral within this                                    period after deployment.           2. disbursementWindow  — Shylock must disburse within this period                                    after Antonio deposits.           3. repaymentWindow     — Antonio must repay within this period                                    after Shylock disburses.         State flags enforce correct sequencing:           collateralDeposited -> disbursed -> settled         Every ETH entry path has a defined exit — no funds can be stranded.",
				"version": 1
			}
		}
	}
}